{
  "_format": "hh-sol-artifact-1",
  "contractName": "AaveVault",
  "sourceName": "contracts/strategies/AaveVault.sol",
  "abi": [
    {
      "inputs": [
        {
          "internalType": "address",
          "name": "_underlyingToken",
          "type": "address"
        },
        {
          "internalType": "address",
          "name": "_aToken",
          "type": "address"
        },
        {
          "internalType": "address",
          "name": "_aavePool",
          "type": "address"
        },
        {
          "internalType": "address",
          "name": "_priceFeed",
          "type": "address"
        }
      ],
      "stateMutability": "nonpayable",
      "type": "constructor"
    },
    {
      "anonymous": false,
      "inputs": [
        {
          "indexed": false,
          "internalType": "uint256",
          "name": "newAllocation",
          "type": "uint256"
        }
      ],
      "name": "AllocationChanged",
      "type": "event"
    },
    {
      "anonymous": false,
      "inputs": [
        {
          "indexed": true,
          "internalType": "address",
          "name": "user",
          "type": "address"
        },
        {
          "indexed": false,
          "internalType": "uint256",
          "name": "amount",
          "type": "uint256"
        }
      ],
      "name": "Deposited",
      "type": "event"
    },
    {
      "anonymous": false,
      "inputs": [
        {
          "indexed": false,
          "internalType": "uint256",
          "name": "amount",
          "type": "uint256"
        }
      ],
      "name": "EmergencyWithdrawn",
      "type": "event"
    },
    {
      "anonymous": false,
      "inputs": [
        {
          "indexed": true,
          "internalType": "address",
          "name": "previousOwner",
          "type": "address"
        },
        {
          "indexed": true,
          "internalType": "address",
          "name": "newOwner",
          "type": "address"
        }
      ],
      "name": "OwnershipTransferred",
      "type": "event"
    },
    {
      "anonymous": false,
      "inputs": [
        {
          "indexed": false,
          "internalType": "uint256",
          "name": "oldAllocation",
          "type": "uint256"
        },
        {
          "indexed": false,
          "internalType": "uint256",
          "name": "newAllocation",
          "type": "uint256"
        }
      ],
      "name": "Rebalanced",
      "type": "event"
    },
    {
      "anonymous": false,
      "inputs": [
        {
          "indexed": true,
          "internalType": "address",
          "name": "user",
          "type": "address"
        },
        {
          "indexed": false,
          "internalType": "uint256",
          "name": "amount",
          "type": "uint256"
        }
      ],
      "name": "Withdrawn",
      "type": "event"
    },
    {
      "inputs": [],
      "name": "ATOKEN",
      "outputs": [
        {
          "internalType": "address",
          "name": "",
          "type": "address"
        }
      ],
      "stateMutability": "view",
      "type": "function"
    },
    {
      "inputs": [],
      "name": "MAX_BPS",
      "outputs": [
        {
          "internalType": "uint256",
          "name": "",
          "type": "uint256"
        }
      ],
      "stateMutability": "view",
      "type": "function"
    },
    {
      "inputs": [],
      "name": "MIN_DEPOSIT",
      "outputs": [
        {
          "internalType": "uint256",
          "name": "",
          "type": "uint256"
        }
      ],
      "stateMutability": "view",
      "type": "function"
    },
    {
      "inputs": [],
      "name": "POOL",
      "outputs": [
        {
          "internalType": "contract ISimpleAavePool",
          "name": "",
          "type": "address"
        }
      ],
      "stateMutability": "view",
      "type": "function"
    },
    {
      "inputs": [],
      "name": "PRICE_FEED",
      "outputs": [
        {
          "internalType": "contract AggregatorV3Interface",
          "name": "",
          "type": "address"
        }
      ],
      "stateMutability": "view",
      "type": "function"
    },
    {
      "inputs": [],
      "name": "REBALANCE_COOLDOWN",
      "outputs": [
        {
          "internalType": "uint256",
          "name": "",
          "type": "uint256"
        }
      ],
      "stateMutability": "view",
      "type": "function"
    },
    {
      "inputs": [],
      "name": "UNDERLYING_TOKEN",
      "outputs": [
        {
          "internalType": "address",
          "name": "",
          "type": "address"
        }
      ],
      "stateMutability": "view",
      "type": "function"
    },
    {
      "inputs": [
        {
          "internalType": "uint256",
          "name": "amount",
          "type": "uint256"
        }
      ],
      "name": "deposit",
      "outputs": [],
      "stateMutability": "nonpayable",
      "type": "function"
    },
    {
      "inputs": [],
      "name": "emergencyWithdraw",
      "outputs": [],
      "stateMutability": "nonpayable",
      "type": "function"
    },
    {
      "inputs": [],
      "name": "getCurrentAllocation",
      "outputs": [
        {
          "internalType": "uint256",
          "name": "",
          "type": "uint256"
        }
      ],
      "stateMutability": "view",
      "type": "function"
    },
    {
      "inputs": [],
      "name": "getCurrentPrice",
      "outputs": [
        {
          "internalType": "uint256",
          "name": "price",
          "type": "uint256"
        },
        {
          "internalType": "uint256",
          "name": "lastUpdated",
          "type": "uint256"
        }
      ],
      "stateMutability": "view",
      "type": "function"
    },
    {
      "inputs": [],
      "name": "getTotalValue",
      "outputs": [
        {
          "internalType": "uint256",
          "name": "",
          "type": "uint256"
        }
      ],
      "stateMutability": "view",
      "type": "function"
    },
    {
      "inputs": [],
      "name": "lastRebalance",
      "outputs": [
        {
          "internalType": "uint256",
          "name": "",
          "type": "uint256"
        }
      ],
      "stateMutability": "view",
      "type": "function"
    },
    {
      "inputs": [],
      "name": "owner",
      "outputs": [
        {
          "internalType": "address",
          "name": "",
          "type": "address"
        }
      ],
      "stateMutability": "view",
      "type": "function"
    },
    {
      "inputs": [],
      "name": "rebalance",
      "outputs": [],
      "stateMutability": "nonpayable",
      "type": "function"
    },
    {
      "inputs": [],
      "name": "renounceOwnership",
      "outputs": [],
      "stateMutability": "nonpayable",
      "type": "function"
    },
    {
      "inputs": [
        {
          "internalType": "uint256",
          "name": "_targetAllocation",
          "type": "uint256"
        }
      ],
      "name": "setTargetAllocation",
      "outputs": [],
      "stateMutability": "nonpayable",
      "type": "function"
    },
    {
      "inputs": [],
      "name": "targetAllocation",
      "outputs": [
        {
          "internalType": "uint256",
          "name": "",
          "type": "uint256"
        }
      ],
      "stateMutability": "view",
      "type": "function"
    },
    {
      "inputs": [],
      "name": "totalAssets",
      "outputs": [
        {
          "internalType": "uint256",
          "name": "",
          "type": "uint256"
        }
      ],
      "stateMutability": "view",
      "type": "function"
    },
    {
      "inputs": [
        {
          "internalType": "address",
          "name": "newOwner",
          "type": "address"
        }
      ],
      "name": "transferOwnership",
      "outputs": [],
      "stateMutability": "nonpayable",
      "type": "function"
    },
    {
      "inputs": [
        {
          "internalType": "uint256",
          "name": "amount",
          "type": "uint256"
        }
      ],
      "name": "withdraw",
      "outputs": [],
      "stateMutability": "nonpayable",
      "type": "function"
    }
  ],
  "bytecode": "0x610100604052611d4c60035534801561001757600080fd5b506040516122d33803806122d3833981016040819052610036916105b1565b60016000556100443361019e565b6001600160a01b03841661008f5760405162461bcd60e51b815260206004820152600d60248201526c24b73b30b634b2103a37b5b2b760991b60448201526064015b60405180910390fd5b6001600160a01b0383166100d65760405162461bcd60e51b815260206004820152600e60248201526d24b73b30b634b21030aa37b5b2b760911b6044820152606401610086565b6001600160a01b03821661011b5760405162461bcd60e51b815260206004820152600c60248201526b125b9d985b1a59081c1bdbdb60a21b6044820152606401610086565b6001600160a01b0381166101665760405162461bcd60e51b8152602060048201526012602482015271125b9d985b1a59081c1c9a58d9481999595960721b6044820152606401610086565b6001600160a01b0380851660a081905284821660c05283821660805290821660e05261019590836000196101f0565b505050506106ba565b600180546001600160a01b038381166001600160a01b0319831681179093556040519116919082907f8be0079c531659141344cd1fd0a4f28419497f9722a3daafe3b4186f6b6457e090600090a35050565b80158061026a5750604051636eb1769f60e11b81523060048201526001600160a01b03838116602483015284169063dd62ed3e90604401602060405180830381865afa158015610244573d6000803e3d6000fd5b505050506040513d601f19601f820116820180604052508101906102689190610605565b155b6102dc5760405162461bcd60e51b815260206004820152603660248201527f5361666545524332303a20617070726f76652066726f6d206e6f6e2d7a65726f60448201527f20746f206e6f6e2d7a65726f20616c6c6f77616e6365000000000000000000006064820152608401610086565b604080516001600160a01b038416602482015260448082018490528251808303909101815260649091019091526020810180516001600160e01b0390811663095ea7b360e01b1790915261033291859161033716565b505050565b6040805180820190915260208082527f5361666545524332303a206c6f772d6c6576656c2063616c6c206661696c656490820152600090610384906001600160a01b038516908490610404565b90508051600014806103a55750808060200190518101906103a5919061061e565b6103325760405162461bcd60e51b815260206004820152602a60248201527f5361666545524332303a204552433230206f7065726174696f6e20646964206e6044820152691bdd081cdd58d8d9595960b21b6064820152608401610086565b6060610413848460008561041b565b949350505050565b60608247101561047c5760405162461bcd60e51b815260206004820152602660248201527f416464726573733a20696e73756666696369656e742062616c616e636520666f6044820152651c8818d85b1b60d21b6064820152608401610086565b600080866001600160a01b03168587604051610498919061066b565b60006040518083038185875af1925050503d80600081146104d5576040519150601f19603f3d011682016040523d82523d6000602084013e6104da565b606091505b5090925090506104ec878383876104f7565b979650505050505050565b6060831561056657825160000361055f576001600160a01b0385163b61055f5760405162461bcd60e51b815260206004820152601d60248201527f416464726573733a2063616c6c20746f206e6f6e2d636f6e74726163740000006044820152606401610086565b5081610413565b610413838381511561057b5781518083602001fd5b8060405162461bcd60e51b81526004016100869190610687565b80516001600160a01b03811681146105ac57600080fd5b919050565b600080600080608085870312156105c757600080fd5b6105d085610595565b93506105de60208601610595565b92506105ec60408601610595565b91506105fa60608601610595565b905092959194509250565b60006020828403121561061757600080fd5b5051919050565b60006020828403121561063057600080fd5b8151801515811461064057600080fd5b9392505050565b60005b8381101561066257818101518382015260200161064a565b50506000910152565b6000825161067d818460208701610647565b9190910192915050565b60208152600082518060208401526106a6816040850160208701610647565b601f01601f19169190910160400192915050565b60805160a05160c05160e051611b236107b0600039600081816101cd015261138f0152600081816101f40152818161052a0152818161074a01528181610bf401528181610d3d01528181610e8701528181610f32015261106401526000818161017b01528181610494015281816105ac01528181610676015281816107ee0152818161093b01528181610a2001528181610a5f01528181610bb401528181610c7e01528181610fba015281816110fa0152818161119e015281816112660152611300015260008181610223015281816105e40152818161097301528181610a9b01528181610cbd015261116f0152611b236000f3fe608060405234801561001057600080fd5b50600436106101375760003560e01c80638da5cb5b116100b8578063caa648b41161007c578063caa648b41461028c578063db2e21bc14610294578063e1e158a51461029c578063eb91d37e146102a6578063f2fde38b146102c3578063fd967f47146102d657600080fd5b80638da5cb5b1461024d5780638faee2a81461025e578063a8c2d1f214610268578063b6b55f2514610271578063c1a8240f1461028457600080fd5b806331eb318a116100ff57806331eb318a146101c857806351c0e061146101ef578063715018a6146102165780637535d2461461021e5780637d7c2a1c1461024557600080fd5b806301e1d1141461013c578063106b9ca11461015857806327709cf71461016157806329db1be6146101765780632e1a7d4d146101b5575b600080fd5b61014560025481565b6040519081526020015b60405180910390f35b61014560045481565b61017461016f366004611910565b6102df565b005b61019d7f000000000000000000000000000000000000000000000000000000000000000081565b6040516001600160a01b03909116815260200161014f565b6101746101c3366004611910565b6103d9565b61019d7f000000000000000000000000000000000000000000000000000000000000000081565b61019d7f000000000000000000000000000000000000000000000000000000000000000081565b61017461085b565b61019d7f000000000000000000000000000000000000000000000000000000000000000081565b61017461086f565b6001546001600160a01b031661019d565b6101456201518081565b61014560035481565b61017461027f366004611910565b610b51565b610145610e52565b610145610f1a565b61017461103c565b610145620f424081565b6102ae611387565b6040805192835260208301919091520161014f565b6101746102d1366004611929565b61145f565b61014561271081565b6102e76114d5565b6127108111156103335760405162461bcd60e51b815260206004820152601260248201527124b73b30b634b21030b63637b1b0ba34b7b760711b60448201526064015b60405180910390fd5b60038054908290556040518281527f7e17528ef401faa26fa6c3c25c843669a4696e3297f0e526d732a394158084e19060200160405180910390a16103e861037b828461152f565b11156103d557306001600160a01b0316637d7c2a1c6040518163ffffffff1660e01b8152600401600060405180830381600087803b1580156103bc57600080fd5b505af11580156103d0573d6000803e3d6000fd5b505050505b5050565b6103e16114d5565b6103e961155a565b6000811161042e5760405162461bcd60e51b81526020600482015260126024820152710416d6f756e74206d757374206265203e20360741b604482015260640161032a565b610436610f1a565b81111561047c5760405162461bcd60e51b8152602060048201526014602482015273496e73756666696369656e742062616c616e636560601b604482015260640161032a565b6040516370a0823160e01b81523060048201526000907f00000000000000000000000000000000000000000000000000000000000000006001600160a01b0316906370a0823190602401602060405180830381865afa1580156104e3573d6000803e3d6000fd5b505050506040513d601f19601f820116820180604052508101906105079190611959565b6040516370a0823160e01b81523060048201529091506000906001600160a01b037f000000000000000000000000000000000000000000000000000000000000000016906370a0823190602401602060405180830381865afa158015610571573d6000803e3d6000fd5b505050506040513d601f19601f820116820180604052508101906105959190611959565b604051631a4ca37b60e21b81526001600160a01b037f000000000000000000000000000000000000000000000000000000000000000081166004830152602482018690523060448301529192507f0000000000000000000000000000000000000000000000000000000000000000909116906369328dec906064016020604051808303816000875af115801561062f573d6000803e3d6000fd5b505050506040513d601f19601f820116820180604052508101906106539190611959565b506040516370a0823160e01b815230600482015260009083906001600160a01b037f000000000000000000000000000000000000000000000000000000000000000016906370a0823190602401602060405180830381865afa1580156106bd573d6000803e3d6000fd5b505050506040513d601f19601f820116820180604052508101906106e19190611959565b6106eb9190611988565b9050600081116107325760405162461bcd60e51b8152602060048201526012602482015271139bc81d1bdad95b9cc81c9958d95a5d995960721b604482015260640161032a565b6040516370a0823160e01b81523060048201526000907f00000000000000000000000000000000000000000000000000000000000000006001600160a01b0316906370a0823190602401602060405180830381865afa158015610799573d6000803e3d6000fd5b505050506040513d601f19601f820116820180604052508101906107bd9190611959565b6107c79084611988565b905084600260008282546107db9190611988565b9091555061081590506001600160a01b037f00000000000000000000000000000000000000000000000000000000000000001633846115b3565b60405182815233907f7084f5476618d8e60b11ef0d7d3f06914655adb8793e28ff7f018d4c76d505d59060200160405180910390a2505050506108586001600055565b50565b6108636114d5565b61086d600061161b565b565b6108776114d5565b61087f61155a565b62015180600454610890919061199b565b4210156108d15760405162461bcd60e51b815260206004820152600f60248201526e436f6f6c646f776e2061637469766560881b604482015260640161032a565b60006108db610e52565b905060006108e7610f1a565b90506003548214610af9576003548211156109e957600061271082600354856109109190611988565b61091a91906119ae565b61092491906119c5565b604051631a4ca37b60e21b81526001600160a01b037f000000000000000000000000000000000000000000000000000000000000000081166004830152602482018390523060448301529192507f0000000000000000000000000000000000000000000000000000000000000000909116906369328dec906064016020604051808303816000875af11580156109be573d6000803e3d6000fd5b505050506040513d601f19601f820116820180604052508101906109e29190611959565b5050610af9565b600061271082846003546109fd9190611988565b610a0791906119ae565b610a1191906119c5565b9050610a486001600160a01b037f00000000000000000000000000000000000000000000000000000000000000001633308461166d565b60405163617ba03760e01b81526001600160a01b037f00000000000000000000000000000000000000000000000000000000000000008116600483015260248201839052306044830152600060648301527f0000000000000000000000000000000000000000000000000000000000000000169063617ba03790608401600060405180830381600087803b158015610adf57600080fd5b505af1158015610af3573d6000803e3d6000fd5b50505050505b42600455610b05610f1a565b6002556003546040805184815260208101929092527fc257294ad49c215e1a248c91a86bc2612b4781d9677285cc9c14498f485ef122910160405180910390a1505061086d6001600055565b610b596114d5565b610b6161155a565b620f4240811015610ba75760405162461bcd60e51b815260206004820152601060248201526f105b5bdd5b9d081d1bdbc81cdb585b1b60821b604482015260640161032a565b610bdc6001600160a01b037f00000000000000000000000000000000000000000000000000000000000000001633308461166d565b6040516370a0823160e01b81523060048201526000907f00000000000000000000000000000000000000000000000000000000000000006001600160a01b0316906370a0823190602401602060405180830381865afa158015610c43573d6000803e3d6000fd5b505050506040513d601f19601f82011682018060405250810190610c679190611959565b60405163617ba03760e01b81526001600160a01b037f00000000000000000000000000000000000000000000000000000000000000008116600483015260248201859052306044830152600060648301529192507f00000000000000000000000000000000000000000000000000000000000000009091169063617ba03790608401600060405180830381600087803b158015610d0357600080fd5b505af1158015610d17573d6000803e3d6000fd5b50506040516370a0823160e01b8152306004820152600092508391506001600160a01b037f000000000000000000000000000000000000000000000000000000000000000016906370a0823190602401602060405180830381865afa158015610d84573d6000803e3d6000fd5b505050506040513d601f19601f82011682018060405250810190610da89190611959565b610db29190611988565b905060008111610dfa5760405162461bcd60e51b8152602060048201526013602482015272139bc818551bdad95b9cc81c9958d95a5d9959606a1b604482015260640161032a565b8260026000828254610e0c919061199b565b909155505060405183815233907f2da466a7b24304f47e87fa2e1e5a81b9831ce54fec19055ce277ca2f39ba42c49060200160405180910390a250506108586001600055565b600080610e5d610f1a565b905080600003610e6f57600091505090565b6040516370a0823160e01b81523060048201526000907f00000000000000000000000000000000000000000000000000000000000000006001600160a01b0316906370a0823190602401602060405180830381865afa158015610ed6573d6000803e3d6000fd5b505050506040513d601f19601f82011682018060405250810190610efa9190611959565b905081610f09612710836119ae565b610f1391906119c5565b9250505090565b6040516370a0823160e01b81523060048201526000907f00000000000000000000000000000000000000000000000000000000000000006001600160a01b0316906370a0823190602401602060405180830381865afa158015610f81573d6000803e3d6000fd5b505050506040513d601f19601f82011682018060405250810190610fa59190611959565b6040516370a0823160e01b81523060048201527f00000000000000000000000000000000000000000000000000000000000000006001600160a01b0316906370a0823190602401602060405180830381865afa158015611009573d6000803e3d6000fd5b505050506040513d601f19601f8201168201806040525081019061102d9190611959565b611037919061199b565b905090565b6110446114d5565b61104c61155a565b6040516370a0823160e01b81523060048201526000907f00000000000000000000000000000000000000000000000000000000000000006001600160a01b0316906370a0823190602401602060405180830381865afa1580156110b3573d6000803e3d6000fd5b505050506040513d601f19601f820116820180604052508101906110d79190611959565b6040516370a0823160e01b81523060048201529091506000906001600160a01b037f000000000000000000000000000000000000000000000000000000000000000016906370a0823190602401602060405180830381865afa158015611141573d6000803e3d6000fd5b505050506040513d601f19601f820116820180604052508101906111659190611959565b9050811561124e577f00000000000000000000000000000000000000000000000000000000000000006001600160a01b03166369328dec7f00000000000000000000000000000000000000000000000000000000000000006000196111d26001546001600160a01b031690565b60405160e085901b6001600160e01b03191681526001600160a01b039384166004820152602481019290925290911660448201526064016020604051808303816000875af1158015611228573d6000803e3d6000fd5b505050506040513d601f19601f8201168201806040525081019061124c9190611959565b505b6040516370a0823160e01b81523060048201526000907f00000000000000000000000000000000000000000000000000000000000000006001600160a01b0316906370a0823190602401602060405180830381865afa1580156112b5573d6000803e3d6000fd5b505050506040513d601f19601f820116820180604052508101906112d99190611959565b90508015611327576113276112f66001546001600160a01b031690565b6001600160a01b037f00000000000000000000000000000000000000000000000000000000000000001690836115b3565b6000836113348484611988565b61133e919061199b565b60006002556040518181529091507ff639e28400db464cf64a55c42636df1b181f180f2ad8519cbcec893760e6e6b79060200160405180910390a15050505061086d6001600055565b6000806000807f00000000000000000000000000000000000000000000000000000000000000006001600160a01b031663feaf968c6040518163ffffffff1660e01b815260040160a060405180830381865afa1580156113eb573d6000803e3d6000fd5b505050506040513d601f19601f8201168201806040525081019061140f9190611a06565b50935050925050600082136114565760405162461bcd60e51b815260206004820152600d60248201526c496e76616c696420707269636560981b604482015260640161032a565b90939092509050565b6114676114d5565b6001600160a01b0381166114cc5760405162461bcd60e51b815260206004820152602660248201527f4f776e61626c653a206e6577206f776e657220697320746865207a65726f206160448201526564647265737360d01b606482015260840161032a565b6108588161161b565b6001546001600160a01b0316331461086d5760405162461bcd60e51b815260206004820181905260248201527f4f776e61626c653a2063616c6c6572206973206e6f7420746865206f776e6572604482015260640161032a565b6000818311611547576115428383611988565b611551565b6115518284611988565b90505b92915050565b6002600054036115ac5760405162461bcd60e51b815260206004820152601f60248201527f5265656e7472616e637947756172643a207265656e7472616e742063616c6c00604482015260640161032a565b6002600055565b6040516001600160a01b03831660248201526044810182905261161690849063a9059cbb60e01b906064015b60408051601f198184030181529190526020810180516001600160e01b03166001600160e01b0319909316929092179091526116ab565b505050565b600180546001600160a01b038381166001600160a01b0319831681179093556040519116919082907f8be0079c531659141344cd1fd0a4f28419497f9722a3daafe3b4186f6b6457e090600090a35050565b6040516001600160a01b03808516602483015283166044820152606481018290526116a59085906323b872dd60e01b906084016115df565b50505050565b6000611700826040518060400160405280602081526020017f5361666545524332303a206c6f772d6c6576656c2063616c6c206661696c6564815250856001600160a01b03166117809092919063ffffffff16565b90508051600014806117215750808060200190518101906117219190611a58565b6116165760405162461bcd60e51b815260206004820152602a60248201527f5361666545524332303a204552433230206f7065726174696f6e20646964206e6044820152691bdd081cdd58d8d9595960b21b606482015260840161032a565b606061178f8484600085611797565b949350505050565b6060824710156117f85760405162461bcd60e51b815260206004820152602660248201527f416464726573733a20696e73756666696369656e742062616c616e636520666f6044820152651c8818d85b1b60d21b606482015260840161032a565b600080866001600160a01b031685876040516118149190611a9e565b60006040518083038185875af1925050503d8060008114611851576040519150601f19603f3d011682016040523d82523d6000602084013e611856565b606091505b509150915061186787838387611872565b979650505050505050565b606083156118e15782516000036118da576001600160a01b0385163b6118da5760405162461bcd60e51b815260206004820152601d60248201527f416464726573733a2063616c6c20746f206e6f6e2d636f6e7472616374000000604482015260640161032a565b508161178f565b61178f83838151156118f65781518083602001fd5b8060405162461bcd60e51b815260040161032a9190611aba565b60006020828403121561192257600080fd5b5035919050565b60006020828403121561193b57600080fd5b81356001600160a01b038116811461195257600080fd5b9392505050565b60006020828403121561196b57600080fd5b5051919050565b634e487b7160e01b600052601160045260246000fd5b8181038181111561155457611554611972565b8082018082111561155457611554611972565b808202811582820484141761155457611554611972565b6000826119e257634e487b7160e01b600052601260045260246000fd5b500490565b805169ffffffffffffffffffff81168114611a0157600080fd5b919050565b600080600080600060a08688031215611a1e57600080fd5b611a27866119e7565b60208701516040880151606089015192975090955093509150611a4c608087016119e7565b90509295509295909350565b600060208284031215611a6a57600080fd5b8151801515811461195257600080fd5b60005b83811015611a95578181015183820152602001611a7d565b50506000910152565b60008251611ab0818460208701611a7a565b9190910192915050565b6020815260008251806020840152611ad9816040850160208701611a7a565b601f01601f1916919091016040019291505056fea264697066735822122002e6cfeceb9b15fcdcd01ec153a1b4a50bf86c6bf99f5162cb4d148564d2315e64736f6c634300081b0033",
  "linkReferences": {},
  "deployedLinkReferences": {}
}