{
  "_format": "hh-sol-artifact-1",
  "contractName": "TreasuryAIManager",
  "sourceName": "contracts/ai/TreasuryAIManager.sol",
  "abi": [
    {
      "inputs": [],
      "stateMutability": "nonpayable",
      "type": "constructor"
    },
    {
      "anonymous": false,
      "inputs": [
        {
          "indexed": true,
          "internalType": "bytes32",
          "name": "decisionId",
          "type": "bytes32"
        }
      ],
      "name": "DecisionProcessed",
      "type": "event"
    },
    {
      "anonymous": false,
      "inputs": [
        {
          "indexed": true,
          "internalType": "address",
          "name": "token",
          "type": "address"
        },
        {
          "indexed": false,
          "internalType": "uint256",
          "name": "price",
          "type": "uint256"
        },
        {
          "indexed": false,
          "internalType": "uint256",
          "name": "volatility",
          "type": "uint256"
        },
        {
          "indexed": false,
          "internalType": "uint256",
          "name": "volume",
          "type": "uint256"
        }
      ],
      "name": "MarketDataUpdated",
      "type": "event"
    },
    {
      "anonymous": false,
      "inputs": [
        {
          "indexed": true,
          "internalType": "address",
          "name": "previousOwner",
          "type": "address"
        },
        {
          "indexed": true,
          "internalType": "address",
          "name": "newOwner",
          "type": "address"
        }
      ],
      "name": "OwnershipTransferred",
      "type": "event"
    },
    {
      "anonymous": false,
      "inputs": [
        {
          "indexed": false,
          "internalType": "address",
          "name": "serviceLayer",
          "type": "address"
        },
        {
          "indexed": false,
          "internalType": "bool",
          "name": "isActive",
          "type": "bool"
        }
      ],
      "name": "ServiceLayerUpdated",
      "type": "event"
    },
    {
      "anonymous": false,
      "inputs": [
        {
          "indexed": true,
          "internalType": "address",
          "name": "strategy",
          "type": "address"
        },
        {
          "indexed": false,
          "internalType": "uint256",
          "name": "allocation",
          "type": "uint256"
        },
        {
          "indexed": false,
          "internalType": "string",
          "name": "reason",
          "type": "string"
        },
        {
          "indexed": true,
          "internalType": "bytes32",
          "name": "decisionId",
          "type": "bytes32"
        }
      ],
      "name": "StrategyDecisionMade",
      "type": "event"
    },
    {
      "anonymous": false,
      "inputs": [
        {
          "indexed": false,
          "internalType": "address",
          "name": "strategy",
          "type": "address"
        },
        {
          "indexed": false,
          "internalType": "bool",
          "name": "supported",
          "type": "bool"
        }
      ],
      "name": "StrategySupported",
      "type": "event"
    },
    {
      "inputs": [],
      "name": "MAX_BPS",
      "outputs": [
        {
          "internalType": "uint256",
          "name": "",
          "type": "uint256"
        }
      ],
      "stateMutability": "view",
      "type": "function"
    },
    {
      "inputs": [],
      "name": "MAX_DECISIONS",
      "outputs": [
        {
          "internalType": "uint256",
          "name": "",
          "type": "uint256"
        }
      ],
      "stateMutability": "view",
      "type": "function"
    },
    {
      "inputs": [],
      "name": "UPDATE_INTERVAL",
      "outputs": [
        {
          "internalType": "uint256",
          "name": "",
          "type": "uint256"
        }
      ],
      "stateMutability": "view",
      "type": "function"
    },
    {
      "inputs": [
        {
          "internalType": "bytes",
          "name": "",
          "type": "bytes"
        }
      ],
      "name": "checkUpkeep",
      "outputs": [
        {
          "internalType": "bool",
          "name": "upkeepNeeded",
          "type": "bool"
        },
        {
          "internalType": "bytes",
          "name": "",
          "type": "bytes"
        }
      ],
      "stateMutability": "view",
      "type": "function"
    },
    {
      "inputs": [
        {
          "internalType": "address",
          "name": "strategy",
          "type": "address"
        }
      ],
      "name": "getLatestDecision",
      "outputs": [
        {
          "components": [
            {
              "internalType": "address",
              "name": "strategy",
              "type": "address"
            },
            {
              "internalType": "uint256",
              "name": "allocation",
              "type": "uint256"
            },
            {
              "internalType": "uint256",
              "name": "timestamp",
              "type": "uint256"
            },
            {
              "internalType": "string",
              "name": "reason",
              "type": "string"
            },
            {
              "internalType": "bytes32",
              "name": "decisionId",
              "type": "bytes32"
            }
          ],
          "internalType": "struct TreasuryAIManager.StrategyDecision",
          "name": "",
          "type": "tuple"
        }
      ],
      "stateMutability": "view",
      "type": "function"
    },
    {
      "inputs": [],
      "name": "isServiceLayerActive",
      "outputs": [
        {
          "internalType": "bool",
          "name": "",
          "type": "bool"
        }
      ],
      "stateMutability": "view",
      "type": "function"
    },
    {
      "inputs": [],
      "name": "lastUpdate",
      "outputs": [
        {
          "internalType": "uint256",
          "name": "",
          "type": "uint256"
        }
      ],
      "stateMutability": "view",
      "type": "function"
    },
    {
      "inputs": [
        {
          "internalType": "address",
          "name": "",
          "type": "address"
        }
      ],
      "name": "marketData",
      "outputs": [
        {
          "internalType": "uint256",
          "name": "price",
          "type": "uint256"
        },
        {
          "internalType": "uint256",
          "name": "volatility",
          "type": "uint256"
        },
        {
          "internalType": "uint256",
          "name": "volume",
          "type": "uint256"
        },
        {
          "internalType": "uint256",
          "name": "timestamp",
          "type": "uint256"
        }
      ],
      "stateMutability": "view",
      "type": "function"
    },
    {
      "inputs": [],
      "name": "owner",
      "outputs": [
        {
          "internalType": "address",
          "name": "",
          "type": "address"
        }
      ],
      "stateMutability": "view",
      "type": "function"
    },
    {
      "inputs": [
        {
          "internalType": "bytes",
          "name": "",
          "type": "bytes"
        }
      ],
      "name": "performUpkeep",
      "outputs": [],
      "stateMutability": "nonpayable",
      "type": "function"
    },
    {
      "inputs": [
        {
          "internalType": "address",
          "name": "",
          "type": "address"
        }
      ],
      "name": "priceFeeds",
      "outputs": [
        {
          "internalType": "contract AggregatorV3Interface",
          "name": "",
          "type": "address"
        }
      ],
      "stateMutability": "view",
      "type": "function"
    },
    {
      "inputs": [
        {
          "internalType": "bytes32",
          "name": "decisionId",
          "type": "bytes32"
        },
        {
          "internalType": "uint256",
          "name": "allocation",
          "type": "uint256"
        },
        {
          "internalType": "string",
          "name": "reason",
          "type": "string"
        }
      ],
      "name": "processDecision",
      "outputs": [],
      "stateMutability": "nonpayable",
      "type": "function"
    },
    {
      "inputs": [
        {
          "internalType": "bytes32",
          "name": "decisionId",
          "type": "bytes32"
        },
        {
          "internalType": "address",
          "name": "strategy",
          "type": "address"
        },
        {
          "internalType": "uint256",
          "name": "allocation",
          "type": "uint256"
        },
        {
          "internalType": "string",
          "name": "reason",
          "type": "string"
        }
      ],
      "name": "processDecision",
      "outputs": [],
      "stateMutability": "nonpayable",
      "type": "function"
    },
    {
      "inputs": [
        {
          "internalType": "bytes32",
          "name": "",
          "type": "bytes32"
        }
      ],
      "name": "processedDecisions",
      "outputs": [
        {
          "internalType": "bool",
          "name": "",
          "type": "bool"
        }
      ],
      "stateMutability": "view",
      "type": "function"
    },
    {
      "inputs": [],
      "name": "renounceOwnership",
      "outputs": [],
      "stateMutability": "nonpayable",
      "type": "function"
    },
    {
      "inputs": [],
      "name": "serviceLayer",
      "outputs": [
        {
          "internalType": "address",
          "name": "",
          "type": "address"
        }
      ],
      "stateMutability": "view",
      "type": "function"
    },
    {
      "inputs": [
        {
          "internalType": "address",
          "name": "token",
          "type": "address"
        },
        {
          "internalType": "address",
          "name": "priceFeed",
          "type": "address"
        }
      ],
      "name": "setPriceFeed",
      "outputs": [],
      "stateMutability": "nonpayable",
      "type": "function"
    },
    {
      "inputs": [
        {
          "internalType": "address",
          "name": "_serviceLayer",
          "type": "address"
        },
        {
          "internalType": "bool",
          "name": "_isActive",
          "type": "bool"
        }
      ],
      "name": "setServiceLayer",
      "outputs": [],
      "stateMutability": "nonpayable",
      "type": "function"
    },
    {
      "inputs": [
        {
          "internalType": "address",
          "name": "strategy",
          "type": "address"
        },
        {
          "internalType": "bool",
          "name": "supported",
          "type": "bool"
        }
      ],
      "name": "setSupportedStrategy",
      "outputs": [],
      "stateMutability": "nonpayable",
      "type": "function"
    },
    {
      "inputs": [
        {
          "internalType": "address",
          "name": "",
          "type": "address"
        },
        {
          "internalType": "uint256",
          "name": "",
          "type": "uint256"
        }
      ],
      "name": "strategyDecisions",
      "outputs": [
        {
          "internalType": "address",
          "name": "strategy",
          "type": "address"
        },
        {
          "internalType": "uint256",
          "name": "allocation",
          "type": "uint256"
        },
        {
          "internalType": "uint256",
          "name": "timestamp",
          "type": "uint256"
        },
        {
          "internalType": "string",
          "name": "reason",
          "type": "string"
        },
        {
          "internalType": "bytes32",
          "name": "decisionId",
          "type": "bytes32"
        }
      ],
      "stateMutability": "view",
      "type": "function"
    },
    {
      "inputs": [
        {
          "internalType": "address",
          "name": "",
          "type": "address"
        }
      ],
      "name": "supportedStrategies",
      "outputs": [
        {
          "internalType": "bool",
          "name": "",
          "type": "bool"
        }
      ],
      "stateMutability": "view",
      "type": "function"
    },
    {
      "inputs": [
        {
          "internalType": "uint256",
          "name": "",
          "type": "uint256"
        }
      ],
      "name": "supportedStrategyList",
      "outputs": [
        {
          "internalType": "address",
          "name": "",
          "type": "address"
        }
      ],
      "stateMutability": "view",
      "type": "function"
    },
    {
      "inputs": [
        {
          "internalType": "uint256",
          "name": "",
          "type": "uint256"
        }
      ],
      "name": "supportedTokens",
      "outputs": [
        {
          "internalType": "address",
          "name": "",
          "type": "address"
        }
      ],
      "stateMutability": "view",
      "type": "function"
    },
    {
      "inputs": [
        {
          "internalType": "address",
          "name": "newOwner",
          "type": "address"
        }
      ],
      "name": "transferOwnership",
      "outputs": [],
      "stateMutability": "nonpayable",
      "type": "function"
    }
  ],
  "bytecode": "0x6080604052348015600f57600080fd5b50601733601b565b606b565b600080546001600160a01b038381166001600160a01b0319831681178455604051919092169283917f8be0079c531659141344cd1fd0a4f28419497f9722a3daafe3b4186f6b6457e09190a35050565b611d238061007a6000396000f3fe608060405234801561001057600080fd5b50600436106101585760003560e01c806389ac4147116100c3578063c04637111161007c578063c046371114610365578063c62556261461036e578063e5bf3e7214610381578063ee3be5f514610394578063f2fde38b146103b7578063fd967f47146103ca57600080fd5b806389ac4147146102a15780638da5cb5b146102b85780638e275889146102c95780639a0c4baa146102dd5780639dcb511a146102e5578063b0ffb3961461030e57600080fd5b806362b2c1561161011557806362b2c1561461021f57806365f6fa941461023f5780636e04ff0d14610252578063715018a61461027357806376e112861461027b578063862ea8981461028e57600080fd5b80630c79fa721461015d5780630e7c9fd8146101725780631a08f400146101aa57806325302f93146101d55780634585e33b146101e85780636222ba77146101fb575b600080fd5b61017061016b366004611637565b6103d3565b005b61019561018036600461168a565b60046020526000908152604090205460ff1681565b60405190151581526020015b60405180910390f35b6101bd6101b836600461168a565b61066b565b6040516001600160a01b0390911681526020016101a1565b6101706101e33660046116bf565b610695565b6101706101f6366004611727565b610931565b61020e610209366004611769565b610949565b6040516101a19594939291906117d9565b61023261022d366004611818565b610a2b565b6040516101a1919061183a565b61017061024d366004611892565b610c3d565b610265610260366004611727565b610e76565b6040516101a19291906118ce565b610170610ec4565b6101706102893660046118f1565b610ed8565b6006546101bd906001600160a01b031681565b6102aa610e1081565b6040519081526020016101a1565b6000546001600160a01b03166101bd565b60065461019590600160a01b900460ff1681565b6102aa606481565b6101bd6102f3366004611818565b6005602052600090815260409020546001600160a01b031681565b61034561031c366004611818565b600260208190526000918252604090912080546001820154928201546003909201549092919084565b6040805194855260208501939093529183015260608201526080016101a1565b6102aa60075481565b6101bd61037c36600461168a565b610f0e565b61017061038f366004611892565b610f1e565b6101956103a2366004611818565b60036020526000908152604090205460ff1681565b6101706103c5366004611818565b610f92565b6102aa61271081565b6006546001600160a01b031633146104275760405162461bcd60e51b815260206004820152601260248201527127b7363c9039b2b93b34b1b2903630bcb2b960711b60448201526064015b60405180910390fd5b600654600160a01b900460ff166104805760405162461bcd60e51b815260206004820152601860248201527f53657276696365206c61796572206e6f74206163746976650000000000000000604482015260640161041e565b60008481526004602052604090205460ff16156104df5760405162461bcd60e51b815260206004820152601a60248201527f4465636973696f6e20616c72656164792070726f636573736564000000000000604482015260640161041e565b6000805b6009548110156105e15760006009828154811061050257610502611924565b60009182526020808320909101546001600160a01b0316808352600190915260408220909250905b81548110156105c9578882828154811061054657610546611924565b906000526020600020906005020160040154036105c1578782828154811061057057610570611924565b906000526020600020906005020160010181905550868683838154811061059957610599611924565b906000526020600020906005020160030191826105b79291906119ee565b50600194506105c9565b60010161052a565b5083156105d75750506105e1565b50506001016104e3565b50806106245760405162461bcd60e51b8152602060048201526012602482015271111958da5cda5bdb881b9bdd08199bdd5b9960721b604482015260640161041e565b600085815260046020526040808220805460ff191660011790555186917f769818606969dee01508ed2282379fad73f8ae7bdbbe09f7d1d95d1c0abd779491a25050505050565b6009818154811061067b57600080fd5b6000918252602090912001546001600160a01b0316905081565b6006546001600160a01b031633146106e45760405162461bcd60e51b815260206004820152601260248201527127b7363c9039b2b93b34b1b2903630bcb2b960711b604482015260640161041e565b60008581526004602052604090205460ff16156107435760405162461bcd60e51b815260206004820152601a60248201527f4465636973696f6e20616c72656164792070726f636573736564000000000000604482015260640161041e565b6001600160a01b03841660009081526003602052604090205460ff166107a45760405162461bcd60e51b815260206004820152601660248201527514dd1c985d1959de481b9bdd081cdd5c1c1bdc9d195960521b604482015260640161041e565b6127108311156107eb5760405162461bcd60e51b815260206004820152601260248201527124b73b30b634b21030b63637b1b0ba34b7b760711b604482015260640161041e565b6001600160a01b038416600090815260016020526040812090805b82548110156108a5578783828154811061082257610822611924565b9060005260206000209060050201600401540361089d578583828154811061084c5761084c611924565b906000526020600020906005020160010181905550848484838154811061087557610875611924565b906000526020600020906005020160030191826108939291906119ee565b50600191506108a5565b600101610806565b50806108e85760405162461bcd60e51b8152602060048201526012602482015271111958da5cda5bdb881b9bdd08199bdd5b9960721b604482015260640161041e565b600087815260046020526040808220805460ff191660011790555188917f769818606969dee01508ed2282379fad73f8ae7bdbbe09f7d1d95d1c0abd779491a250505050505050565b61093961100b565b6109416111b9565b505042600755565b6001602052816000526040600020818154811061096557600080fd5b600091825260209091206005909102018054600182015460028301546003840180546001600160a01b03909416965091945092916109a290611950565b80601f01602080910402602001604051908101604052809291908181526020018280546109ce90611950565b8015610a1b5780601f106109f057610100808354040283529160200191610a1b565b820191906000526020600020905b8154815290600101906020018083116109fe57829003601f168201915b5050505050908060040154905085565b6040805160a08101825260008082526020808301829052828401829052606080840152608083018290526001600160a01b038516825260039052919091205460ff16610ab25760405162461bcd60e51b815260206004820152601660248201527514dd1c985d1959de481b9bdd081cdd5c1c1bdc9d195960521b604482015260640161041e565b6001600160a01b038216600090815260016020526040902054610b065760405162461bcd60e51b815260206004820152600c60248201526b4e6f206465636973696f6e7360a01b604482015260640161041e565b6001600160a01b038216600090815260016020819052604090912080549091610b2e91611abe565b81548110610b3e57610b3e611924565b90600052602060002090600502016040518060a00160405290816000820160009054906101000a90046001600160a01b03166001600160a01b03166001600160a01b031681526020016001820154815260200160028201548152602001600382018054610baa90611950565b80601f0160208091040260200160405190810160405280929190818152602001828054610bd690611950565b8015610c235780601f10610bf857610100808354040283529160200191610c23565b820191906000526020600020905b815481529060010190602001808311610c0657829003601f168201915b505050505081526020016004820154815250509050919050565b610c456114fd565b6001600160a01b0382166000908152600360205260408120805460ff1916831515179055805b600954811015610cbd57836001600160a01b031660098281548110610c9257610c92611924565b6000918252602090912001546001600160a01b031603610cb55760019150610cbd565b600101610c6b565b50818015610cc9575080155b15610d1e57600980546001810182556000919091527f6e1540171b6c0c960b71a7020d9f60077f6af931a8bbf590da0223dacf75c7af0180546001600160a01b0319166001600160a01b038516179055610e2e565b81158015610d295750805b15610e2e5760005b600954811015610e2c57836001600160a01b031660098281548110610d5857610d58611924565b6000918252602090912001546001600160a01b031603610e245760098054610d8290600190611abe565b81548110610d9257610d92611924565b600091825260209091200154600980546001600160a01b039092169183908110610dbe57610dbe611924565b9060005260206000200160006101000a8154816001600160a01b0302191690836001600160a01b031602179055506009805480610dfd57610dfd611ad7565b600082815260209020810160001990810180546001600160a01b0319169055019055610e2c565b600101610d31565b505b604080516001600160a01b038516815283151560208201527fa5b3f94fcdf1915486e319f824c9a6959276c1ca94f42ef22e99302a444046c0910160405180910390a1505050565b60006060610e10600754610e8a9190611aed565b4210610ea9575050604080516020810190915260008152600190610ebd565b505060408051602081019091526000808252905b9250929050565b610ecc6114fd565b610ed66000611557565b565b610ee06114fd565b6001600160a01b03918216600090815260056020526040902080546001600160a01b03191691909216179055565b6008818154811061067b57600080fd5b610f266114fd565b600680546001600160a01b0384166001600160a81b03199091168117600160a01b841515908102919091179092556040805191825260208201929092527fbaafbae7ec2d94050e15b1c0b96a90e3e4500ef3850a2d14a435b152257fcf19910160405180910390a15050565b610f9a6114fd565b6001600160a01b038116610fff5760405162461bcd60e51b815260206004820152602660248201527f4f776e61626c653a206e6577206f776e657220697320746865207a65726f206160448201526564647265737360d01b606482015260840161041e565b61100881611557565b50565b60005b6008548110156110085760006008828154811061102d5761102d611924565b60009182526020808320909101546001600160a01b0390811680845260059092526040909220549092501680156111af576000806000806000856001600160a01b031663feaf968c6040518163ffffffff1660e01b815260040160a060405180830381865afa1580156110a4573d6000803e3d6000fd5b505050506040513d601f19601f820116820180604052508101906110c89190611b1a565b9450945094509450945060006110dc600090565b90506000604051806080016040528087815260200183815260200182815260200142815250600260008b6001600160a01b03166001600160a01b0316815260200190815260200160002060008201518160000155602082015181600101556040820151816002015560608201518160030155905050886001600160a01b03167f6f949ad4bac60e9f8b03bc0f1091ab6c7da138d865ba48464b6e0cd7bd3c350387848460405161119f939291909283526020830191909152604082015260600190565b60405180910390a2505050505050505b505060010161100e565b60005b600954811015611008576000600982815481106111db576111db611924565b60009182526020808320909101546001600160a01b0316808352600390915260409091205490915060ff16156114f4576040516bffffffffffffffffffffffff19606083901b16602082015242603482015244605482015260009060740160408051808303601f19018152828252805160209182012060a0840183526001600160a01b038681168086526000848701818152428888019081528751808801895283815260608a0190815260808a0187905293835260018088529783208054808a01825590845296909220885160059097020180546001600160a01b03191696909416959095178355935194820194909455915160028301559151919350829160038201906112e99082611b6c565b50608091909101516004909101556001600160a01b0383166000908152600160205260409020546064101561149d5760005b6001600160a01b03841660009081526001602052604090205461134090606490611abe565b811015611429576001600160a01b03841660009081526001602081905260409091209061136e908390611aed565b8154811061137e5761137e611924565b906000526020600020906005020160016000866001600160a01b03166001600160a01b0316815260200190815260200160002082815481106113c2576113c2611924565b60009182526020909120825460059092020180546001600160a01b0319166001600160a01b03909216919091178155600180830154908201556002808301549082015560038082019061141790840182611c25565b5060049182015491015560010161131b565b506001600160a01b038316600090815260016020526040902080548061145157611451611ad7565b60008281526020812060056000199093019283020180546001600160a01b031916815560018101829055600281018290559061149060038301826115a7565b6004820160009055505090555b81836001600160a01b03167fab3f216168023dd5ec51ba596874f275793da2a00d02be1042a5153afc698d8760006040516114e991815260406020820181905260009082015260600190565b60405180910390a350505b506001016111bc565b6000546001600160a01b03163314610ed65760405162461bcd60e51b815260206004820181905260248201527f4f776e61626c653a2063616c6c6572206973206e6f7420746865206f776e6572604482015260640161041e565b600080546001600160a01b038381166001600160a01b0319831681178455604051919092169283917f8be0079c531659141344cd1fd0a4f28419497f9722a3daafe3b4186f6b6457e09190a35050565b5080546115b390611950565b6000825580601f106115c3575050565b601f01602090049060005260206000209081019061100891905b808211156115f157600081556001016115dd565b5090565b60008083601f84011261160757600080fd5b50813567ffffffffffffffff81111561161f57600080fd5b602083019150836020828501011115610ebd57600080fd5b6000806000806060858703121561164d57600080fd5b8435935060208501359250604085013567ffffffffffffffff81111561167257600080fd5b61167e878288016115f5565b95989497509550505050565b60006020828403121561169c57600080fd5b5035919050565b80356001600160a01b03811681146116ba57600080fd5b919050565b6000806000806000608086880312156116d757600080fd5b853594506116e7602087016116a3565b935060408601359250606086013567ffffffffffffffff81111561170a57600080fd5b611716888289016115f5565b969995985093965092949392505050565b6000806020838503121561173a57600080fd5b823567ffffffffffffffff81111561175157600080fd5b61175d858286016115f5565b90969095509350505050565b6000806040838503121561177c57600080fd5b611785836116a3565b946020939093013593505050565b6000815180845260005b818110156117b95760208185018101518683018201520161179d565b506000602082860101526020601f19601f83011685010191505092915050565b60018060a01b038616815284602082015283604082015260a06060820152600061180660a0830185611793565b90508260808301529695505050505050565b60006020828403121561182a57600080fd5b611833826116a3565b9392505050565b6020815260018060a01b03825116602082015260208201516040820152604082015160608201526000606083015160a0608084015261187c60c0840182611793565b9050608084015160a08401528091505092915050565b600080604083850312156118a557600080fd5b6118ae836116a3565b9150602083013580151581146118c357600080fd5b809150509250929050565b82151581526040602082015260006118e96040830184611793565b949350505050565b6000806040838503121561190457600080fd5b61190d836116a3565b915061191b602084016116a3565b90509250929050565b634e487b7160e01b600052603260045260246000fd5b634e487b7160e01b600052604160045260246000fd5b600181811c9082168061196457607f821691505b60208210810361198457634e487b7160e01b600052602260045260246000fd5b50919050565b601f8211156119d457806000526020600020601f840160051c810160208510156119b15750805b601f840160051c820191505b818110156119d157600081556001016119bd565b50505b505050565b600019600383901b1c191660019190911b1790565b67ffffffffffffffff831115611a0657611a0661193a565b611a1a83611a148354611950565b8361198a565b6000601f841160018114611a485760008515611a365750838201355b611a4086826119d9565b8455506119d1565b600083815260209020601f19861690835b82811015611a795786850135825560209485019460019092019101611a59565b5086821015611a965760001960f88860031b161c19848701351681555b505060018560011b0183555050505050565b634e487b7160e01b600052601160045260246000fd5b81810381811115611ad157611ad1611aa8565b92915050565b634e487b7160e01b600052603160045260246000fd5b80820180821115611ad157611ad1611aa8565b805169ffffffffffffffffffff811681146116ba57600080fd5b600080600080600060a08688031215611b3257600080fd5b611b3b86611b00565b60208701516040880151606089015192975090955093509150611b6060808701611b00565b90509295509295909350565b815167ffffffffffffffff811115611b8657611b8661193a565b611b9a81611b948454611950565b8461198a565b6020601f821160018114611bc85760008315611bb65750848201515b611bc084826119d9565b8555506119d1565b600084815260208120601f198516915b82811015611bf85787850151825560209485019460019092019101611bd8565b5084821015611c165786840151600019600387901b60f8161c191681555b50505050600190811b01905550565b818103611c30575050565b611c3a8254611950565b67ffffffffffffffff811115611c5257611c5261193a565b611c6081611b948454611950565b6000601f821160018114611c855760008315611bb6575084820154611bc084826119d9565b600085815260209020601f19841690600086815260209020845b83811015611cbf5782860154825560019586019590910190602001611c9f565b5085831015611cdd5781850154600019600388901b60f8161c191681555b5050505050600190811b0190555056fea264697066735822122071986f321dea028b55735b14a1e521610e451145ea6b550ccaf59f9c64fa5f7b64736f6c634300081b0033",
  "linkReferences": {},
  "deployedLinkReferences": {}
}