{
  "_format": "hh-sol-artifact-1",
  "contractName": "VaultManager",
  "sourceName": "contracts/VaultManager.sol",
  "abi": [
    {
      "inputs": [],
      "stateMutability": "nonpayable",
      "type": "constructor"
    },
    {
      "anonymous": false,
      "inputs": [
        {
          "indexed": true,
          "internalType": "address",
          "name": "user",
          "type": "address"
        },
        {
          "indexed": true,
          "internalType": "address",
          "name": "vaultId",
          "type": "address"
        },
        {
          "indexed": false,
          "internalType": "uint256",
          "name": "amount",
          "type": "uint256"
        },
        {
          "indexed": false,
          "internalType": "uint256",
          "name": "shares",
          "type": "uint256"
        }
      ],
      "name": "Deposit",
      "type": "event"
    },
    {
      "anonymous": false,
      "inputs": [
        {
          "indexed": true,
          "internalType": "address",
          "name": "user",
          "type": "address"
        },
        {
          "indexed": true,
          "internalType": "address",
          "name": "vaultId",
          "type": "address"
        },
        {
          "indexed": false,
          "internalType": "uint256",
          "name": "shares",
          "type": "uint256"
        },
        {
          "indexed": false,
          "internalType": "uint256",
          "name": "amount",
          "type": "uint256"
        }
      ],
      "name": "EmergencyWithdraw",
      "type": "event"
    },
    {
      "anonymous": false,
      "inputs": [
        {
          "indexed": true,
          "internalType": "address",
          "name": "previousOwner",
          "type": "address"
        },
        {
          "indexed": true,
          "internalType": "address",
          "name": "newOwner",
          "type": "address"
        }
      ],
      "name": "OwnershipTransferred",
      "type": "event"
    },
    {
      "anonymous": false,
      "inputs": [
        {
          "indexed": true,
          "internalType": "address",
          "name": "vaultId",
          "type": "address"
        },
        {
          "indexed": false,
          "internalType": "uint256",
          "name": "newAllocation",
          "type": "uint256"
        }
      ],
      "name": "StrategyRebalanced",
      "type": "event"
    },
    {
      "anonymous": false,
      "inputs": [
        {
          "indexed": true,
          "internalType": "address",
          "name": "vaultId",
          "type": "address"
        },
        {
          "indexed": true,
          "internalType": "address",
          "name": "strategy",
          "type": "address"
        },
        {
          "indexed": false,
          "internalType": "address",
          "name": "token",
          "type": "address"
        }
      ],
      "name": "VaultCreated",
      "type": "event"
    },
    {
      "anonymous": false,
      "inputs": [
        {
          "indexed": true,
          "internalType": "address",
          "name": "vaultId",
          "type": "address"
        },
        {
          "indexed": false,
          "internalType": "bool",
          "name": "isActive",
          "type": "bool"
        }
      ],
      "name": "VaultStatusChanged",
      "type": "event"
    },
    {
      "anonymous": false,
      "inputs": [
        {
          "indexed": true,
          "internalType": "address",
          "name": "user",
          "type": "address"
        },
        {
          "indexed": true,
          "internalType": "address",
          "name": "vaultId",
          "type": "address"
        },
        {
          "indexed": false,
          "internalType": "uint256",
          "name": "shares",
          "type": "uint256"
        },
        {
          "indexed": false,
          "internalType": "uint256",
          "name": "amount",
          "type": "uint256"
        }
      ],
      "name": "Withdraw",
      "type": "event"
    },
    {
      "inputs": [],
      "name": "MAX_BPS",
      "outputs": [
        {
          "internalType": "uint256",
          "name": "",
          "type": "uint256"
        }
      ],
      "stateMutability": "view",
      "type": "function"
    },
    {
      "inputs": [],
      "name": "MIN_DEPOSIT",
      "outputs": [
        {
          "internalType": "uint256",
          "name": "",
          "type": "uint256"
        }
      ],
      "stateMutability": "view",
      "type": "function"
    },
    {
      "inputs": [],
      "name": "REBALANCE_THRESHOLD",
      "outputs": [
        {
          "internalType": "uint256",
          "name": "",
          "type": "uint256"
        }
      ],
      "stateMutability": "view",
      "type": "function"
    },
    {
      "inputs": [
        {
          "internalType": "uint256",
          "name": "",
          "type": "uint256"
        }
      ],
      "name": "activeVaults",
      "outputs": [
        {
          "internalType": "address",
          "name": "",
          "type": "address"
        }
      ],
      "stateMutability": "view",
      "type": "function"
    },
    {
      "inputs": [
        {
          "internalType": "bytes",
          "name": "",
          "type": "bytes"
        }
      ],
      "name": "checkUpkeep",
      "outputs": [
        {
          "internalType": "bool",
          "name": "upkeepNeeded",
          "type": "bool"
        },
        {
          "internalType": "bytes",
          "name": "performData",
          "type": "bytes"
        }
      ],
      "stateMutability": "view",
      "type": "function"
    },
    {
      "inputs": [
        {
          "internalType": "address",
          "name": "strategy",
          "type": "address"
        },
        {
          "internalType": "address",
          "name": "token",
          "type": "address"
        }
      ],
      "name": "createVault",
      "outputs": [],
      "stateMutability": "nonpayable",
      "type": "function"
    },
    {
      "inputs": [
        {
          "internalType": "address",
          "name": "vaultId",
          "type": "address"
        },
        {
          "internalType": "uint256",
          "name": "amount",
          "type": "uint256"
        }
      ],
      "name": "deposit",
      "outputs": [],
      "stateMutability": "nonpayable",
      "type": "function"
    },
    {
      "inputs": [],
      "name": "owner",
      "outputs": [
        {
          "internalType": "address",
          "name": "",
          "type": "address"
        }
      ],
      "stateMutability": "view",
      "type": "function"
    },
    {
      "inputs": [
        {
          "internalType": "bytes",
          "name": "performData",
          "type": "bytes"
        }
      ],
      "name": "performUpkeep",
      "outputs": [],
      "stateMutability": "nonpayable",
      "type": "function"
    },
    {
      "inputs": [],
      "name": "renounceOwnership",
      "outputs": [],
      "stateMutability": "nonpayable",
      "type": "function"
    },
    {
      "inputs": [
        {
          "internalType": "address",
          "name": "vaultId",
          "type": "address"
        },
        {
          "internalType": "bool",
          "name": "isActive",
          "type": "bool"
        }
      ],
      "name": "setVaultStatus",
      "outputs": [],
      "stateMutability": "nonpayable",
      "type": "function"
    },
    {
      "inputs": [
        {
          "internalType": "address",
          "name": "",
          "type": "address"
        }
      ],
      "name": "supportedTokens",
      "outputs": [
        {
          "internalType": "bool",
          "name": "",
          "type": "bool"
        }
      ],
      "stateMutability": "view",
      "type": "function"
    },
    {
      "inputs": [
        {
          "internalType": "address",
          "name": "newOwner",
          "type": "address"
        }
      ],
      "name": "transferOwnership",
      "outputs": [],
      "stateMutability": "nonpayable",
      "type": "function"
    },
    {
      "inputs": [
        {
          "internalType": "address",
          "name": "",
          "type": "address"
        },
        {
          "internalType": "address",
          "name": "",
          "type": "address"
        }
      ],
      "name": "userInfo",
      "outputs": [
        {
          "internalType": "uint256",
          "name": "shares",
          "type": "uint256"
        },
        {
          "internalType": "uint256",
          "name": "lastDeposit",
          "type": "uint256"
        }
      ],
      "stateMutability": "view",
      "type": "function"
    },
    {
      "inputs": [
        {
          "internalType": "address",
          "name": "",
          "type": "address"
        }
      ],
      "name": "vaults",
      "outputs": [
        {
          "internalType": "address",
          "name": "strategy",
          "type": "address"
        },
        {
          "internalType": "address",
          "name": "token",
          "type": "address"
        },
        {
          "internalType": "uint256",
          "name": "totalShares",
          "type": "uint256"
        },
        {
          "internalType": "uint256",
          "name": "totalAssets",
          "type": "uint256"
        },
        {
          "internalType": "bool",
          "name": "isActive",
          "type": "bool"
        }
      ],
      "stateMutability": "view",
      "type": "function"
    },
    {
      "inputs": [
        {
          "internalType": "address",
          "name": "vaultId",
          "type": "address"
        },
        {
          "internalType": "uint256",
          "name": "shares",
          "type": "uint256"
        }
      ],
      "name": "withdraw",
      "outputs": [],
      "stateMutability": "nonpayable",
      "type": "function"
    }
  ],
  "bytecode": "0x6080604052348015600f57600080fd5b506001600055601c336020565b6072565b600180546001600160a01b038381166001600160a01b0319831681179093556040519116919082907f8be0079c531659141344cd1fd0a4f28419497f9722a3daafe3b4186f6b6457e090600090a35050565b611966806100816000396000f3fe608060405234801561001057600080fd5b50600436106101005760003560e01c80639582224211610097578063e1e158a511610066578063e1e158a5146102cc578063f2fde38b146102d4578063f3fef3a3146102e7578063fd967f47146102fa57600080fd5b8063958222421461020d578063a622ee7c14610220578063c85b967d146102a2578063cc92d31c146102b957600080fd5b806368c4ac26116100d357806368c4ac261461018c5780636e04ff0d146101bf578063715018a6146101e05780638da5cb5b146101e857600080fd5b80630f208beb146101055780634585e33b1461015157806347e7ef241461016657806360d712fc14610179575b600080fd5b6101376101133660046114a3565b60036020908152600092835260408084209091529082529020805460019091015482565b604080519283526020830191909152015b60405180910390f35b61016461015f3660046114dc565b610303565b005b610164610174366004611550565b610473565b61016461018736600461158a565b610701565b6101af61019a3660046115b8565b60046020526000908152604090205460ff1681565b6040519015158152602001610148565b6101d26101cd3660046114dc565b61076b565b604051610148929190611625565b610164610922565b6001546001600160a01b03165b6040516001600160a01b039091168152602001610148565b6101f561021b366004611640565b610936565b61026d61022e3660046115b8565b6002602081905260009182526040909120805460018201549282015460038301546004909301546001600160a01b039283169490921692909160ff1685565b604080516001600160a01b0396871681529590941660208601529284019190915260608301521515608082015260a001610148565b6102ab6101f481565b604051908152602001610148565b6101646102c73660046114a3565b610960565b6102ab606481565b6101646102e23660046115b8565b610b1f565b6101646102f5366004611550565b610b98565b6102ab61271081565b6000610311828401846115b8565b6001600160a01b03811660009081526002602052604090206004015490915060ff166103585760405162461bcd60e51b815260040161034f90611659565b60405180910390fd5b6001600160a01b03808216600090815260026020526040808220548151631f5f0a8760e21b81529151931692637d7c2a1c9260048084019391929182900301818387803b1580156103a857600080fd5b505af11580156103bc573d6000803e3d6000fd5b5050506001600160a01b0380831660008181526002602090815260409182902054825163c1a8240f60e01b815292519395507f73a07a4aea06f389c4432891c608ee18b1b339c03a8a90d3a78866deb783df6394169263c1a8240f9260048082019392918290030181865afa158015610439573d6000803e3d6000fd5b505050506040513d601f19601f8201168201806040525081019061045d9190611683565b60405190815260200160405180910390a2505050565b61047b610dde565b6001600160a01b0382166000908152600260205260409020600481015460ff166104b75760405162461bcd60e51b815260040161034f90611659565b60648210156104fb5760405162461bcd60e51b815260206004820152601060248201526f105b5bdd5b9d081d1bdbc81cdb585b1b60821b604482015260640161034f565b60018101546001600160a01b031660009081526004602052604090205460ff1661055d5760405162461bcd60e51b8152602060048201526013602482015272151bdad95b881b9bdd081cdd5c1c1bdc9d1959606a1b604482015260640161034f565b60018101546001600160a01b031661057781333086610e37565b600082600201546000146105a1576002830154600384015461059c9186916000610ea8565b6105a3565b835b9050808360020160008282546105b991906116b2565b92505081905550838360030160008282546105d491906116b2565b90915550506001600160a01b03851660009081526003602090815260408083203384529091528120805483929061060c9084906116b2565b90915550506001600160a01b038086166000908152600360209081526040808320338452909152902042600190910155835461064d91848116911686610f07565b825460405163b6b55f2560e01b8152600481018690526001600160a01b039091169063b6b55f2590602401600060405180830381600087803b15801561069257600080fd5b505af11580156106a6573d6000803e3d6000fd5b505060408051878152602081018590526001600160a01b03891693503392507fdcbc1c05240f31ff3ad067ef1ee35ce4997762752e3a095284754544f4c709d7910160405180910390a35050506106fd6001600055565b5050565b610709610fb4565b6001600160a01b038216600081815260026020908152604091829020600401805460ff191685151590811790915591519182527f32a7de7321c9403d8687817e59bda821c4153c1ba40a38e43d5405070cdfb384910160405180910390a25050565b6000606060005b60055481101561090657600060058281548110610791576107916116c5565b60009182526020808320909101546001600160a01b03168083526002909152604090912060048101549192509060ff16156108fc5780546040805163c1a8240f60e01b815290516000926001600160a01b03169163c1a8240f9160048083019260209291908290030181865afa15801561080f573d6000803e3d6000fd5b505050506040513d601f19601f820116820180604052508101906108339190611683565b905060008260000160009054906101000a90046001600160a01b03166001600160a01b031663779ce5a46040518163ffffffff1660e01b8152600401602060405180830381865afa15801561088c573d6000803e3d6000fd5b505050506040513d601f19601f820116820180604052508101906108b09190611683565b90506101f46108bf838361100e565b11156108f957604080516001600160a01b03861660208201526001910160405160208183030381529060405296509650505050505061091b565b50505b5050600101610772565b50506040805160208101909152600080825291505b9250929050565b61092a610fb4565b6109346000611039565b565b6005818154811061094657600080fd5b6000918252602090912001546001600160a01b0316905081565b610968610fb4565b6001600160a01b0382166109b15760405162461bcd60e51b815260206004820152601060248201526f496e76616c696420737472617465677960801b604482015260640161034f565b6001600160a01b0381166109f75760405162461bcd60e51b815260206004820152600d60248201526c24b73b30b634b2103a37b5b2b760991b604482015260640161034f565b6000610a03838361108b565b6040805160a0810182526001600160a01b038681168083528682166020808501828152600086880181815260608801828152600160808a018181528c8a1680865260028089528d87209c518d54908d166001600160a01b0319918216178e5597518d8501805491909d1690891617909b559351998b0199909955905160038a015596516004988901805491151560ff199283161790558583529784528882208054909816871790975560058054968701815590527f036b6384b5eca791c62761152d0c79bb0604c104a5fb6f4eb0703f3154bb3db090940180549094168517909355935193845293945090917f897c133dfbfe1f6239e98b4ffd7e4f6c86a62350a131a7a37790419f58af02f9910160405180910390a3505050565b610b27610fb4565b6001600160a01b038116610b8c5760405162461bcd60e51b815260206004820152602660248201527f4f776e61626c653a206e6577206f776e657220697320746865207a65726f206160448201526564647265737360d01b606482015260840161034f565b610b9581611039565b50565b610ba0610dde565b6001600160a01b0382166000908152600260205260409020600481015460ff16610bdc5760405162461bcd60e51b815260040161034f90611659565b6001600160a01b0383166000908152600360209081526040808320338452909152902054821115610c455760405162461bcd60e51b8152602060048201526013602482015272496e73756666696369656e742073686172657360681b604482015260640161034f565b60038101546002820154600091610c5f9185919084610ea8565b905060008111610caa5760405162461bcd60e51b815260206004820152601660248201527516995c9bc81dda5d1a191c985dd85b08185b5bdd5b9d60521b604482015260640161034f565b82826002016000828254610cbe91906116db565b9250508190555080826003016000828254610cd991906116db565b90915550506001600160a01b038416600090815260036020908152604080832033845290915281208054859290610d119084906116db565b90915550508154604051632e1a7d4d60e01b8152600481018390526001600160a01b0390911690632e1a7d4d90602401600060405180830381600087803b158015610d5b57600080fd5b505af1158015610d6f573d6000803e3d6000fd5b5050506001830154610d8c91506001600160a01b03163383611164565b60408051848152602081018390526001600160a01b0386169133917ff341246adaac6f497bc2a656f546ab9e182111d630394f0c57c710a59a2cb567910160405180910390a350506106fd6001600055565b600260005403610e305760405162461bcd60e51b815260206004820152601f60248201527f5265656e7472616e637947756172643a207265656e7472616e742063616c6c00604482015260640161034f565b6002600055565b6040516001600160a01b0380851660248301528316604482015260648101829052610ea29085906323b872dd60e01b906084015b60408051601f198184030181529190526020810180516001600160e01b03166001600160e01b031990931692909217909152611199565b50505050565b600080610eb686868661126e565b90506001836002811115610ecc57610ecc6116ee565b148015610ee9575060008480610ee457610ee4611704565b868809115b15610efc57610ef96001826116b2565b90505b90505b949350505050565b604051636eb1769f60e11b81523060048201526001600160a01b0383811660248301526000919085169063dd62ed3e90604401602060405180830381865afa158015610f57573d6000803e3d6000fd5b505050506040513d601f19601f82011682018060405250810190610f7b9190611683565b9050610ea28463095ea7b360e01b85610f9486866116b2565b6040516001600160a01b0390921660248301526044820152606401610e6b565b6001546001600160a01b031633146109345760405162461bcd60e51b815260206004820181905260248201527f4f776e61626c653a2063616c6c6572206973206e6f7420746865206f776e6572604482015260640161034f565b60008183116110265761102183836116db565b611030565b61103082846116db565b90505b92915050565b600180546001600160a01b038381166001600160a01b0319831681179093556040519116919082907f8be0079c531659141344cd1fd0a4f28419497f9722a3daafe3b4186f6b6457e090600090a35050565b60008060ff60f81b3085856040516020016110bc9291906001600160a01b0392831681529116602082015260400190565b60405160208183030381529060405280519060200120604051806020016110e290611481565b6020820181038252601f19601f820116604052508051906020012060405160200161114494939291906001600160f81b031994909416845260609290921b6bffffffffffffffffffffffff191660018401526015830152603582015260550190565b60408051808303601f190181529190528051602090910120949350505050565b6040516001600160a01b03831660248201526044810182905261119490849063a9059cbb60e01b90606401610e6b565b505050565b60006111ee826040518060400160405280602081526020017f5361666545524332303a206c6f772d6c6576656c2063616c6c206661696c6564815250856001600160a01b031661135e9092919063ffffffff16565b905080516000148061120f57508080602001905181019061120f919061171a565b6111945760405162461bcd60e51b815260206004820152602a60248201527f5361666545524332303a204552433230206f7065726174696f6e20646964206e6044820152691bdd081cdd58d8d9595960b21b606482015260840161034f565b60008080600019858709858702925082811083820303915050806000036112a85783828161129e5761129e611704565b0492505050611357565b8084116112ef5760405162461bcd60e51b81526020600482015260156024820152744d6174683a206d756c446976206f766572666c6f7760581b604482015260640161034f565b600084868809851960019081018716968790049682860381900495909211909303600082900391909104909201919091029190911760038402600290811880860282030280860282030280860282030280860282030280860282030280860290910302029150505b9392505050565b6060610eff848460008585600080866001600160a01b031685876040516113859190611737565b60006040518083038185875af1925050503d80600081146113c2576040519150601f19603f3d011682016040523d82523d6000602084013e6113c7565b606091505b50915091506113d8878383876113e3565b979650505050505050565b6060831561145257825160000361144b576001600160a01b0385163b61144b5760405162461bcd60e51b815260206004820152601d60248201527f416464726573733a2063616c6c20746f206e6f6e2d636f6e7472616374000000604482015260640161034f565b5081610eff565b610eff83838151156114675781518083602001fd5b8060405162461bcd60e51b815260040161034f9190611753565b6101ca8061176783390190565b6001600160a01b0381168114610b9557600080fd5b600080604083850312156114b657600080fd5b82356114c18161148e565b915060208301356114d18161148e565b809150509250929050565b600080602083850312156114ef57600080fd5b823567ffffffffffffffff81111561150657600080fd5b8301601f8101851361151757600080fd5b803567ffffffffffffffff81111561152e57600080fd5b85602082840101111561154057600080fd5b6020919091019590945092505050565b6000806040838503121561156357600080fd5b823561156e8161148e565b946020939093013593505050565b8015158114610b9557600080fd5b6000806040838503121561159d57600080fd5b82356115a88161148e565b915060208301356114d18161157c565b6000602082840312156115ca57600080fd5b81356113578161148e565b60005b838110156115f05781810151838201526020016115d8565b50506000910152565b600081518084526116118160208601602086016115d5565b601f01601f19169290920160200192915050565b8215158152604060208201526000610eff60408301846115f9565b60006020828403121561165257600080fd5b5035919050565b60208082526010908201526f5661756c74206e6f742061637469766560801b604082015260600190565b60006020828403121561169557600080fd5b5051919050565b634e487b7160e01b600052601160045260246000fd5b808201808211156110335761103361169c565b634e487b7160e01b600052603260045260246000fd5b818103818111156110335761103361169c565b634e487b7160e01b600052602160045260246000fd5b634e487b7160e01b600052601260045260246000fd5b60006020828403121561172c57600080fd5b81516113578161157c565b600082516117498184602087016115d5565b9190910192915050565b60208152600061103060208301846115f956fe60e060405234801561001057600080fd5b506040516101ca3803806101ca83398101604081905261002f91610066565b336080526001600160a01b0391821660a0521660c052610099565b80516001600160a01b038116811461006157600080fd5b919050565b6000806040838503121561007957600080fd5b6100828361004a565b91506100906020840161004a565b90509250929050565b60805160a05160c0516101056100c5600039600060ad01526000608701526000604501526101056000f3fe6080604052348015600f57600080fd5b5060043610603c5760003560e01c8063481c6a75146041578063a8c62e76146083578063fc0c546a1460a9575b600080fd5b60677f000000000000000000000000000000000000000000000000000000000000000081565b6040516001600160a01b03909116815260200160405180910390f35b60677f000000000000000000000000000000000000000000000000000000000000000081565b60677f00000000000000000000000000000000000000000000000000000000000000008156fea2646970667358221220c785e4b427f1aec8e5e01a6503e76fa1212cc17e1df1a642d23b90c32aab29ac64736f6c634300081b0033a264697066735822122099bb20d07108bb4f43499e1244b4691e8ef582b9994c2b5b9007ba2aa4427e0b64736f6c634300081b0033",
  "linkReferences": {},
  "deployedLinkReferences": {}
}