{
  "_format": "hh-sol-artifact-1",
  "contractName": "AssetFactory",
  "sourceName": "contracts/tokenization/AssetFactory.sol",
  "abi": [
    {
      "anonymous": false,
      "inputs": [
        {
          "indexed": true,
          "internalType": "address",
          "name": "assetAddress",
          "type": "address"
        },
        {
          "indexed": true,
          "internalType": "address",
          "name": "creator",
          "type": "address"
        },
        {
          "indexed": false,
          "internalType": "enum AssetFactory.TokenType",
          "name": "tokenType",
          "type": "uint8"
        },
        {
          "indexed": false,
          "internalType": "string",
          "name": "name",
          "type": "string"
        },
        {
          "indexed": false,
          "internalType": "string",
          "name": "symbol",
          "type": "string"
        },
        {
          "indexed": false,
          "internalType": "uint256",
          "name": "timestamp",
          "type": "uint256"
        }
      ],
      "name": "AssetCreated",
      "type": "event"
    },
    {
      "anonymous": false,
      "inputs": [
        {
          "indexed": false,
          "internalType": "uint256",
          "name": "mintingFee",
          "type": "uint256"
        },
        {
          "indexed": false,
          "internalType": "address",
          "name": "feeRecipient",
          "type": "address"
        }
      ],
      "name": "FeesUpdated",
      "type": "event"
    },
    {
      "anonymous": false,
      "inputs": [
        {
          "indexed": false,
          "internalType": "uint8",
          "name": "version",
          "type": "uint8"
        }
      ],
      "name": "Initialized",
      "type": "event"
    },
    {
      "anonymous": false,
      "inputs": [
        {
          "indexed": true,
          "internalType": "address",
          "name": "previousOwner",
          "type": "address"
        },
        {
          "indexed": true,
          "internalType": "address",
          "name": "newOwner",
          "type": "address"
        }
      ],
      "name": "OwnershipTransferred",
      "type": "event"
    },
    {
      "anonymous": false,
      "inputs": [
        {
          "indexed": false,
          "internalType": "enum AssetFactory.TokenType",
          "name": "tokenType",
          "type": "uint8"
        },
        {
          "indexed": false,
          "internalType": "address",
          "name": "newImplementation",
          "type": "address"
        }
      ],
      "name": "TemplateUpdated",
      "type": "event"
    },
    {
      "inputs": [
        {
          "internalType": "uint256",
          "name": "",
          "type": "uint256"
        }
      ],
      "name": "allAssets",
      "outputs": [
        {
          "internalType": "address",
          "name": "",
          "type": "address"
        }
      ],
      "stateMutability": "view",
      "type": "function"
    },
    {
      "inputs": [
        {
          "internalType": "address",
          "name": "",
          "type": "address"
        }
      ],
      "name": "assetDetails",
      "outputs": [
        {
          "internalType": "address",
          "name": "assetAddress",
          "type": "address"
        },
        {
          "internalType": "address",
          "name": "creator",
          "type": "address"
        },
        {
          "internalType": "enum AssetFactory.TokenType",
          "name": "tokenType",
          "type": "uint8"
        },
        {
          "internalType": "string",
          "name": "name",
          "type": "string"
        },
        {
          "internalType": "string",
          "name": "symbol",
          "type": "string"
        },
        {
          "internalType": "uint256",
          "name": "createdAt",
          "type": "uint256"
        }
      ],
      "stateMutability": "view",
      "type": "function"
    },
    {
      "inputs": [
        {
          "internalType": "string",
          "name": "baseURI",
          "type": "string"
        }
      ],
      "name": "createERC1155HybridAsset",
      "outputs": [
        {
          "internalType": "address",
          "name": "",
          "type": "address"
        }
      ],
      "stateMutability": "nonpayable",
      "type": "function"
    },
    {
      "inputs": [
        {
          "internalType": "string",
          "name": "name",
          "type": "string"
        },
        {
          "internalType": "string",
          "name": "symbol",
          "type": "string"
        },
        {
          "internalType": "address",
          "name": "underlying",
          "type": "address"
        },
        {
          "internalType": "uint256",
          "name": "depositFeeBasisPoints",
          "type": "uint256"
        },
        {
          "internalType": "uint256",
          "name": "withdrawalFeeBasisPoints",
          "type": "uint256"
        },
        {
          "internalType": "uint256",
          "name": "performanceFeeBasisPoints",
          "type": "uint256"
        }
      ],
      "name": "createERC20VaultToken",
      "outputs": [
        {
          "internalType": "address",
          "name": "",
          "type": "address"
        }
      ],
      "stateMutability": "nonpayable",
      "type": "function"
    },
    {
      "inputs": [
        {
          "internalType": "string",
          "name": "name",
          "type": "string"
        },
        {
          "internalType": "string",
          "name": "symbol",
          "type": "string"
        },
        {
          "internalType": "string",
          "name": "baseURI",
          "type": "string"
        }
      ],
      "name": "createERC721CollateralNFT",
      "outputs": [
        {
          "internalType": "address",
          "name": "",
          "type": "address"
        }
      ],
      "stateMutability": "nonpayable",
      "type": "function"
    },
    {
      "inputs": [
        {
          "internalType": "address",
          "name": "",
          "type": "address"
        },
        {
          "internalType": "uint256",
          "name": "",
          "type": "uint256"
        }
      ],
      "name": "creatorAssets",
      "outputs": [
        {
          "internalType": "address",
          "name": "",
          "type": "address"
        }
      ],
      "stateMutability": "view",
      "type": "function"
    },
    {
      "inputs": [],
      "name": "erc1155HybridAssetImpl",
      "outputs": [
        {
          "internalType": "address",
          "name": "",
          "type": "address"
        }
      ],
      "stateMutability": "view",
      "type": "function"
    },
    {
      "inputs": [],
      "name": "erc20VaultTokenImpl",
      "outputs": [
        {
          "internalType": "address",
          "name": "",
          "type": "address"
        }
      ],
      "stateMutability": "view",
      "type": "function"
    },
    {
      "inputs": [],
      "name": "erc721CollateralNFTImpl",
      "outputs": [
        {
          "internalType": "address",
          "name": "",
          "type": "address"
        }
      ],
      "stateMutability": "view",
      "type": "function"
    },
    {
      "inputs": [],
      "name": "feeRecipient",
      "outputs": [
        {
          "internalType": "address",
          "name": "",
          "type": "address"
        }
      ],
      "stateMutability": "view",
      "type": "function"
    },
    {
      "inputs": [],
      "name": "getAssetCount",
      "outputs": [
        {
          "internalType": "uint256",
          "name": "",
          "type": "uint256"
        }
      ],
      "stateMutability": "view",
      "type": "function"
    },
    {
      "inputs": [
        {
          "internalType": "uint256",
          "name": "cursor",
          "type": "uint256"
        },
        {
          "internalType": "uint256",
          "name": "limit",
          "type": "uint256"
        }
      ],
      "name": "getAssets",
      "outputs": [
        {
          "internalType": "address[]",
          "name": "assets",
          "type": "address[]"
        },
        {
          "internalType": "uint256",
          "name": "nextCursor",
          "type": "uint256"
        }
      ],
      "stateMutability": "view",
      "type": "function"
    },
    {
      "inputs": [
        {
          "internalType": "address",
          "name": "creator",
          "type": "address"
        }
      ],
      "name": "getAssetsByCreator",
      "outputs": [
        {
          "internalType": "address[]",
          "name": "",
          "type": "address[]"
        }
      ],
      "stateMutability": "view",
      "type": "function"
    },
    {
      "inputs": [
        {
          "internalType": "address",
          "name": "_erc20VaultTokenImpl",
          "type": "address"
        },
        {
          "internalType": "address",
          "name": "_erc721CollateralNFTImpl",
          "type": "address"
        },
        {
          "internalType": "address",
          "name": "_erc1155HybridAssetImpl",
          "type": "address"
        },
        {
          "internalType": "address",
          "name": "_owner",
          "type": "address"
        }
      ],
      "name": "initialize",
      "outputs": [],
      "stateMutability": "nonpayable",
      "type": "function"
    },
    {
      "inputs": [],
      "name": "mintingFee",
      "outputs": [
        {
          "internalType": "uint256",
          "name": "",
          "type": "uint256"
        }
      ],
      "stateMutability": "view",
      "type": "function"
    },
    {
      "inputs": [],
      "name": "owner",
      "outputs": [
        {
          "internalType": "address",
          "name": "",
          "type": "address"
        }
      ],
      "stateMutability": "view",
      "type": "function"
    },
    {
      "inputs": [],
      "name": "renounceOwnership",
      "outputs": [],
      "stateMutability": "nonpayable",
      "type": "function"
    },
    {
      "inputs": [
        {
          "internalType": "address",
          "name": "newOwner",
          "type": "address"
        }
      ],
      "name": "transferOwnership",
      "outputs": [],
      "stateMutability": "nonpayable",
      "type": "function"
    },
    {
      "inputs": [
        {
          "internalType": "uint256",
          "name": "_mintingFee",
          "type": "uint256"
        },
        {
          "internalType": "address",
          "name": "_feeRecipient",
          "type": "address"
        }
      ],
      "name": "updateFees",
      "outputs": [],
      "stateMutability": "nonpayable",
      "type": "function"
    },
    {
      "inputs": [
        {
          "internalType": "enum AssetFactory.TokenType",
          "name": "tokenType",
          "type": "uint8"
        },
        {
          "internalType": "address",
          "name": "newImplementation",
          "type": "address"
        }
      ],
      "name": "updateTemplate",
      "outputs": [],
      "stateMutability": "nonpayable",
      "type": "function"
    }
  ],
  "bytecode": "0x6080604052348015600f57600080fd5b50613caf8061001f6000396000f3fe608060405234801561001057600080fd5b506004361061012c5760003560e01c806380a799b7116100ad578063ad84e60011610071578063ad84e60014610267578063d21415a31461027a578063ed5eb9581461029f578063f2fde38b146102bf578063f8c8765e146102d257600080fd5b806380a799b714610207578063864cc312146102285780638da5cb5b1461023b57806391f46f0a1461024c578063a0aead4d1461025f57600080fd5b8063578e5c22116100f4578063578e5c22146101af5780635a64ad95146101c257806360e79793146101d95780636d6b6666146101ec578063715018a6146101ff57600080fd5b80632f1bad11146101315780633bf624a91461016157806346904840146101745780634b72662a146101875780634eac78751461019c575b600080fd5b61014461013f366004611270565b6102e5565b6040516001600160a01b0390911681526020015b60405180910390f35b61014461016f36600461133f565b61031d565b609b54610144906001600160a01b031681565b61019a6101953660046113d4565b6103a5565b005b6101446101aa36600461140d565b610526565b6101446101bd3660046114a1565b6105dd565b6101cb609a5481565b604051908152602001610158565b61019a6101e73660046114ba565b610607565b609954610144906001600160a01b031681565b61019a610700565b61021a6102153660046114dd565b610714565b604051610158929190611544565b609754610144906001600160a01b031681565b6033546001600160a01b0316610144565b609854610144906001600160a01b031681565b609c546101cb565b610144610275366004611566565b61083e565b61028d6102883660046115a3565b610932565b6040516101589695949392919061163c565b6102b26102ad3660046115a3565b610a8b565b6040516101589190611699565b61019a6102cd3660046115a3565b610b01565b61019a6102e03660046116ac565b610b7a565b609e602052816000526040600020818154811061030157600080fd5b6000918252602090912001546001600160a01b03169150829050565b6000610327610e32565b6000878787604051806060016040528089815260200188815260200187815250336040516103549061124c565b610362959493929190611700565b604051809103906000f08015801561037e573d6000803e3d6000fd5b50905061038f813360008b8b610e8b565b905061039b6001606555565b9695505050505050565b6103ad611056565b6001600160a01b0381166104015760405162461bcd60e51b815260206004820152601660248201527524b73b30b634b21034b6b83632b6b2b73a30ba34b7b760511b60448201526064015b60405180910390fd5b6000826002811115610415576104156115be565b0361043a57609780546001600160a01b0319166001600160a01b0383161790556104e9565b600182600281111561044e5761044e6115be565b0361047357609880546001600160a01b0319166001600160a01b0383161790556104e9565b6002826002811115610487576104876115be565b036104ac57609980546001600160a01b0319166001600160a01b0383161790556104e9565b60405162461bcd60e51b8152602060048201526012602482015271496e76616c696420746f6b656e207479706560701b60448201526064016103f8565b7f5f1655901a00bc075bf208735948b544ad55c49a58115837daec2fa77c5d2a53828260405161051a929190611767565b60405180910390a15050565b6000610530610e32565b609854600090610548906001600160a01b03166110b0565b609b5460405163518c461360e11b815291925082916001600160a01b038084169263a3188c2692610589928b928b9233928c9260009291169060040161178d565b600060405180830381600087803b1580156105a357600080fd5b505af11580156105b7573d6000803e3d6000fd5b505050506105c9823360018989610e8b565b5090506105d66001606555565b9392505050565b609c81815481106105ed57600080fd5b6000918252602090912001546001600160a01b0316905081565b61060f611056565b6103e88211156106585760405162461bcd60e51b815260206004820152601460248201527309ad2dce8d2dcce40cccaca40e8dede40d0d2ced60631b60448201526064016103f8565b6001600160a01b0381166106a65760405162461bcd60e51b8152602060048201526015602482015274125b9d985b1a5908199959481c9958da5c1a595b9d605a1b60448201526064016103f8565b609a829055609b80546001600160a01b0319166001600160a01b0383169081179091556040805184815260208101929092527ffcf5f9272484d8203de65a0560b76f7d72db12418286025f31d5f27a7715227a910161051a565b610708611056565b6107126000611145565b565b609c5460609060009080851061073d575050604080516000808252602082019092529150610837565b6000610749858761180f565b9050818111156107565750805b60006107628783611828565b90508067ffffffffffffffff81111561077d5761077d61129a565b6040519080825280602002602001820160405280156107a6578160200160208202803683370190505b50945060005b8181101561082057609c6107c0828a61180f565b815481106107d0576107d061183b565b9060005260206000200160009054906101000a90046001600160a01b03168682815181106108005761080061183b565b6001600160a01b03909216602092830291909101909101526001016107ac565b5082821461082e5781610831565b60005b93505050505b9250929050565b6000610848610e32565b609954600090610860906001600160a01b03166110b0565b609b546040516309d3e5c560e01b815291925082916001600160a01b03808416926309d3e5c59261089e928992339260009290911690600401611851565b600060405180830381600087803b1580156108b857600080fd5b505af11580156108cc573d6000803e3d6000fd5b50505050610920823360026040518060400160405280600c81526020016b121e589c9a5908105cdcd95d60a21b8152506040518060400160405280600681526020016512165094925160d21b815250610e8b565b50905061092d6001606555565b919050565b609d602052600090815260409020805460018201546002830180546001600160a01b039384169493831693600160a01b90930460ff169291906109749061188d565b80601f01602080910402602001604051908101604052809291908181526020018280546109a09061188d565b80156109ed5780601f106109c2576101008083540402835291602001916109ed565b820191906000526020600020905b8154815290600101906020018083116109d057829003601f168201915b505050505090806003018054610a029061188d565b80601f0160208091040260200160405190810160405280929190818152602001828054610a2e9061188d565b8015610a7b5780601f10610a5057610100808354040283529160200191610a7b565b820191906000526020600020905b815481529060010190602001808311610a5e57829003601f168201915b5050505050908060040154905086565b6001600160a01b0381166000908152609e6020908152604091829020805483518184028101840190945280845260609392830182828015610af557602002820191906000526020600020905b81546001600160a01b03168152600190910190602001808311610ad7575b50505050509050919050565b610b09611056565b6001600160a01b038116610b6e5760405162461bcd60e51b815260206004820152602660248201527f4f776e61626c653a206e6577206f776e657220697320746865207a65726f206160448201526564647265737360d01b60648201526084016103f8565b610b7781611145565b50565b600054610100900460ff1615808015610b9a5750600054600160ff909116105b80610bb45750303b158015610bb4575060005460ff166001145b610c175760405162461bcd60e51b815260206004820152602e60248201527f496e697469616c697a61626c653a20636f6e747261637420697320616c72656160448201526d191e481a5b9a5d1a585b1a5e995960921b60648201526084016103f8565b6000805460ff191660011790558015610c3a576000805461ff0019166101001790555b6001600160a01b038516610c905760405162461bcd60e51b815260206004820152601c60248201527f496e76616c696420455243323020696d706c656d656e746174696f6e0000000060448201526064016103f8565b6001600160a01b038416610ce65760405162461bcd60e51b815260206004820152601d60248201527f496e76616c69642045524337323120696d706c656d656e746174696f6e00000060448201526064016103f8565b6001600160a01b038316610d3c5760405162461bcd60e51b815260206004820152601e60248201527f496e76616c6964204552433131353520696d706c656d656e746174696f6e000060448201526064016103f8565b6001600160a01b038216610d825760405162461bcd60e51b815260206004820152600d60248201526c24b73b30b634b21037bbb732b960991b60448201526064016103f8565b610d8a611197565b610d926111c6565b609780546001600160a01b038088166001600160a01b0319928316179092556098805487841690831617905560998054868416908316179055609b805492851692909116919091179055610de582611145565b8015610e2b576000805461ff0019169055604051600181527f7f26b83ff96e1f2b6a682f133852f6798a09c465da95921460cefb38474024989060200160405180910390a15b5050505050565b600260655403610e845760405162461bcd60e51b815260206004820152601f60248201527f5265656e7472616e637947756172643a207265656e7472616e742063616c6c0060448201526064016103f8565b6002606555565b60006040518060c00160405280876001600160a01b03168152602001866001600160a01b03168152602001856002811115610ec857610ec86115be565b815260208082018690526040808301869052426060909301929092526001600160a01b03808a166000908152609d8352839020845181549083166001600160a01b0319918216178255928501516001820180549190931693811684178355938501519495508594909390926001600160a81b031990911617600160a01b836002811115610f5757610f576115be565b021790555060608201516002820190610f709082611913565b5060808201516003820190610f859082611913565b5060a09190910151600490910155609c805460018181019092557faf85b9071dfafeac1409d3f1d19bafc9bc7c37974cde8df0ee6168f0086e539c0180546001600160a01b03808a166001600160a01b0319928316811790935588166000818152609e6020908152604080832080549788018155835291209094018054909216831790915591517fb891915ba60f13ab3d76fd2da7d485bdd3aa41538887f3ee04faed91b97a94269061103f9088908890889042906119d2565b60405180910390a3505050505050565b6001606555565b6033546001600160a01b031633146107125760405162461bcd60e51b815260206004820181905260248201527f4f776e61626c653a2063616c6c6572206973206e6f7420746865206f776e657260448201526064016103f8565b6000763d602d80600a3d3981f3363d3d373d3d3d363d730000008260601b60e81c176000526e5af43d82803e903d91602b57fd5bf38260781b17602052603760096000f090506001600160a01b03811661092d5760405162461bcd60e51b8152602060048201526016602482015275115490cc4c4d8dce8818dc99585d194819985a5b195960521b60448201526064016103f8565b603380546001600160a01b038381166001600160a01b0319831681179093556040519116919082907f8be0079c531659141344cd1fd0a4f28419497f9722a3daafe3b4186f6b6457e090600090a35050565b600054610100900460ff166111be5760405162461bcd60e51b81526004016103f890611a16565b6107126111f5565b600054610100900460ff166111ed5760405162461bcd60e51b81526004016103f890611a16565b610712611225565b600054610100900460ff1661121c5760405162461bcd60e51b81526004016103f890611a16565b61071233611145565b600054610100900460ff1661104f5760405162461bcd60e51b81526004016103f890611a16565b61221880611a6283390190565b80356001600160a01b038116811461092d57600080fd5b6000806040838503121561128357600080fd5b61128c83611259565b946020939093013593505050565b634e487b7160e01b600052604160045260246000fd5b600082601f8301126112c157600080fd5b813567ffffffffffffffff8111156112db576112db61129a565b604051601f8201601f19908116603f0116810167ffffffffffffffff8111828210171561130a5761130a61129a565b60405281815283820160200185101561132257600080fd5b816020850160208301376000918101602001919091529392505050565b60008060008060008060c0878903121561135857600080fd5b863567ffffffffffffffff81111561136f57600080fd5b61137b89828a016112b0565b965050602087013567ffffffffffffffff81111561139857600080fd5b6113a489828a016112b0565b9550506113b360408801611259565b959894975094956060810135955060808101359460a0909101359350915050565b600080604083850312156113e757600080fd5b8235600381106113f657600080fd5b915061140460208401611259565b90509250929050565b60008060006060848603121561142257600080fd5b833567ffffffffffffffff81111561143957600080fd5b611445868287016112b0565b935050602084013567ffffffffffffffff81111561146257600080fd5b61146e868287016112b0565b925050604084013567ffffffffffffffff81111561148b57600080fd5b611497868287016112b0565b9150509250925092565b6000602082840312156114b357600080fd5b5035919050565b600080604083850312156114cd57600080fd5b8235915061140460208401611259565b600080604083850312156114f057600080fd5b50508035926020909101359150565b600081518084526020840193506020830160005b8281101561153a5781516001600160a01b0316865260209586019590910190600101611513565b5093949350505050565b60408152600061155760408301856114ff565b90508260208301529392505050565b60006020828403121561157857600080fd5b813567ffffffffffffffff81111561158f57600080fd5b61159b848285016112b0565b949350505050565b6000602082840312156115b557600080fd5b6105d682611259565b634e487b7160e01b600052602160045260246000fd5b600381106115f257634e487b7160e01b600052602160045260246000fd5b9052565b6000815180845260005b8181101561161c57602081850181015186830182015201611600565b506000602082860101526020601f19601f83011685010191505092915050565b6001600160a01b0387811682528616602082015261165d60408201866115d4565b60c06060820152600061167360c08301866115f6565b828103608084015261168581866115f6565b9150508260a0830152979650505050505050565b6020815260006105d660208301846114ff565b600080600080608085870312156116c257600080fd5b6116cb85611259565b93506116d960208601611259565b92506116e760408601611259565b91506116f560608601611259565b905092959194509250565b60e08152600061171360e08301886115f6565b828103602084015261172581886115f6565b6001600160a01b039687166040858101919091528651606086015260208701516080860152959095015160a08401525050921660c09092019190915292915050565b6040810161177582856115d4565b6001600160a01b039290921660209190910152919050565b60c0815260006117a060c08301896115f6565b82810360208401526117b281896115f6565b6001600160a01b0388166040850152838103606085015290506117d581876115f6565b608084019590955250506001600160a01b039190911660a090910152949350505050565b634e487b7160e01b600052601160045260246000fd5b80820180821115611822576118226117f9565b92915050565b81810381811115611822576118226117f9565b634e487b7160e01b600052603260045260246000fd5b60808152600061186460808301876115f6565b6001600160a01b0395861660208401526040830194909452509216606090920191909152919050565b600181811c908216806118a157607f821691505b6020821081036118c157634e487b7160e01b600052602260045260246000fd5b50919050565b601f82111561190e57806000526020600020601f840160051c810160208510156118ee5750805b601f840160051c820191505b81811015610e2b57600081556001016118fa565b505050565b815167ffffffffffffffff81111561192d5761192d61129a565b6119418161193b845461188d565b846118c7565b6020601f821160018114611975576000831561195d5750848201515b600019600385901b1c1916600184901b178455610e2b565b600084815260208120601f198516915b828110156119a55787850151825560209485019460019092019101611985565b50848210156119c35786840151600019600387901b60f8161c191681555b50505050600190811b01905550565b6119dc81866115d4565b6080602082015260006119f260808301866115f6565b8281036040840152611a0481866115f6565b91505082606083015295945050505050565b6020808252602b908201527f496e697469616c697a61626c653a20636f6e7472616374206973206e6f74206960408201526a6e697469616c697a696e6760a81b60608201526080019056fe608060405234801561001057600080fd5b5060405161221838038061221883398101604081905261002f9161034d565b8484600361003d838261049c565b50600461004a828261049c565b50505061006361005e6101e860201b60201c565b6101ec565b60016006556001600160a01b0383166100c35760405162461bcd60e51b815260206004820152601560248201527f496e76616c69642061737365742061646472657373000000000000000000000060448201526064015b60405180910390fd5b6001600160a01b0381166101195760405162461bcd60e51b815260206004820152601560248201527f496e76616c6964206f776e65722061646472657373000000000000000000000060448201526064016100ba565b8151612710108015906101325750612710826020015111155b80156101445750612710826040015111155b6101805760405162461bcd60e51b815260206004820152600d60248201526c08ccacae640e8dede40d0d2ced609b1b60448201526064016100ba565b600780546001600160a01b038086166001600160a01b031992831617909255835160085560208401516009556040840151600a55600b80549284169290911691909117905542600c55670de0b6b3a7640000600d556101de816101ec565b505050505061055a565b3390565b600580546001600160a01b038381166001600160a01b0319831681179093556040519116919082907f8be0079c531659141344cd1fd0a4f28419497f9722a3daafe3b4186f6b6457e090600090a35050565b634e487b7160e01b600052604160045260246000fd5b604051606081016001600160401b03811182821017156102765761027661023e565b60405290565b604051601f8201601f191681016001600160401b03811182821017156102a4576102a461023e565b604052919050565b600082601f8301126102bd57600080fd5b81516001600160401b038111156102d6576102d661023e565b6102e9601f8201601f191660200161027c565b8181528460208386010111156102fe57600080fd5b60005b8281101561031d57602081860181015183830182015201610301565b506000918101602001919091529392505050565b80516001600160a01b038116811461034857600080fd5b919050565b600080600080600085870360e081121561036657600080fd5b86516001600160401b0381111561037c57600080fd5b61038889828a016102ac565b602089015190975090506001600160401b038111156103a657600080fd5b6103b289828a016102ac565b9550506103c160408801610331565b93506060605f19820112156103d557600080fd5b506103de610254565b606087015181526080870151602082015260a08701516040820152915061040760c08701610331565b90509295509295909350565b600181811c9082168061042757607f821691505b60208210810361044757634e487b7160e01b600052602260045260246000fd5b50919050565b601f82111561049757806000526020600020601f840160051c810160208510156104745750805b601f840160051c820191505b818110156104945760008155600101610480565b50505b505050565b81516001600160401b038111156104b5576104b561023e565b6104c9816104c38454610413565b8461044d565b6020601f8211600181146104fd57600083156104e55750848201515b600019600385901b1c1916600184901b178455610494565b600084815260208120601f198516915b8281101561052d578785015182556020948501946001909201910161050d565b508482101561054b5786840151600019600387901b60f8161c191681555b50505050600190811b01905550565b611caf806105696000396000f3fe608060405234801561001057600080fd5b50600436106101f05760003560e01c8063715018a61161010f578063ba087652116100a2578063e0c636a711610071578063e0c636a714610423578063ef8b30f71461042c578063f1a392da1461043f578063f2fde38b1461044857600080fd5b8063ba087652146103e1578063bc063e1a146103f4578063c6e6f592146103fd578063dd62ed3e1461041057600080fd5b8063a457c2d7116100de578063a457c2d714610395578063a9059cbb146103a8578063afa7bdf8146103bb578063b460af94146103ce57600080fd5b8063715018a6146103615780638da5cb5b1461036957806394bf804d1461037a57806395d89b411461038d57600080fd5b8063313ce56711610187578063469048401161015657806346904840146102ff5780634cdad506146103125780636e553f651461032557806370a082311461033857600080fd5b8063313ce567146102a857806338d52e0f146102b757806339509351146102e25780634641257d146102f557600080fd5b806318160ddd116101c357806318160ddd146102575780631e5eb1d01461025f5780631e8410da1461028c57806323b872dd1461029557600080fd5b806301e1d114146101f557806306fdde031461020c57806307a2d13a14610221578063095ea7b314610234575b600080fd5b600e545b6040519081526020015b60405180910390f35b61021461045b565b60405161020391906119db565b6101f961022f366004611a0e565b6104ed565b610247610242366004611a43565b610523565b6040519015158152602001610203565b6002546101f9565b600854600954600a5461027192919083565b60408051938452602084019290925290820152606001610203565b6101f9600d5481565b6102476102a3366004611a6d565b61053d565b60405160128152602001610203565b6007546102ca906001600160a01b031681565b6040516001600160a01b039091168152602001610203565b6102476102f0366004611a43565b610561565b6102fd610583565b005b600b546102ca906001600160a01b031681565b6101f9610320366004611a0e565b6106e4565b6101f9610333366004611aaa565b61070f565b6101f9610346366004611ad6565b6001600160a01b031660009081526020819052604090205490565b6102fd610849565b6005546001600160a01b03166102ca565b6101f9610388366004611aaa565b61085b565b6102146109cd565b6102476103a3366004611a43565b6109dc565b6102476103b6366004611a43565b610a57565b6102fd6103c9366004611af1565b610a65565b6101f96103dc366004611b30565b610c24565b6101f96103ef366004611b30565b610d67565b6101f961271081565b6101f961040b366004611a0e565b610e8d565b6101f961041e366004611b6c565b610eb6565b6101f9600e5481565b6101f961043a366004611a0e565b610ee1565b6101f9600c5481565b6102fd610456366004611ad6565b610f08565b60606003805461046a90611b96565b80601f016020809104026020016040519081016040528092919081815260200182805461049690611b96565b80156104e35780601f106104b8576101008083540402835291602001916104e3565b820191906000526020600020905b8154815290600101906020018083116104c657829003601f168201915b5050505050905090565b6000806104f960025490565b9050801561051a5761051561050d600e5490565b849083610f81565b61051c565b825b9392505050565b60003361053181858561106b565b60019150505b92915050565b60003361054b85828561118f565b610556858585611209565b506001949350505050565b6000336105318185856105748383610eb6565b61057e9190611be6565b61106b565b61058b6113ad565b6007546040516370a0823160e01b81523060048201526000916001600160a01b0316906370a0823190602401602060405180830381865afa1580156105d4573d6000803e3d6000fd5b505050506040513d601f19601f820116820180604052508101906105f89190611bf9565b90506000600e54821161060c576000610619565b600e546106199083611c12565b905080156106d057600061063282600860020154611406565b9050801561066457600b54600754610657916001600160a01b03918216911683611415565b6106618184611c12565b92505b600d839055600e54600090841161067c576000610689565b600e546106899085611c12565b60408051868152602081018390529081018490529091507f4ec2d4038813a7f233af1d6d09519189db3ed5bc5b823bf72f6d3144574721de9060600160405180910390a150505b5042600c55600e556106e26001600655565b565b6000806106f060025490565b9050801561051a57610515610704600e5490565b61050d906001611be6565b60006107196113ad565b600083116107615760405162461bcd60e51b815260206004820152601060248201526f043616e6e6f74206465706f73697420360841b60448201526064015b60405180910390fd5b61076a83610ee1565b90506000610777826104ed565b6107819085611c12565b60075490915061079c906001600160a01b031633308761147d565b6107a683836114b5565b83600e60008282546107b89190611be6565b909155505080156107f857600b546007546107e0916001600160a01b03918216911683611415565b80600e60008282546107f29190611c12565b90915550505b60408051858152602081018490526001600160a01b0385169133917fdcbc1c05240f31ff3ad067ef1ee35ce4997762752e3a095284754544f4c709d7910160405180910390a3506105376001600655565b610851611574565b6106e260006115ce565b60006108656113ad565b600083116108ac5760405162461bcd60e51b815260206004820152601460248201527343616e6e6f74206d696e7420302073686172657360601b6044820152606401610758565b60006108b760025490565b905080156108e3576108de6108cb600e5490565b6108d6906001611be6565b859083610f81565b6108e5565b835b915060006108f883600860000154611406565b90506109048184611be6565b60075490935061091f906001600160a01b031633308661147d565b61092984866114b5565b82600e600082825461093b9190611be6565b9091555050801561097b57600b54600754610963916001600160a01b03918216911683611415565b80600e60008282546109759190611c12565b90915550505b60408051848152602081018790526001600160a01b0386169133917fdcbc1c05240f31ff3ad067ef1ee35ce4997762752e3a095284754544f4c709d7910160405180910390a350506105376001600655565b60606004805461046a90611b96565b600033816109ea8286610eb6565b905083811015610a4a5760405162461bcd60e51b815260206004820152602560248201527f45524332303a2064656372656173656420616c6c6f77616e63652062656c6f77604482015264207a65726f60d81b6064820152608401610758565b610556828686840361106b565b600033610531818585611209565b610a6d611574565b6101f4841115610ab65760405162461bcd60e51b8152602060048201526014602482015273088cae0dee6d2e840cccaca40e8dede40d0d2ced60631b6044820152606401610758565b6101f4831115610b085760405162461bcd60e51b815260206004820152601760248201527f5769746864726177616c2066656520746f6f20686967680000000000000000006044820152606401610758565b6107d0821115610b5a5760405162461bcd60e51b815260206004820152601860248201527f506572666f726d616e63652066656520746f6f206869676800000000000000006044820152606401610758565b6001600160a01b038116610ba85760405162461bcd60e51b8152602060048201526015602482015274125b9d985b1a5908199959481c9958da5c1a595b9d605a1b6044820152606401610758565b60088490556009839055600a829055600b80546001600160a01b0319166001600160a01b038316908117909155604080518681526020810186905290810184905260608101919091527fc1e43cd0793a3a5a5075b29b899a2513496c3613510d594114924476698fc41c9060800160405180910390a150505050565b6000610c2e6113ad565b60008411610c725760405162461bcd60e51b8152602060048201526011602482015270043616e6e6f74207769746864726177203607c1b6044820152606401610758565b610c7b84610e8d565b90506000610c8e85600860010154611406565b9050336001600160a01b03841614610cab57610cab83338461118f565b610cb58383611620565b610cd684610cc38388611c12565b6007546001600160a01b03169190611415565b8015610cf957600b54600754610cf9916001600160a01b03918216911683611415565b84600e6000828254610d0b9190611c12565b909155505060408051868152602081018490526001600160a01b03808616929087169133917ffbde797d201c681b91056529119e0b02407c7bb96a4a2c75c01fc9667232c8db91015b60405180910390a45061051c6001600655565b6000610d716113ad565b60008411610dba5760405162461bcd60e51b815260206004820152601660248201527543616e6e6f742072656465656d20302073686172657360501b6044820152606401610758565b336001600160a01b03831614610dd557610dd582338661118f565b610dde846104ed565b90506000610df182600860010154611406565b9050610dfd8386611620565b610e0b84610cc38385611c12565b8015610e2e57600b54600754610e2e916001600160a01b03918216911683611415565b81600e6000828254610e409190611c12565b909155505060408051838152602081018790526001600160a01b03808616929087169133917ffbde797d201c681b91056529119e0b02407c7bb96a4a2c75c01fc9667232c8db9101610d54565b600080610e9960025490565b9050801561051a5761051581610eae600e5490565b859190610f81565b6001600160a01b03918216600090815260016020908152604080832093909416825291909152205490565b600080610eed83610e8d565b9050610efe81600860000154611406565b61051c9082611c12565b610f10611574565b6001600160a01b038116610f755760405162461bcd60e51b815260206004820152602660248201527f4f776e61626c653a206e6577206f776e657220697320746865207a65726f206160448201526564647265737360d01b6064820152608401610758565b610f7e816115ce565b50565b6000808060001985870985870292508281108382030391505080600003610fbb57838281610fb157610fb1611c25565b049250505061051c565b8084116110025760405162461bcd60e51b81526020600482015260156024820152744d6174683a206d756c446976206f766572666c6f7760581b6044820152606401610758565b60008486880960026001871981018816978890046003810283188082028403028082028403028082028403028082028403028082028403029081029092039091026000889003889004909101858311909403939093029303949094049190911702949350505050565b6001600160a01b0383166110cd5760405162461bcd60e51b8152602060048201526024808201527f45524332303a20617070726f76652066726f6d20746865207a65726f206164646044820152637265737360e01b6064820152608401610758565b6001600160a01b03821661112e5760405162461bcd60e51b815260206004820152602260248201527f45524332303a20617070726f766520746f20746865207a65726f206164647265604482015261737360f01b6064820152608401610758565b6001600160a01b0383811660008181526001602090815260408083209487168084529482529182902085905590518481527f8c5be1e5ebec7d5bd14f71427d1e84f3dd0314c0f7b2291e5b200ac8c7c3b925910160405180910390a3505050565b600061119b8484610eb6565b9050600019811461120357818110156111f65760405162461bcd60e51b815260206004820152601d60248201527f45524332303a20696e73756666696369656e7420616c6c6f77616e63650000006044820152606401610758565b611203848484840361106b565b50505050565b6001600160a01b03831661126d5760405162461bcd60e51b815260206004820152602560248201527f45524332303a207472616e736665722066726f6d20746865207a65726f206164604482015264647265737360d81b6064820152608401610758565b6001600160a01b0382166112cf5760405162461bcd60e51b815260206004820152602360248201527f45524332303a207472616e7366657220746f20746865207a65726f206164647260448201526265737360e81b6064820152608401610758565b6001600160a01b038316600090815260208190526040902054818110156113475760405162461bcd60e51b815260206004820152602660248201527f45524332303a207472616e7366657220616d6f756e7420657863656564732062604482015265616c616e636560d01b6064820152608401610758565b6001600160a01b03848116600081815260208181526040808320878703905593871680835291849020805487019055925185815290927fddf252ad1be2c89b69c2b068fc378daa952ba7f163c4a11628f55a4df523b3ef910160405180910390a3611203565b6002600654036113ff5760405162461bcd60e51b815260206004820152601f60248201527f5265656e7472616e637947756172643a207265656e7472616e742063616c6c006044820152606401610758565b6002600655565b600061051c8383612710610f81565b6040516001600160a01b03831660248201526044810182905261147890849063a9059cbb60e01b906064015b60408051601f198184030181529190526020810180516001600160e01b03166001600160e01b031990931692909217909152611752565b505050565b6040516001600160a01b03808516602483015283166044820152606481018290526112039085906323b872dd60e01b90608401611441565b6001600160a01b03821661150b5760405162461bcd60e51b815260206004820152601f60248201527f45524332303a206d696e7420746f20746865207a65726f2061646472657373006044820152606401610758565b806002600082825461151d9190611be6565b90915550506001600160a01b038216600081815260208181526040808320805486019055518481527fddf252ad1be2c89b69c2b068fc378daa952ba7f163c4a11628f55a4df523b3ef910160405180910390a35050565b6005546001600160a01b031633146106e25760405162461bcd60e51b815260206004820181905260248201527f4f776e61626c653a2063616c6c6572206973206e6f7420746865206f776e65726044820152606401610758565b600580546001600160a01b038381166001600160a01b0319831681179093556040519116919082907f8be0079c531659141344cd1fd0a4f28419497f9722a3daafe3b4186f6b6457e090600090a35050565b6001600160a01b0382166116805760405162461bcd60e51b815260206004820152602160248201527f45524332303a206275726e2066726f6d20746865207a65726f206164647265736044820152607360f81b6064820152608401610758565b6001600160a01b038216600090815260208190526040902054818110156116f45760405162461bcd60e51b815260206004820152602260248201527f45524332303a206275726e20616d6f756e7420657863656564732062616c616e604482015261636560f01b6064820152608401610758565b6001600160a01b0383166000818152602081815260408083208686039055600280548790039055518581529192917fddf252ad1be2c89b69c2b068fc378daa952ba7f163c4a11628f55a4df523b3ef910160405180910390a3505050565b60006117a7826040518060400160405280602081526020017f5361666545524332303a206c6f772d6c6576656c2063616c6c206661696c6564815250856001600160a01b03166118279092919063ffffffff16565b90508051600014806117c85750808060200190518101906117c89190611c3b565b6114785760405162461bcd60e51b815260206004820152602a60248201527f5361666545524332303a204552433230206f7065726174696f6e20646964206e6044820152691bdd081cdd58d8d9595960b21b6064820152608401610758565b6060611836848460008561183e565b949350505050565b60608247101561189f5760405162461bcd60e51b815260206004820152602660248201527f416464726573733a20696e73756666696369656e742062616c616e636520666f6044820152651c8818d85b1b60d21b6064820152608401610758565b600080866001600160a01b031685876040516118bb9190611c5d565b60006040518083038185875af1925050503d80600081146118f8576040519150601f19603f3d011682016040523d82523d6000602084013e6118fd565b606091505b509150915061190e87838387611919565b979650505050505050565b60608315611988578251600003611981576001600160a01b0385163b6119815760405162461bcd60e51b815260206004820152601d60248201527f416464726573733a2063616c6c20746f206e6f6e2d636f6e74726163740000006044820152606401610758565b5081611836565b611836838381511561199d5781518083602001fd5b8060405162461bcd60e51b815260040161075891906119db565b60005b838110156119d25781810151838201526020016119ba565b50506000910152565b60208152600082518060208401526119fa8160408501602087016119b7565b601f01601f19169190910160400192915050565b600060208284031215611a2057600080fd5b5035919050565b80356001600160a01b0381168114611a3e57600080fd5b919050565b60008060408385031215611a5657600080fd5b611a5f83611a27565b946020939093013593505050565b600080600060608486031215611a8257600080fd5b611a8b84611a27565b9250611a9960208501611a27565b929592945050506040919091013590565b60008060408385031215611abd57600080fd5b82359150611acd60208401611a27565b90509250929050565b600060208284031215611ae857600080fd5b61051c82611a27565b60008060008060808587031215611b0757600080fd5b843593506020850135925060408501359150611b2560608601611a27565b905092959194509250565b600080600060608486031215611b4557600080fd5b83359250611b5560208501611a27565b9150611b6360408501611a27565b90509250925092565b60008060408385031215611b7f57600080fd5b611b8883611a27565b9150611acd60208401611a27565b600181811c90821680611baa57607f821691505b602082108103611bca57634e487b7160e01b600052602260045260246000fd5b50919050565b634e487b7160e01b600052601160045260246000fd5b8082018082111561053757610537611bd0565b600060208284031215611c0b57600080fd5b5051919050565b8181038181111561053757610537611bd0565b634e487b7160e01b600052601260045260246000fd5b600060208284031215611c4d57600080fd5b8151801515811461051c57600080fd5b60008251611c6f8184602087016119b7565b919091019291505056fea264697066735822122027297283ccb2fbaa6b5092d4e9249ef17cff24f13c45277c23ca4c63470ac42f64736f6c634300081b0033a264697066735822122007b0705946cefd182f1fda663c6f360e90cba09ad14f345f1b7a29c89c9ef44464736f6c634300081b0033",
  "linkReferences": {},
  "deployedLinkReferences": {}
}