{
  "_format": "hh-sol-artifact-1",
  "contractName": "CrossChainRouter",
  "sourceName": "contracts/crosschain/CrossChainRouter.sol",
  "abi": [
    {
      "inputs": [
        {
          "internalType": "address",
          "name": "_router",
          "type": "address"
        },
        {
          "internalType": "address",
          "name": "_linkToken",
          "type": "address"
        }
      ],
      "stateMutability": "nonpayable",
      "type": "constructor"
    },
    {
      "inputs": [
        {
          "internalType": "uint64",
          "name": "destinationChainSelector",
          "type": "uint64"
        }
      ],
      "name": "DestinationChainNotAllowlisted",
      "type": "error"
    },
    {
      "inputs": [
        {
          "internalType": "address",
          "name": "owner",
          "type": "address"
        },
        {
          "internalType": "address",
          "name": "target",
          "type": "address"
        },
        {
          "internalType": "uint256",
          "name": "value",
          "type": "uint256"
        }
      ],
      "name": "FailedToWithdrawEth",
      "type": "error"
    },
    {
      "inputs": [],
      "name": "InvalidAmount",
      "type": "error"
    },
    {
      "inputs": [],
      "name": "InvalidReceiverAddress",
      "type": "error"
    },
    {
      "inputs": [
        {
          "internalType": "address",
          "name": "router",
          "type": "address"
        }
      ],
      "name": "InvalidRouter",
      "type": "error"
    },
    {
      "inputs": [
        {
          "internalType": "uint256",
          "name": "currentBalance",
          "type": "uint256"
        },
        {
          "internalType": "uint256",
          "name": "calculatedFees",
          "type": "uint256"
        }
      ],
      "name": "NotEnoughBalance",
      "type": "error"
    },
    {
      "inputs": [],
      "name": "NothingToWithdraw",
      "type": "error"
    },
    {
      "inputs": [
        {
          "internalType": "address",
          "name": "sender",
          "type": "address"
        }
      ],
      "name": "SenderNotAllowlisted",
      "type": "error"
    },
    {
      "inputs": [
        {
          "internalType": "uint64",
          "name": "sourceChainSelector",
          "type": "uint64"
        }
      ],
      "name": "SourceChainNotAllowlisted",
      "type": "error"
    },
    {
      "anonymous": false,
      "inputs": [
        {
          "indexed": false,
          "internalType": "uint64",
          "name": "chainSelector",
          "type": "uint64"
        },
        {
          "indexed": false,
          "internalType": "bool",
          "name": "supported",
          "type": "bool"
        }
      ],
      "name": "ChainSupported",
      "type": "event"
    },
    {
      "anonymous": false,
      "inputs": [
        {
          "indexed": true,
          "internalType": "address",
          "name": "token",
          "type": "address"
        },
        {
          "indexed": true,
          "internalType": "address",
          "name": "to",
          "type": "address"
        },
        {
          "indexed": false,
          "internalType": "uint256",
          "name": "amount",
          "type": "uint256"
        }
      ],
      "name": "ERC20Withdrawn",
      "type": "event"
    },
    {
      "anonymous": false,
      "inputs": [
        {
          "indexed": true,
          "internalType": "address",
          "name": "to",
          "type": "address"
        },
        {
          "indexed": false,
          "internalType": "uint256",
          "name": "amount",
          "type": "uint256"
        }
      ],
      "name": "LinkWithdrawn",
      "type": "event"
    },
    {
      "anonymous": false,
      "inputs": [
        {
          "indexed": true,
          "internalType": "bytes32",
          "name": "messageId",
          "type": "bytes32"
        },
        {
          "indexed": true,
          "internalType": "uint64",
          "name": "sourceChainSelector",
          "type": "uint64"
        },
        {
          "indexed": false,
          "internalType": "address",
          "name": "token",
          "type": "address"
        },
        {
          "indexed": false,
          "internalType": "uint256",
          "name": "amount",
          "type": "uint256"
        }
      ],
      "name": "MessageReceived",
      "type": "event"
    },
    {
      "anonymous": false,
      "inputs": [
        {
          "indexed": true,
          "internalType": "bytes32",
          "name": "messageId",
          "type": "bytes32"
        },
        {
          "indexed": true,
          "internalType": "uint64",
          "name": "destinationChainSelector",
          "type": "uint64"
        },
        {
          "indexed": false,
          "internalType": "address",
          "name": "token",
          "type": "address"
        },
        {
          "indexed": false,
          "internalType": "uint256",
          "name": "amount",
          "type": "uint256"
        }
      ],
      "name": "MessageSent",
      "type": "event"
    },
    {
      "anonymous": false,
      "inputs": [
        {
          "indexed": true,
          "internalType": "address",
          "name": "previousOwner",
          "type": "address"
        },
        {
          "indexed": true,
          "internalType": "address",
          "name": "newOwner",
          "type": "address"
        }
      ],
      "name": "OwnershipTransferred",
      "type": "event"
    },
    {
      "anonymous": false,
      "inputs": [
        {
          "indexed": false,
          "internalType": "address",
          "name": "token",
          "type": "address"
        },
        {
          "indexed": false,
          "internalType": "bool",
          "name": "supported",
          "type": "bool"
        }
      ],
      "name": "TokenSupported",
      "type": "event"
    },
    {
      "anonymous": false,
      "inputs": [
        {
          "indexed": true,
          "internalType": "address",
          "name": "sender",
          "type": "address"
        },
        {
          "indexed": true,
          "internalType": "uint64",
          "name": "destinationChainSelector",
          "type": "uint64"
        },
        {
          "indexed": false,
          "internalType": "address",
          "name": "token",
          "type": "address"
        },
        {
          "indexed": false,
          "internalType": "uint256",
          "name": "amount",
          "type": "uint256"
        }
      ],
      "name": "TokensSent",
      "type": "event"
    },
    {
      "inputs": [
        {
          "components": [
            {
              "internalType": "bytes32",
              "name": "messageId",
              "type": "bytes32"
            },
            {
              "internalType": "uint64",
              "name": "sourceChainSelector",
              "type": "uint64"
            },
            {
              "internalType": "bytes",
              "name": "sender",
              "type": "bytes"
            },
            {
              "internalType": "bytes",
              "name": "data",
              "type": "bytes"
            },
            {
              "components": [
                {
                  "internalType": "address",
                  "name": "token",
                  "type": "address"
                },
                {
                  "internalType": "uint256",
                  "name": "amount",
                  "type": "uint256"
                }
              ],
              "internalType": "struct Client.EVMTokenAmount[]",
              "name": "destTokenAmounts",
              "type": "tuple[]"
            }
          ],
          "internalType": "struct Client.Any2EVMMessage",
          "name": "message",
          "type": "tuple"
        }
      ],
      "name": "ccipReceive",
      "outputs": [],
      "stateMutability": "nonpayable",
      "type": "function"
    },
    {
      "inputs": [],
      "name": "getRouter",
      "outputs": [
        {
          "internalType": "address",
          "name": "",
          "type": "address"
        }
      ],
      "stateMutability": "view",
      "type": "function"
    },
    {
      "inputs": [],
      "name": "linkToken",
      "outputs": [
        {
          "internalType": "contract LinkTokenInterface",
          "name": "",
          "type": "address"
        }
      ],
      "stateMutability": "view",
      "type": "function"
    },
    {
      "inputs": [],
      "name": "owner",
      "outputs": [
        {
          "internalType": "address",
          "name": "",
          "type": "address"
        }
      ],
      "stateMutability": "view",
      "type": "function"
    },
    {
      "inputs": [
        {
          "internalType": "bytes32",
          "name": "",
          "type": "bytes32"
        }
      ],
      "name": "processedMessages",
      "outputs": [
        {
          "internalType": "bool",
          "name": "",
          "type": "bool"
        }
      ],
      "stateMutability": "view",
      "type": "function"
    },
    {
      "inputs": [],
      "name": "renounceOwnership",
      "outputs": [],
      "stateMutability": "nonpayable",
      "type": "function"
    },
    {
      "inputs": [],
      "name": "router",
      "outputs": [
        {
          "internalType": "contract IRouterClient",
          "name": "",
          "type": "address"
        }
      ],
      "stateMutability": "view",
      "type": "function"
    },
    {
      "inputs": [
        {
          "internalType": "uint64",
          "name": "destinationChainSelector",
          "type": "uint64"
        },
        {
          "internalType": "address",
          "name": "token",
          "type": "address"
        },
        {
          "internalType": "uint256",
          "name": "amount",
          "type": "uint256"
        }
      ],
      "name": "sendTokens",
      "outputs": [
        {
          "internalType": "bytes32",
          "name": "messageId",
          "type": "bytes32"
        }
      ],
      "stateMutability": "nonpayable",
      "type": "function"
    },
    {
      "inputs": [
        {
          "internalType": "uint64",
          "name": "chainSelector",
          "type": "uint64"
        },
        {
          "internalType": "bool",
          "name": "supported",
          "type": "bool"
        }
      ],
      "name": "setSupportedChain",
      "outputs": [],
      "stateMutability": "nonpayable",
      "type": "function"
    },
    {
      "inputs": [
        {
          "internalType": "address",
          "name": "token",
          "type": "address"
        },
        {
          "internalType": "bool",
          "name": "supported",
          "type": "bool"
        }
      ],
      "name": "setSupportedToken",
      "outputs": [],
      "stateMutability": "nonpayable",
      "type": "function"
    },
    {
      "inputs": [
        {
          "internalType": "uint64",
          "name": "",
          "type": "uint64"
        }
      ],
      "name": "supportedChains",
      "outputs": [
        {
          "internalType": "bool",
          "name": "",
          "type": "bool"
        }
      ],
      "stateMutability": "view",
      "type": "function"
    },
    {
      "inputs": [
        {
          "internalType": "address",
          "name": "",
          "type": "address"
        }
      ],
      "name": "supportedTokens",
      "outputs": [
        {
          "internalType": "bool",
          "name": "",
          "type": "bool"
        }
      ],
      "stateMutability": "view",
      "type": "function"
    },
    {
      "inputs": [
        {
          "internalType": "bytes4",
          "name": "interfaceId",
          "type": "bytes4"
        }
      ],
      "name": "supportsInterface",
      "outputs": [
        {
          "internalType": "bool",
          "name": "",
          "type": "bool"
        }
      ],
      "stateMutability": "view",
      "type": "function"
    },
    {
      "inputs": [
        {
          "internalType": "address",
          "name": "newOwner",
          "type": "address"
        }
      ],
      "name": "transferOwnership",
      "outputs": [],
      "stateMutability": "nonpayable",
      "type": "function"
    },
    {
      "inputs": [
        {
          "internalType": "address",
          "name": "token",
          "type": "address"
        },
        {
          "internalType": "uint256",
          "name": "amount",
          "type": "uint256"
        }
      ],
      "name": "withdrawERC20",
      "outputs": [],
      "stateMutability": "nonpayable",
      "type": "function"
    },
    {
      "inputs": [
        {
          "internalType": "uint256",
          "name": "amount",
          "type": "uint256"
        }
      ],
      "name": "withdrawLink",
      "outputs": [],
      "stateMutability": "nonpayable",
      "type": "function"
    }
  ],
  "bytecode": "0x60e060405234801561001057600080fd5b506040516119d73803806119d783398101604081905261002f91610128565b816001600160a01b03811661005f576040516335fdcccd60e21b8152600060048201526024015b60405180910390fd5b6001600160a01b03166080526001600055610079336100ba565b6001600160a01b0381166100a3576040516335fdcccd60e21b815260006004820152602401610056565b6001600160a01b0391821660a0521660c05261015b565b600180546001600160a01b038381166001600160a01b0319831681179093556040519116919082907f8be0079c531659141344cd1fd0a4f28419497f9722a3daafe3b4186f6b6457e090600090a35050565b80516001600160a01b038116811461012357600080fd5b919050565b6000806040838503121561013b57600080fd5b6101448361010c565b91506101526020840161010c565b90509250929050565b60805160a05160c0516118076101d06000396000818161013201528181610360015281816103f601528181610677015281816107bb0152818161084a015261092701526000818161028b0152818161072b015281816108f801526109ac015260008181610229015261047201526118076000f3fe608060405234801561001057600080fd5b50600436106101005760003560e01c8063a1db978211610097578063f2fde38b11610066578063f2fde38b14610260578063f5b5b80414610273578063f887ea4014610286578063f9c3f332146102ad57600080fd5b8063a1db9782146101f3578063a7149c1714610206578063b0f479a114610227578063e79864661461024d57600080fd5b80637a8042bd116100d35780637a8042bd1461019957806385572ffb146101ac57806388ba16ab146101bf5780638da5cb5b146101e257600080fd5b806301ffc9a71461010557806357970e931461012d57806368c4ac261461016c578063715018a61461018f575b600080fd5b6101186101133660046111cc565b6102d0565b60405190151581526020015b60405180910390f35b6101547f000000000000000000000000000000000000000000000000000000000000000081565b6040516001600160a01b039091168152602001610124565b61011861017a366004611212565b60036020526000908152604090205460ff1681565b610197610307565b005b6101976101a736600461122f565b61031b565b6101976101ba366004611248565b610467565b6101186101cd36600461122f565b60046020526000908152604090205460ff1681565b6001546001600160a01b0316610154565b610197610201366004611282565b6104c6565b6102196102143660046112ca565b610547565b604051908152602001610124565b7f0000000000000000000000000000000000000000000000000000000000000000610154565b61019761025b366004611317565b610ad0565b61019761026e366004611212565b610b3c565b610197610281366004611350565b610bb2565b6101547f000000000000000000000000000000000000000000000000000000000000000081565b6101186102bb36600461136c565b60026020526000908152604090205460ff1681565b60006001600160e01b031982166385572ffb60e01b148061030157506001600160e01b031982166301ffc9a760e01b145b92915050565b61030f610c16565b6103196000610c70565b565b610323610c16565b8060000361034457604051630686827b60e51b815260040160405180910390fd5b60405163a9059cbb60e01b8152336004820152602481018290527f00000000000000000000000000000000000000000000000000000000000000006001600160a01b03169063a9059cbb906044016020604051808303816000875af11580156103b1573d6000803e3d6000fd5b505050506040513d601f19601f820116820180604052508101906103d59190611387565b61042f57604051639d11f56360e01b81523360048201526001600160a01b037f0000000000000000000000000000000000000000000000000000000000000000166024820152604481018290526064015b60405180910390fd5b60405181815233907fcb1436249a1dd8cf93362c28d79a4e20dc54398b6c49e30316e8396e72a584b09060200160405180910390a250565b336001600160a01b037f000000000000000000000000000000000000000000000000000000000000000016146104b2576040516335fdcccd60e21b8152336004820152602401610426565b6104c36104be82611554565b610cc2565b50565b6104ce610c16565b806000036104ef57604051630686827b60e51b815260040160405180910390fd5b6105036001600160a01b0383163383610e3a565b60405181815233906001600160a01b038416907fbfed55bdcd242e3dd0f60ddd7d1e87c67f61c34cd9527b3e6455d841b10253629060200160405180910390a35050565b6001600160401b03831660009081526002602052604081205460ff1661058b57604051630a503cdb60e01b81526001600160401b0385166004820152602401610426565b6001600160a01b03831660009081526003602052604090205460ff166105cf576040516338c08ef960e11b81526001600160a01b0384166004820152602401610426565b816000036105f05760405163162908e360e11b815260040160405180910390fd5b6106056001600160a01b038416333085610ea2565b6040805160a0810182523060c0808301919091528251808303909101815260e08201835281528151336020808301919091526001600160a01b038716828501526060808301879052845180840390910181526080909201845282015260009181016106708686610ee0565b81526020017f00000000000000000000000000000000000000000000000000000000000000006001600160a01b0316815260200161070c604051806040016040528062030d408152602001600115158152506040805182516024820152602092830151151560448083019190915282518083039091018152606490910190915290810180516001600160e01b0316630181dcf160e41b17905290565b90526040516320487ded60e01b81529091506000906001600160a01b037f000000000000000000000000000000000000000000000000000000000000000016906320487ded90610762908990869060040161165a565b602060405180830381865afa15801561077f573d6000803e3d6000fd5b505050506040513d601f19601f820116820180604052508101906107a3919061172f565b6040516370a0823160e01b81523060048201529091507f00000000000000000000000000000000000000000000000000000000000000006001600160a01b0316906370a0823190602401602060405180830381865afa15801561080a573d6000803e3d6000fd5b505050506040513d601f19601f8201168201806040525081019061082e919061172f565b8111156108e1576040516370a0823160e01b81523060048201527f00000000000000000000000000000000000000000000000000000000000000006001600160a01b0316906370a0823190602401602060405180830381865afa158015610899573d6000803e3d6000fd5b505050506040513d601f19601f820116820180604052508101906108bd919061172f565b604051634787a10360e11b8152600481019190915260248101829052604401610426565b60405163095ea7b360e01b81526001600160a01b037f000000000000000000000000000000000000000000000000000000000000000081166004830152602482018390527f0000000000000000000000000000000000000000000000000000000000000000169063095ea7b3906044016020604051808303816000875af1158015610970573d6000803e3d6000fd5b505050506040513d601f19601f820116820180604052508101906109949190611387565b506040516396f4e9f960e01b81526001600160a01b037f000000000000000000000000000000000000000000000000000000000000000016906396f4e9f9906109e3908990869060040161165a565b6020604051808303816000875af1158015610a02573d6000803e3d6000fd5b505050506040513d601f19601f82011682018060405250810190610a26919061172f565b604080516001600160a01b0388168152602081018790529194506001600160401b0388169185917fc719305561d67ce0f33f6141666cb519400a008b914496fa679a571eaae119ca910160405180910390a3604080516001600160a01b0387168152602081018690526001600160401b0388169133917f27616ea7e9fa7cc864b23edec3771126a493a853aeff4125a3ea00b931fc36d3910160405180910390a350509392505050565b610ad8610c16565b6001600160a01b038216600081815260036020908152604091829020805460ff19168515159081179091558251938452908301527fd86c88b4a367d9b81a6e00c9d3f7d01657bffef358fa8968c91c045ae99f0d5291015b60405180910390a15050565b610b44610c16565b6001600160a01b038116610ba95760405162461bcd60e51b815260206004820152602660248201527f4f776e61626c653a206e6577206f776e657220697320746865207a65726f206160448201526564647265737360d01b6064820152608401610426565b6104c381610c70565b610bba610c16565b6001600160401b038216600081815260026020908152604091829020805460ff19168515159081179091558251938452908301527f1e0c3057f04400da671fb47f00beb7d5ac4d6ffc2280ddcdf55321419659ebef9101610b30565b6001546001600160a01b031633146103195760405162461bcd60e51b815260206004820181905260248201527f4f776e61626c653a2063616c6c6572206973206e6f7420746865206f776e65726044820152606401610426565b600180546001600160a01b038381166001600160a01b0319831681179093556040519116919082907f8be0079c531659141344cd1fd0a4f28419497f9722a3daafe3b4186f6b6457e090600090a35050565b6020808201516001600160401b031660009081526002909152604090205460ff16610d115760208101516040516326bfad9160e21b81526001600160401b039091166004820152602401610426565b805160009081526004602052604090205460ff1615610d46576040516338c08ef960e11b815260006004820152602401610426565b805160009081526004602090815260408220805460ff191660011790556060830151805183928392610d7d92810182019101611748565b6001600160a01b038216600090815260036020526040902054929550909350915060ff16610dc9576040516338c08ef960e11b81526001600160a01b0383166004820152602401610426565b610ddd6001600160a01b0383168483610e3a565b6020808501518551604080516001600160a01b03871681529384018590526001600160401b039092169290917f9e0cedd023f625fb8db19f2eb903c24aa1a45f05fd9ef9431a80505ad65e30fe910160405180910390a350505050565b6040516001600160a01b038316602482015260448101829052610e9d90849063a9059cbb60e01b906064015b60408051601f198184030181529190526020810180516001600160e01b03166001600160e01b031990931692909217909152610f67565b505050565b6040516001600160a01b0380851660248301528316604482015260648101829052610eda9085906323b872dd60e01b90608401610e66565b50505050565b60408051600180825281830190925260609160009190816020015b6040805180820190915260008082526020820152815260200190600190039081610efb5790505090506040518060400160405280856001600160a01b031681526020018481525081600081518110610f5557610f5561178c565b60209081029190910101529392505050565b6000610fbc826040518060400160405280602081526020017f5361666545524332303a206c6f772d6c6576656c2063616c6c206661696c6564815250856001600160a01b031661103c9092919063ffffffff16565b9050805160001480610fdd575080806020019051810190610fdd9190611387565b610e9d5760405162461bcd60e51b815260206004820152602a60248201527f5361666545524332303a204552433230206f7065726174696f6e20646964206e6044820152691bdd081cdd58d8d9595960b21b6064820152608401610426565b606061104b8484600085611053565b949350505050565b6060824710156110b45760405162461bcd60e51b815260206004820152602660248201527f416464726573733a20696e73756666696369656e742062616c616e636520666f6044820152651c8818d85b1b60d21b6064820152608401610426565b600080866001600160a01b031685876040516110d091906117a2565b60006040518083038185875af1925050503d806000811461110d576040519150601f19603f3d011682016040523d82523d6000602084013e611112565b606091505b50915091506111238783838761112e565b979650505050505050565b6060831561119d578251600003611196576001600160a01b0385163b6111965760405162461bcd60e51b815260206004820152601d60248201527f416464726573733a2063616c6c20746f206e6f6e2d636f6e74726163740000006044820152606401610426565b508161104b565b61104b83838151156111b25781518083602001fd5b8060405162461bcd60e51b815260040161042691906117be565b6000602082840312156111de57600080fd5b81356001600160e01b0319811681146111f657600080fd5b9392505050565b6001600160a01b03811681146104c357600080fd5b60006020828403121561122457600080fd5b81356111f6816111fd565b60006020828403121561124157600080fd5b5035919050565b60006020828403121561125a57600080fd5b81356001600160401b0381111561127057600080fd5b820160a081850312156111f657600080fd5b6000806040838503121561129557600080fd5b82356112a0816111fd565b946020939093013593505050565b80356001600160401b03811681146112c557600080fd5b919050565b6000806000606084860312156112df57600080fd5b6112e8846112ae565b925060208401356112f8816111fd565b929592945050506040919091013590565b80151581146104c357600080fd5b6000806040838503121561132a57600080fd5b8235611335816111fd565b9150602083013561134581611309565b809150509250929050565b6000806040838503121561136357600080fd5b611335836112ae565b60006020828403121561137e57600080fd5b6111f6826112ae565b60006020828403121561139957600080fd5b81516111f681611309565b634e487b7160e01b600052604160045260246000fd5b604080519081016001600160401b03811182821017156113dc576113dc6113a4565b60405290565b60405160a081016001600160401b03811182821017156113dc576113dc6113a4565b604051601f8201601f191681016001600160401b038111828210171561142c5761142c6113a4565b604052919050565b600082601f83011261144557600080fd5b81356001600160401b0381111561145e5761145e6113a4565b611471601f8201601f1916602001611404565b81815284602083860101111561148657600080fd5b816020850160208301376000918101602001919091529392505050565b600082601f8301126114b457600080fd5b81356001600160401b038111156114cd576114cd6113a4565b6114dc60208260051b01611404565b8082825260208201915060208360061b8601019250858311156114fe57600080fd5b602085015b8381101561154a576040818803121561151b57600080fd5b6115236113ba565b813561152e816111fd565b8152602082810135818301529084529290920191604001611503565b5095945050505050565b600060a0823603121561156657600080fd5b61156e6113e2565b8235815261157e602084016112ae565b602082015260408301356001600160401b0381111561159c57600080fd5b6115a836828601611434565b60408301525060608301356001600160401b038111156115c757600080fd5b6115d336828601611434565b60608301525060808301356001600160401b038111156115f257600080fd5b6115fe368286016114a3565b60808301525092915050565b60005b8381101561162557818101518382015260200161160d565b50506000910152565b6000815180845261164681602086016020860161160a565b601f01601f19169290920160200192915050565b6001600160401b0383168152604060208201526000825160a0604084015261168560e084018261162e565b90506020840151603f198483030160608501526116a2828261162e565b6040860151858203603f19016080870152805180835260209182019450600093509101905b808310156116fe57835180516001600160a01b031683526020908101518184015290930192600192909201916040909101906116c7565b5060608601516001600160a01b031660a08601526080860151858203603f190160c08701529250611123818461162e565b60006020828403121561174157600080fd5b5051919050565b60008060006060848603121561175d57600080fd5b8351611768816111fd565b6020850151909350611779816111fd565b6040949094015192959394509192915050565b634e487b7160e01b600052603260045260246000fd5b600082516117b481846020870161160a565b9190910192915050565b6020815260006111f6602083018461162e56fea264697066735822122053eb96372770aa698fb5dea04ce3bfbec859e6c2710c02ccab2b16f55f78dbc764736f6c634300081b0033",
  "linkReferences": {},
  "deployedLinkReferences": {}
}