{
  "_format": "hh-sol-artifact-1",
  "contractName": "ERC1155HybridAsset",
  "sourceName": "contracts/tokenization/templates/ERC1155HybridAsset.sol",
  "abi": [
    {
      "inputs": [],
      "stateMutability": "nonpayable",
      "type": "constructor"
    },
    {
      "anonymous": false,
      "inputs": [
        {
          "indexed": false,
          "internalType": "address",
          "name": "previousAdmin",
          "type": "address"
        },
        {
          "indexed": false,
          "internalType": "address",
          "name": "newAdmin",
          "type": "address"
        }
      ],
      "name": "AdminChanged",
      "type": "event"
    },
    {
      "anonymous": false,
      "inputs": [
        {
          "indexed": true,
          "internalType": "address",
          "name": "account",
          "type": "address"
        },
        {
          "indexed": true,
          "internalType": "address",
          "name": "operator",
          "type": "address"
        },
        {
          "indexed": false,
          "internalType": "bool",
          "name": "approved",
          "type": "bool"
        }
      ],
      "name": "ApprovalForAll",
      "type": "event"
    },
    {
      "anonymous": false,
      "inputs": [
        {
          "indexed": true,
          "internalType": "address",
          "name": "beacon",
          "type": "address"
        }
      ],
      "name": "BeaconUpgraded",
      "type": "event"
    },
    {
      "anonymous": false,
      "inputs": [
        {
          "indexed": true,
          "internalType": "address",
          "name": "account",
          "type": "address"
        },
        {
          "indexed": true,
          "internalType": "uint256",
          "name": "tokenId",
          "type": "uint256"
        },
        {
          "indexed": true,
          "internalType": "address",
          "name": "collateralToken",
          "type": "address"
        },
        {
          "indexed": false,
          "internalType": "uint256",
          "name": "amount",
          "type": "uint256"
        },
        {
          "indexed": false,
          "internalType": "uint256",
          "name": "lockPeriod",
          "type": "uint256"
        }
      ],
      "name": "CollateralAdded",
      "type": "event"
    },
    {
      "anonymous": false,
      "inputs": [
        {
          "indexed": true,
          "internalType": "address",
          "name": "account",
          "type": "address"
        },
        {
          "indexed": true,
          "internalType": "uint256",
          "name": "tokenId",
          "type": "uint256"
        },
        {
          "indexed": true,
          "internalType": "address",
          "name": "collateralToken",
          "type": "address"
        },
        {
          "indexed": false,
          "internalType": "uint256",
          "name": "amount",
          "type": "uint256"
        },
        {
          "indexed": false,
          "internalType": "address",
          "name": "to",
          "type": "address"
        }
      ],
      "name": "CollateralRemoved",
      "type": "event"
    },
    {
      "anonymous": false,
      "inputs": [
        {
          "indexed": true,
          "internalType": "address",
          "name": "token",
          "type": "address"
        }
      ],
      "name": "CollateralTokenAdded",
      "type": "event"
    },
    {
      "anonymous": false,
      "inputs": [
        {
          "indexed": true,
          "internalType": "address",
          "name": "token",
          "type": "address"
        }
      ],
      "name": "CollateralTokenRemoved",
      "type": "event"
    },
    {
      "anonymous": false,
      "inputs": [
        {
          "indexed": false,
          "internalType": "address",
          "name": "feeRecipient",
          "type": "address"
        }
      ],
      "name": "FeesUpdated",
      "type": "event"
    },
    {
      "anonymous": false,
      "inputs": [
        {
          "indexed": false,
          "internalType": "uint8",
          "name": "version",
          "type": "uint8"
        }
      ],
      "name": "Initialized",
      "type": "event"
    },
    {
      "anonymous": false,
      "inputs": [
        {
          "indexed": true,
          "internalType": "address",
          "name": "borrower",
          "type": "address"
        },
        {
          "indexed": true,
          "internalType": "uint256",
          "name": "tokenId",
          "type": "uint256"
        },
        {
          "indexed": true,
          "internalType": "address",
          "name": "lender",
          "type": "address"
        },
        {
          "indexed": false,
          "internalType": "uint256",
          "name": "loanAmount",
          "type": "uint256"
        },
        {
          "indexed": false,
          "internalType": "uint256",
          "name": "interestRate",
          "type": "uint256"
        },
        {
          "indexed": false,
          "internalType": "uint256",
          "name": "duration",
          "type": "uint256"
        }
      ],
      "name": "LoanInitiated",
      "type": "event"
    },
    {
      "anonymous": false,
      "inputs": [
        {
          "indexed": true,
          "internalType": "address",
          "name": "liquidator",
          "type": "address"
        },
        {
          "indexed": true,
          "internalType": "address",
          "name": "borrower",
          "type": "address"
        },
        {
          "indexed": true,
          "internalType": "uint256",
          "name": "tokenId",
          "type": "uint256"
        },
        {
          "indexed": false,
          "internalType": "uint256",
          "name": "collateralSeized",
          "type": "uint256"
        }
      ],
      "name": "LoanLiquidated",
      "type": "event"
    },
    {
      "anonymous": false,
      "inputs": [
        {
          "indexed": true,
          "internalType": "address",
          "name": "borrower",
          "type": "address"
        },
        {
          "indexed": true,
          "internalType": "uint256",
          "name": "tokenId",
          "type": "uint256"
        },
        {
          "indexed": false,
          "internalType": "uint256",
          "name": "amountRepaid",
          "type": "uint256"
        }
      ],
      "name": "LoanRepaid",
      "type": "event"
    },
    {
      "anonymous": false,
      "inputs": [
        {
          "indexed": true,
          "internalType": "address",
          "name": "to",
          "type": "address"
        },
        {
          "indexed": true,
          "internalType": "uint256",
          "name": "tokenId",
          "type": "uint256"
        },
        {
          "indexed": false,
          "internalType": "uint256",
          "name": "amount",
          "type": "uint256"
        },
        {
          "indexed": false,
          "internalType": "bytes",
          "name": "data",
          "type": "bytes"
        }
      ],
      "name": "Minted",
      "type": "event"
    },
    {
      "anonymous": false,
      "inputs": [
        {
          "indexed": true,
          "internalType": "address",
          "name": "previousOwner",
          "type": "address"
        },
        {
          "indexed": true,
          "internalType": "address",
          "name": "newOwner",
          "type": "address"
        }
      ],
      "name": "OwnershipTransferred",
      "type": "event"
    },
    {
      "anonymous": false,
      "inputs": [
        {
          "indexed": true,
          "internalType": "uint256",
          "name": "tokenId",
          "type": "uint256"
        },
        {
          "indexed": false,
          "internalType": "enum ERC1155HybridAsset.TokenType",
          "name": "tokenType",
          "type": "uint8"
        },
        {
          "indexed": false,
          "internalType": "string",
          "name": "name",
          "type": "string"
        },
        {
          "indexed": false,
          "internalType": "string",
          "name": "symbol",
          "type": "string"
        },
        {
          "indexed": false,
          "internalType": "uint256",
          "name": "maxSupply",
          "type": "uint256"
        },
        {
          "indexed": false,
          "internalType": "uint256",
          "name": "mintingFee",
          "type": "uint256"
        }
      ],
      "name": "TokenCreated",
      "type": "event"
    },
    {
      "anonymous": false,
      "inputs": [
        {
          "indexed": true,
          "internalType": "address",
          "name": "operator",
          "type": "address"
        },
        {
          "indexed": true,
          "internalType": "address",
          "name": "from",
          "type": "address"
        },
        {
          "indexed": true,
          "internalType": "address",
          "name": "to",
          "type": "address"
        },
        {
          "indexed": false,
          "internalType": "uint256[]",
          "name": "ids",
          "type": "uint256[]"
        },
        {
          "indexed": false,
          "internalType": "uint256[]",
          "name": "values",
          "type": "uint256[]"
        }
      ],
      "name": "TransferBatch",
      "type": "event"
    },
    {
      "anonymous": false,
      "inputs": [
        {
          "indexed": true,
          "internalType": "address",
          "name": "operator",
          "type": "address"
        },
        {
          "indexed": true,
          "internalType": "address",
          "name": "from",
          "type": "address"
        },
        {
          "indexed": true,
          "internalType": "address",
          "name": "to",
          "type": "address"
        },
        {
          "indexed": false,
          "internalType": "uint256",
          "name": "id",
          "type": "uint256"
        },
        {
          "indexed": false,
          "internalType": "uint256",
          "name": "value",
          "type": "uint256"
        }
      ],
      "name": "TransferSingle",
      "type": "event"
    },
    {
      "anonymous": false,
      "inputs": [
        {
          "indexed": false,
          "internalType": "string",
          "name": "value",
          "type": "string"
        },
        {
          "indexed": true,
          "internalType": "uint256",
          "name": "id",
          "type": "uint256"
        }
      ],
      "name": "URI",
      "type": "event"
    },
    {
      "anonymous": false,
      "inputs": [
        {
          "indexed": true,
          "internalType": "address",
          "name": "implementation",
          "type": "address"
        }
      ],
      "name": "Upgraded",
      "type": "event"
    },
    {
      "inputs": [],
      "name": "MAX_FEE",
      "outputs": [
        {
          "internalType": "uint256",
          "name": "",
          "type": "uint256"
        }
      ],
      "stateMutability": "view",
      "type": "function"
    },
    {
      "inputs": [
        {
          "internalType": "uint256",
          "name": "tokenId",
          "type": "uint256"
        },
        {
          "internalType": "address",
          "name": "collateralToken",
          "type": "address"
        },
        {
          "internalType": "uint256",
          "name": "amount",
          "type": "uint256"
        },
        {
          "internalType": "uint256",
          "name": "lockPeriod",
          "type": "uint256"
        }
      ],
      "name": "addCollateral",
      "outputs": [],
      "stateMutability": "payable",
      "type": "function"
    },
    {
      "inputs": [
        {
          "internalType": "address",
          "name": "token",
          "type": "address"
        }
      ],
      "name": "addSupportedCollateralToken",
      "outputs": [],
      "stateMutability": "nonpayable",
      "type": "function"
    },
    {
      "inputs": [
        {
          "internalType": "address",
          "name": "account",
          "type": "address"
        },
        {
          "internalType": "uint256",
          "name": "id",
          "type": "uint256"
        }
      ],
      "name": "balanceOf",
      "outputs": [
        {
          "internalType": "uint256",
          "name": "",
          "type": "uint256"
        }
      ],
      "stateMutability": "view",
      "type": "function"
    },
    {
      "inputs": [
        {
          "internalType": "address[]",
          "name": "accounts",
          "type": "address[]"
        },
        {
          "internalType": "uint256[]",
          "name": "ids",
          "type": "uint256[]"
        }
      ],
      "name": "balanceOfBatch",
      "outputs": [
        {
          "internalType": "uint256[]",
          "name": "",
          "type": "uint256[]"
        }
      ],
      "stateMutability": "view",
      "type": "function"
    },
    {
      "inputs": [
        {
          "internalType": "uint256",
          "name": "principal",
          "type": "uint256"
        },
        {
          "internalType": "uint256",
          "name": "rate",
          "type": "uint256"
        },
        {
          "internalType": "uint256",
          "name": "startTime",
          "type": "uint256"
        }
      ],
      "name": "calculateInterest",
      "outputs": [
        {
          "internalType": "uint256",
          "name": "",
          "type": "uint256"
        }
      ],
      "stateMutability": "view",
      "type": "function"
    },
    {
      "inputs": [
        {
          "internalType": "string",
          "name": "name",
          "type": "string"
        },
        {
          "internalType": "string",
          "name": "symbol",
          "type": "string"
        },
        {
          "internalType": "enum ERC1155HybridAsset.TokenType",
          "name": "tokenType",
          "type": "uint8"
        },
        {
          "internalType": "uint256",
          "name": "maxSupply",
          "type": "uint256"
        },
        {
          "internalType": "uint256",
          "name": "_mintingFee",
          "type": "uint256"
        }
      ],
      "name": "createToken",
      "outputs": [
        {
          "internalType": "uint256",
          "name": "",
          "type": "uint256"
        }
      ],
      "stateMutability": "nonpayable",
      "type": "function"
    },
    {
      "inputs": [],
      "name": "feeRecipient",
      "outputs": [
        {
          "internalType": "address",
          "name": "",
          "type": "address"
        }
      ],
      "stateMutability": "view",
      "type": "function"
    },
    {
      "inputs": [],
      "name": "getSupportedCollateralTokens",
      "outputs": [
        {
          "internalType": "address[]",
          "name": "",
          "type": "address[]"
        }
      ],
      "stateMutability": "view",
      "type": "function"
    },
    {
      "inputs": [
        {
          "internalType": "address",
          "name": "account",
          "type": "address"
        },
        {
          "internalType": "uint256",
          "name": "tokenId",
          "type": "uint256"
        }
      ],
      "name": "getUserCollaterals",
      "outputs": [
        {
          "components": [
            {
              "internalType": "address",
              "name": "token",
              "type": "address"
            },
            {
              "internalType": "uint256",
              "name": "amount",
              "type": "uint256"
            },
            {
              "internalType": "uint256",
              "name": "lockedAt",
              "type": "uint256"
            },
            {
              "internalType": "uint256",
              "name": "lockPeriod",
              "type": "uint256"
            }
          ],
          "internalType": "struct ERC1155HybridAsset.Collateral[]",
          "name": "",
          "type": "tuple[]"
        }
      ],
      "stateMutability": "view",
      "type": "function"
    },
    {
      "inputs": [
        {
          "internalType": "string",
          "name": "uri_",
          "type": "string"
        },
        {
          "internalType": "address",
          "name": "_feeRecipient",
          "type": "address"
        }
      ],
      "name": "initialize",
      "outputs": [],
      "stateMutability": "nonpayable",
      "type": "function"
    },
    {
      "inputs": [
        {
          "internalType": "string",
          "name": "_uri",
          "type": "string"
        },
        {
          "internalType": "address",
          "name": "_owner",
          "type": "address"
        },
        {
          "internalType": "uint256",
          "name": "_mintingFee",
          "type": "uint256"
        },
        {
          "internalType": "address",
          "name": "_feeRecipient",
          "type": "address"
        }
      ],
      "name": "initializeHybridAsset",
      "outputs": [],
      "stateMutability": "nonpayable",
      "type": "function"
    },
    {
      "inputs": [
        {
          "internalType": "uint256",
          "name": "tokenId",
          "type": "uint256"
        },
        {
          "internalType": "address",
          "name": "lender",
          "type": "address"
        },
        {
          "internalType": "uint256",
          "name": "loanAmount",
          "type": "uint256"
        },
        {
          "internalType": "uint256",
          "name": "interestRate",
          "type": "uint256"
        },
        {
          "internalType": "uint256",
          "name": "duration",
          "type": "uint256"
        }
      ],
      "name": "initiateLoan",
      "outputs": [],
      "stateMutability": "nonpayable",
      "type": "function"
    },
    {
      "inputs": [
        {
          "internalType": "address",
          "name": "account",
          "type": "address"
        },
        {
          "internalType": "address",
          "name": "operator",
          "type": "address"
        }
      ],
      "name": "isApprovedForAll",
      "outputs": [
        {
          "internalType": "bool",
          "name": "",
          "type": "bool"
        }
      ],
      "stateMutability": "view",
      "type": "function"
    },
    {
      "inputs": [
        {
          "internalType": "address",
          "name": "borrower",
          "type": "address"
        },
        {
          "internalType": "uint256",
          "name": "tokenId",
          "type": "uint256"
        }
      ],
      "name": "liquidateLoan",
      "outputs": [],
      "stateMutability": "nonpayable",
      "type": "function"
    },
    {
      "inputs": [
        {
          "internalType": "address",
          "name": "to",
          "type": "address"
        },
        {
          "internalType": "uint256",
          "name": "tokenId",
          "type": "uint256"
        },
        {
          "internalType": "uint256",
          "name": "amount",
          "type": "uint256"
        },
        {
          "internalType": "bytes",
          "name": "data",
          "type": "bytes"
        }
      ],
      "name": "mint",
      "outputs": [],
      "stateMutability": "nonpayable",
      "type": "function"
    },
    {
      "inputs": [],
      "name": "nextTokenId",
      "outputs": [
        {
          "internalType": "uint256",
          "name": "",
          "type": "uint256"
        }
      ],
      "stateMutability": "view",
      "type": "function"
    },
    {
      "inputs": [],
      "name": "owner",
      "outputs": [
        {
          "internalType": "address",
          "name": "",
          "type": "address"
        }
      ],
      "stateMutability": "view",
      "type": "function"
    },
    {
      "inputs": [],
      "name": "proxiableUUID",
      "outputs": [
        {
          "internalType": "bytes32",
          "name": "",
          "type": "bytes32"
        }
      ],
      "stateMutability": "view",
      "type": "function"
    },
    {
      "inputs": [
        {
          "internalType": "uint256",
          "name": "tokenId",
          "type": "uint256"
        },
        {
          "internalType": "uint256",
          "name": "collateralIndex",
          "type": "uint256"
        },
        {
          "internalType": "address",
          "name": "to",
          "type": "address"
        }
      ],
      "name": "removeCollateral",
      "outputs": [],
      "stateMutability": "nonpayable",
      "type": "function"
    },
    {
      "inputs": [
        {
          "internalType": "address",
          "name": "token",
          "type": "address"
        }
      ],
      "name": "removeSupportedCollateralToken",
      "outputs": [],
      "stateMutability": "nonpayable",
      "type": "function"
    },
    {
      "inputs": [],
      "name": "renounceOwnership",
      "outputs": [],
      "stateMutability": "nonpayable",
      "type": "function"
    },
    {
      "inputs": [
        {
          "internalType": "uint256",
          "name": "tokenId",
          "type": "uint256"
        }
      ],
      "name": "repayLoan",
      "outputs": [],
      "stateMutability": "payable",
      "type": "function"
    },
    {
      "inputs": [
        {
          "internalType": "address",
          "name": "from",
          "type": "address"
        },
        {
          "internalType": "address",
          "name": "to",
          "type": "address"
        },
        {
          "internalType": "uint256[]",
          "name": "ids",
          "type": "uint256[]"
        },
        {
          "internalType": "uint256[]",
          "name": "amounts",
          "type": "uint256[]"
        },
        {
          "internalType": "bytes",
          "name": "data",
          "type": "bytes"
        }
      ],
      "name": "safeBatchTransferFrom",
      "outputs": [],
      "stateMutability": "nonpayable",
      "type": "function"
    },
    {
      "inputs": [
        {
          "internalType": "address",
          "name": "from",
          "type": "address"
        },
        {
          "internalType": "address",
          "name": "to",
          "type": "address"
        },
        {
          "internalType": "uint256",
          "name": "id",
          "type": "uint256"
        },
        {
          "internalType": "uint256",
          "name": "amount",
          "type": "uint256"
        },
        {
          "internalType": "bytes",
          "name": "data",
          "type": "bytes"
        }
      ],
      "name": "safeTransferFrom",
      "outputs": [],
      "stateMutability": "nonpayable",
      "type": "function"
    },
    {
      "inputs": [
        {
          "internalType": "address",
          "name": "operator",
          "type": "address"
        },
        {
          "internalType": "bool",
          "name": "approved",
          "type": "bool"
        }
      ],
      "name": "setApprovalForAll",
      "outputs": [],
      "stateMutability": "nonpayable",
      "type": "function"
    },
    {
      "inputs": [
        {
          "internalType": "bytes4",
          "name": "interfaceId",
          "type": "bytes4"
        }
      ],
      "name": "supportsInterface",
      "outputs": [
        {
          "internalType": "bool",
          "name": "",
          "type": "bool"
        }
      ],
      "stateMutability": "view",
      "type": "function"
    },
    {
      "inputs": [
        {
          "internalType": "uint256",
          "name": "",
          "type": "uint256"
        }
      ],
      "name": "tokenInfo",
      "outputs": [
        {
          "internalType": "enum ERC1155HybridAsset.TokenType",
          "name": "tokenType",
          "type": "uint8"
        },
        {
          "internalType": "string",
          "name": "name",
          "type": "string"
        },
        {
          "internalType": "string",
          "name": "symbol",
          "type": "string"
        },
        {
          "internalType": "uint256",
          "name": "totalSupply",
          "type": "uint256"
        },
        {
          "internalType": "uint256",
          "name": "maxSupply",
          "type": "uint256"
        },
        {
          "internalType": "uint256",
          "name": "mintingFee",
          "type": "uint256"
        },
        {
          "internalType": "bool",
          "name": "isActive",
          "type": "bool"
        }
      ],
      "stateMutability": "view",
      "type": "function"
    },
    {
      "inputs": [
        {
          "internalType": "uint256",
          "name": "",
          "type": "uint256"
        },
        {
          "internalType": "address",
          "name": "",
          "type": "address"
        }
      ],
      "name": "tokenLoans",
      "outputs": [
        {
          "internalType": "address",
          "name": "lender",
          "type": "address"
        },
        {
          "internalType": "uint256",
          "name": "loanAmount",
          "type": "uint256"
        },
        {
          "internalType": "uint256",
          "name": "interestRate",
          "type": "uint256"
        },
        {
          "internalType": "uint256",
          "name": "duration",
          "type": "uint256"
        },
        {
          "internalType": "uint256",
          "name": "borrowedAt",
          "type": "uint256"
        },
        {
          "internalType": "bool",
          "name": "isActive",
          "type": "bool"
        }
      ],
      "stateMutability": "view",
      "type": "function"
    },
    {
      "inputs": [
        {
          "internalType": "address",
          "name": "newOwner",
          "type": "address"
        }
      ],
      "name": "transferOwnership",
      "outputs": [],
      "stateMutability": "nonpayable",
      "type": "function"
    },
    {
      "inputs": [
        {
          "internalType": "address",
          "name": "_feeRecipient",
          "type": "address"
        }
      ],
      "name": "updateFees",
      "outputs": [],
      "stateMutability": "nonpayable",
      "type": "function"
    },
    {
      "inputs": [
        {
          "internalType": "uint256",
          "name": "tokenId",
          "type": "uint256"
        },
        {
          "internalType": "uint256",
          "name": "newMintingFee",
          "type": "uint256"
        }
      ],
      "name": "updateTokenMintingFee",
      "outputs": [],
      "stateMutability": "nonpayable",
      "type": "function"
    },
    {
      "inputs": [
        {
          "internalType": "address",
          "name": "newImplementation",
          "type": "address"
        }
      ],
      "name": "upgradeTo",
      "outputs": [],
      "stateMutability": "nonpayable",
      "type": "function"
    },
    {
      "inputs": [
        {
          "internalType": "address",
          "name": "newImplementation",
          "type": "address"
        },
        {
          "internalType": "bytes",
          "name": "data",
          "type": "bytes"
        }
      ],
      "name": "upgradeToAndCall",
      "outputs": [],
      "stateMutability": "payable",
      "type": "function"
    },
    {
      "inputs": [
        {
          "internalType": "uint256",
          "name": "tokenId",
          "type": "uint256"
        }
      ],
      "name": "uri",
      "outputs": [
        {
          "internalType": "string",
          "name": "",
          "type": "string"
        }
      ],
      "stateMutability": "view",
      "type": "function"
    },
    {
      "inputs": [
        {
          "internalType": "uint256",
          "name": "",
          "type": "uint256"
        },
        {
          "internalType": "address",
          "name": "",
          "type": "address"
        }
      ],
      "name": "userCollateralValue",
      "outputs": [
        {
          "internalType": "uint256",
          "name": "",
          "type": "uint256"
        }
      ],
      "stateMutability": "view",
      "type": "function"
    },
    {
      "stateMutability": "payable",
      "type": "receive"
    }
  ],
  "bytecode": "0x60a06040523060805234801561001457600080fd5b5061001d610022565b6100e1565b600054610100900460ff161561008e5760405162461bcd60e51b815260206004820152602760248201527f496e697469616c697a61626c653a20636f6e747261637420697320696e697469604482015266616c697a696e6760c81b606482015260840160405180910390fd5b60005460ff908116146100df576000805460ff191660ff9081179091556040519081527f7f26b83ff96e1f2b6a682f133852f6798a09c465da95921460cefb38474024989060200160405180910390a15b565b608051614e0c61011860003960008181610bd001528181610c1001528181610dd001528181610e100152610ea30152614e0c6000f3fe6080604052600436106102125760003560e01c8063731133e911610118578063ab7b1c89116100a0578063cc33c8751161006f578063cc33c875146106ae578063e985e9c5146106e1578063edda8c721461072a578063f242432a1461074a578063f2fde38b1461076a57600080fd5b8063ab7b1c8914610652578063b24673ba14610665578063bac385c414610678578063bc063e1a1461069857600080fd5b80638da5cb5b116100e75780638da5cb5b146105b45780638feefc7e146105d25780639d45109a146105f2578063a22cb46514610612578063a93989711461063257600080fd5b8063731133e91461053b57806375794a3c1461055b5780637ab4339d146105725780637f4e759f1461059257600080fd5b8063469048401161019b5780635609501d1161016a5780635609501d1461041757806357ebca3a1461044457806370326963146104645780637054a67c14610506578063715018a61461052657600080fd5b806346904840146103895780634e1273f4146103c25780634f1ef286146103ef57806352d1902d1461040257600080fd5b80630e89341c116101e25780630e89341c146102c35780631ae5be6f146102f05780632eb2c2d61461031057806330459333146103305780633659cfe61461036957600080fd5b8062fdd58e1461021e57806301ffc9a71461025157806305e1bd8c1461028157806309d3e5c5146102a157600080fd5b3661021957005b600080fd5b34801561022a57600080fd5b5061023e610239366004613d43565b61078a565b6040519081526020015b60405180910390f35b34801561025d57600080fd5b5061027161026c366004613d83565b610825565b6040519015158152602001610248565b34801561028d57600080fd5b5061023e61029c366004613da0565b610875565b3480156102ad57600080fd5b506102c16102bc366004613e8c565b6108b1565b005b3480156102cf57600080fd5b506102e36102de366004613ef3565b610ad3565b6040516102489190613f5c565b3480156102fc57600080fd5b5061023e61030b366004613f6f565b610b60565b34801561031c57600080fd5b506102c161032b366004614095565b610b81565b34801561033c57600080fd5b5061023e61034b366004614148565b61016260209081526000928352604080842090915290825290205481565b34801561037557600080fd5b506102c1610384366004614174565b610bc6565b34801561039557600080fd5b50610166546103aa906001600160a01b031681565b6040516001600160a01b039091168152602001610248565b3480156103ce57600080fd5b506103e26103dd36600461418f565b610ca5565b604051610248919061429e565b6102c16103fd3660046142b1565b610dc6565b34801561040e57600080fd5b5061023e610e96565b34801561042357600080fd5b50610437610432366004613d43565b610f4a565b60405161024891906142f4565b34801561045057600080fd5b506102c161045f366004614363565b610ff3565b34801561047057600080fd5b506104cd61047f366004614148565b6101636020908152600092835260408084209091529082529020805460018201546002830154600384015460048501546005909501546001600160a01b039094169492939192909160ff1686565b604080516001600160a01b03909716875260208701959095529385019290925260608401526080830152151560a082015260c001610248565b34801561051257600080fd5b506102c1610521366004614174565b611088565b34801561053257600080fd5b506102c161116d565b34801561054757600080fd5b506102c1610556366004614385565b611181565b34801561056757600080fd5b5061023e6101605481565b34801561057e57600080fd5b506102c161058d3660046143e5565b611362565b34801561059e57600080fd5b506105a7611490565b6040516102489190614429565b3480156105c057600080fd5b506097546001600160a01b03166103aa565b3480156105de57600080fd5b506102c16105ed366004614174565b6114a2565b3480156105fe57600080fd5b506102c161060d36600461446a565b61152f565b34801561061e57600080fd5b506102c161062d3660046144ad565b611968565b34801561063e57600080fd5b506102c161064d3660046144e4565b611973565b6102c1610660366004613ef3565b611c7a565b6102c161067336600461452a565b611fb5565b34801561068457600080fd5b506102c1610693366004614174565b612217565b3480156106a457600080fd5b5061023e61271081565b3480156106ba57600080fd5b506106ce6106c9366004613ef3565b61229a565b604051610248979695949392919061459d565b3480156106ed57600080fd5b506102716106fc3660046145f8565b6001600160a01b03918216600090815260666020908152604080832093909416825291909152205460ff1690565b34801561073657600080fd5b506102c1610745366004613d43565b6123ee565b34801561075657600080fd5b506102c1610765366004614622565b612794565b34801561077657600080fd5b506102c1610785366004614174565b6127d9565b60006001600160a01b0383166107fa5760405162461bcd60e51b815260206004820152602a60248201527f455243313135353a2061646472657373207a65726f206973206e6f742061207660448201526930b634b21037bbb732b960b11b60648201526084015b60405180910390fd5b5060008181526065602090815260408083206001600160a01b03861684529091529020545b92915050565b60006001600160e01b03198216636cdb3d1360e11b148061085657506001600160e01b031982166303a24d0760e21b145b8061081f57506301ffc9a760e01b6001600160e01b031983161461081f565b6000806108828342614690565b905063bbf81e008161089486886146a3565b61089e91906146a3565b6108a891906146d0565b95945050505050565b600054610100900460ff16158080156108d15750600054600160ff909116105b806108eb5750303b1580156108eb575060005460ff166001145b6109075760405162461bcd60e51b81526004016107f1906146e4565b6000805460ff19166001179055801561092a576000805461ff0019166101001790555b6109338561284f565b61093b61287f565b6109436128ae565b61094b6128dd565b6001600160a01b0384166109995760405162461bcd60e51b8152602060048201526015602482015274496e76616c6964206f776e6572206164647265737360581b60448201526064016107f1565b6001600160a01b0382166109bf5760405162461bcd60e51b81526004016107f190614732565b6103e8831115610a085760405162461bcd60e51b815260206004820152601460248201527309ad2dce8d2dcce40cccaca40e8dede40d0d2ced60631b60448201526064016107f1565b61016680546001600160a01b0319166001600160a01b0384161790556001610160819055604080518082018252600c81526b121e589c9a5908105cdcd95d60a21b6020808301919091528251808401909352600683526512165094925160d21b90830152610a7c9290919060001987612904565b50610a8684612a58565b8015610acc576000805461ff0019169055604051600181527f7f26b83ff96e1f2b6a682f133852f6798a09c465da95921460cefb38474024989060200160405180910390a15b5050505050565b6060600082118015610ae757506101605482105b610b275760405162461bcd60e51b81526020600482015260116024820152702737b732bc34b9ba32b73a103a37b5b2b760791b60448201526064016107f1565b610b3082612aaa565b610b3983612b3e565b604051602001610b4a929190614761565b6040516020818303038152906040529050919050565b6000610b6a612c46565b610b778686868686612904565b9695505050505050565b6001600160a01b038516331480610b9d5750610b9d85336106fc565b610bb95760405162461bcd60e51b81526004016107f190614790565b610acc8585858585612ca0565b6001600160a01b037f0000000000000000000000000000000000000000000000000000000000000000163003610c0e5760405162461bcd60e51b81526004016107f1906147de565b7f00000000000000000000000000000000000000000000000000000000000000006001600160a01b0316610c57600080516020614d90833981519152546001600160a01b031690565b6001600160a01b031614610c7d5760405162461bcd60e51b81526004016107f19061482a565b610c8681612e79565b60408051600080825260208201909252610ca291839190612e81565b50565b60608151835114610d0a5760405162461bcd60e51b815260206004820152602960248201527f455243313135353a206163636f756e747320616e6420696473206c656e677468604482015268040dad2e6dac2e8c6d60bb1b60648201526084016107f1565b600083516001600160401b03811115610d2557610d25613dcc565b604051908082528060200260200182016040528015610d4e578160200160208202803683370190505b50905060005b8451811015610dbe57610d99858281518110610d7257610d72614876565b6020026020010151858381518110610d8c57610d8c614876565b602002602001015161078a565b828281518110610dab57610dab614876565b6020908102919091010152600101610d54565b509392505050565b6001600160a01b037f0000000000000000000000000000000000000000000000000000000000000000163003610e0e5760405162461bcd60e51b81526004016107f1906147de565b7f00000000000000000000000000000000000000000000000000000000000000006001600160a01b0316610e57600080516020614d90833981519152546001600160a01b031690565b6001600160a01b031614610e7d5760405162461bcd60e51b81526004016107f19061482a565b610e8682612e79565b610e9282826001612e81565b5050565b6000306001600160a01b037f00000000000000000000000000000000000000000000000000000000000000001614610f365760405162461bcd60e51b815260206004820152603860248201527f555550535570677261646561626c653a206d757374206e6f742062652063616c60448201527f6c6564207468726f7567682064656c656761746563616c6c000000000000000060648201526084016107f1565b50600080516020614d908339815191525b90565b6000818152610161602090815260408083206001600160a01b03861684528252808320805482518185028101850190935280835260609492939192909184015b82821015610fe7576000848152602090819020604080516080810182526004860290920180546001600160a01b03168352600180820154848601526002820154928401929092526003015460608301529083529092019101610f8a565b50505050905092915050565b610ffb612c46565b60008211801561100d57506101605482105b6110295760405162461bcd60e51b81526004016107f19061488c565b6103e88111156110725760405162461bcd60e51b815260206004820152601460248201527309ad2dce8d2dcce40cccaca40e8dede40d0d2ced60631b60448201526064016107f1565b600091825261015f602052604090912060050155565b611090612c46565b6001600160a01b0381166110de5760405162461bcd60e51b8152602060048201526015602482015274496e76616c696420746f6b656e206164647265737360581b60448201526064016107f1565b6110ea61016482612fec565b6111365760405162461bcd60e51b815260206004820152601760248201527f546f6b656e20616c726561647920737570706f7274656400000000000000000060448201526064016107f1565b6040516001600160a01b038216907fd61bc477a25fa080e2c32ed9e4417ba4861d11b873216136586ddedadcff2f0290600090a250565b611175612c46565b61117f6000612a58565b565b611189612c46565b611191613008565b6000831180156111a357506101605483105b6111bf5760405162461bcd60e51b81526004016107f19061488c565b600083815261015f60205260409020600681015460ff166112185760405162461bcd60e51b8152602060048201526013602482015272546f6b656e206973206e6f742061637469766560681b60448201526064016107f1565b6000815460ff16600181111561123057611230614565565b0361128557826001146112855760405162461bcd60e51b815260206004820152601d60248201527f43616e206f6e6c79206d696e742031204e465420617420612074696d6500000060448201526064016107f1565b6004810154156112e75780600401548382600301546112a491906148b6565b11156112e75760405162461bcd60e51b815260206004820152601260248201527145786365656473206d617820737570706c7960701b60448201526064016107f1565b828160030160008282546112fb91906148b6565b9091555061130d905085858585613061565b83856001600160a01b03167f3415a4398115f911eb5f94d5d45050a5586f16a7d86ec8c9f749053d3f48d66185856040516113499291906148c9565b60405180910390a35061135c600160c955565b50505050565b600054610100900460ff16158080156113825750600054600160ff909116105b8061139c5750303b15801561139c575060005460ff166001145b6113b85760405162461bcd60e51b81526004016107f1906146e4565b6000805460ff1916600117905580156113db576000805461ff0019166101001790555b6113e48361284f565b6113ec61287f565b6113f46128ae565b6001600160a01b03821661141a5760405162461bcd60e51b81526004016107f190614732565b61142333612a58565b61016680546001600160a01b0319166001600160a01b038416179055600161016055801561148b576000805461ff0019169055604051600181527f7f26b83ff96e1f2b6a682f133852f6798a09c465da95921460cefb38474024989060200160405180910390a15b505050565b606061149d61016461317e565b905090565b6114aa612c46565b6114b66101648261318b565b6114f85760405162461bcd60e51b8152602060048201526013602482015272151bdad95b881b9bdd081cdd5c1c1bdc9d1959606a1b60448201526064016107f1565b6040516001600160a01b038216907f066186f1dd144b0baa72e90264076813d8f2dfce7c39704ea68d159cee4305b790600090a250565b611537613008565b60008311801561154957506101605483105b6115655760405162461bcd60e51b81526004016107f19061488c565b6001600160a01b0381166115bb5760405162461bcd60e51b815260206004820152601960248201527f496e76616c696420726563697069656e7420616464726573730000000000000060448201526064016107f1565b6000838152610161602090815260408083203384529091529020805483106116255760405162461bcd60e51b815260206004820152601860248201527f496e76616c696420636f6c6c61746572616c20696e646578000000000000000060448201526064016107f1565b600081848154811061163957611639614876565b906000526020600020906004020190508060030154816002015461165d91906148b6565b4210156116ac5760405162461bcd60e51b815260206004820152601a60248201527f436f6c6c61746572616c206973207374696c6c206c6f636b656400000000000060448201526064016107f1565b60008581526101636020908152604080832033845290915290206005015460ff161561172c5760405162461bcd60e51b815260206004820152602960248201527f43616e6e6f742072656d6f766520636f6c6c61746572616c20776974682061636044820152683a34bb32903637b0b760b91b60648201526084016107f1565b6001808201548254845491926001600160a01b039091169160009161175091614690565b9050808710156117d95784818154811061176c5761176c614876565b906000526020600020906004020185888154811061178c5761178c614876565b60009182526020909120825460049092020180546001600160a01b0319166001600160a01b0390921691909117815560018083015490820155600280830154908201556003918201549101555b848054806117e9576117e96148e2565b6000828152602080822060046000199094019384020180546001600160a01b0319168155600181018390556002810183905560030182905591909255898252610162815260408083203384529091528120805485929061184a908490614690565b90915550506001600160a01b0382166118fc576000866001600160a01b03168460405160006040518083038185875af1925050503d80600081146118aa576040519150601f19603f3d011682016040523d82523d6000602084013e6118af565b606091505b50509050806118f65760405162461bcd60e51b8152602060048201526013602482015272115512081d1c985b9cd9995c8819985a5b1959606a1b60448201526064016107f1565b50611910565b6119106001600160a01b03831687856131a0565b604080518481526001600160a01b0388811660208301528416918a9133917f05220b239d8009ef53ec57226c95389541e255622926450737bb1a4eb9ee6910910160405180910390a4505050505061148b600160c955565b610e92338383613203565b61197b613008565b60008511801561198d57506101605485105b6119a95760405162461bcd60e51b81526004016107f19061488c565b6001600160a01b0384166119f85760405162461bcd60e51b8152602060048201526016602482015275496e76616c6964206c656e646572206164647265737360501b60448201526064016107f1565b60008311611a3e5760405162461bcd60e51b8152602060048201526013602482015272125b9d985b1a59081b1bd85b88185b5bdd5b9d606a1b60448201526064016107f1565b60008581526101636020908152604080832033845290915290206005015460ff1615611aa25760405162461bcd60e51b81526020600482015260136024820152724c6f616e20616c72656164792061637469766560681b60448201526064016107f1565b600085815261016260209081526040808320338452909152902054611af95760405162461bcd60e51b815260206004820152600d60248201526c139bc818dbdb1b185d195c985b609a1b60448201526064016107f1565b6040805160c0810182526001600160a01b0386811682526020808301878152838501878152606085018781524260808701908152600160a0880181815260008f815261016388528a81203380835298528a812099518a546001600160a01b031916991698909817895594519088015591516002870155516003860155516004850155516005909301805460ff1916931515939093179092559151859060006040518083038185875af1925050503d8060008114611bd2576040519150601f19603f3d011682016040523d82523d6000602084013e611bd7565b606091505b5050905080611c1f5760405162461bcd60e51b8152602060048201526014602482015273131bd85b881d1c985b9cd9995c8819985a5b195960621b60448201526064016107f1565b60408051858152602081018590529081018390526001600160a01b03861690879033907fa0e5d4f5f5df11ed653b6853a607f777388c84f30035bff747224839e49308c49060600160405180910390a450610acc600160c955565b611c82613008565b600081118015611c9457506101605481105b611cb05760405162461bcd60e51b81526004016107f19061488c565b6000818152610163602090815260408083203384529091529020600581015460ff16611d0f5760405162461bcd60e51b815260206004820152600e60248201526d27379030b1ba34bb32903637b0b760911b60448201526064016107f1565b6000611d28826001015483600201548460040154610875565b90506000818360010154611d3c91906148b6565b90503415611eda5780341015611d945760405162461bcd60e51b815260206004820152601d60248201527f496e73756666696369656e742072657061796d656e7420616d6f756e7400000060448201526064016107f1565b82546040516000916001600160a01b03169083908381818185875af1925050503d8060008114611de0576040519150601f19603f3d011682016040523d82523d6000602084013e611de5565b606091505b5050905080611e365760405162461bcd60e51b815260206004820152601960248201527f52657061796d656e74207472616e73666572206661696c65640000000000000060448201526064016107f1565b81341115611ed45733611e498334614690565b604051600081818185875af1925050503d8060008114611e85576040519150601f19603f3d011682016040523d82523d6000602084013e611e8a565b606091505b50508091505080611ed45760405162461bcd60e51b8152602060048201526014602482015273115e18d95cdcc81c995d1d5c9b8819985a5b195960621b60448201526064016107f1565b50611f22565b60405162461bcd60e51b815260206004820181905260248201527f45524332302072657061796d656e7473206e6f7420696d706c656d656e74656460448201526064016107f1565b6000848152610163602090815260408083203380855290835281842080546001600160a01b031916815560018101859055600281018590556003810185905560048101949094556005909301805460ff19169055518381528692917fc7ce0a35f17b490de2a317e7fecb2cae86b1abffb03800b2f492823521382698910160405180910390a3505050610ca2600160c955565b611fbd613008565b600084118015611fcf57506101605484105b611feb5760405162461bcd60e51b81526004016107f19061488c565b6000821161203b5760405162461bcd60e51b815260206004820152601d60248201527f416d6f756e74206d7573742062652067726561746572207468616e203000000060448201526064016107f1565b6001600160a01b03831615806120585750612058610164846132e3565b6120a45760405162461bcd60e51b815260206004820152601c60248201527f556e737570706f7274656420636f6c6c61746572616c20746f6b656e0000000060448201526064016107f1565b6001600160a01b0383166120fd578134146120f85760405162461bcd60e51b8152602060048201526014602482015273125b98dbdc9c9958dd0811551208185b5bdd5b9d60621b60448201526064016107f1565b612112565b6121126001600160a01b038416333085613305565b6000848152610161602090815260408083203380855290835281842082516080810184526001600160a01b03898116825281860189815242838701908152606084018a8152855460018082018855968b52898b209551600490910290950180546001600160a01b0319169590941694909417835590519382019390935591516002830155516003909101558784526101628352818420908452909152812080548492906121c09084906148b6565b909155505060408051838152602081018390526001600160a01b03851691869133917fa677e6775d03876f198cb08352e47c823c9015ca95171ac036a83278f0b482ba910160405180910390a461135c600160c955565b61221f612c46565b6001600160a01b0381166122455760405162461bcd60e51b81526004016107f190614732565b61016680546001600160a01b0319166001600160a01b0383169081179091556040519081527fcbf9135de9c55ccc4efd14c7730164ae0e0b30a49b66ce717be5078b2b7e6b799060200160405180910390a150565b61015f602052600090815260409020805460018201805460ff90921692916122c1906148f8565b80601f01602080910402602001604051908101604052809291908181526020018280546122ed906148f8565b801561233a5780601f1061230f5761010080835404028352916020019161233a565b820191906000526020600020905b81548152906001019060200180831161231d57829003601f168201915b50505050509080600201805461234f906148f8565b80601f016020809104026020016040519081016040528092919081815260200182805461237b906148f8565b80156123c85780601f1061239d576101008083540402835291602001916123c8565b820191906000526020600020905b8154815290600101906020018083116123ab57829003601f168201915b505050506003830154600484015460058501546006909501549394919390925060ff1687565b6123f6613008565b60008111801561240857506101605481105b6124245760405162461bcd60e51b81526004016107f19061488c565b6000818152610163602090815260408083206001600160a01b03861684529091529020600581015460ff1661248c5760405162461bcd60e51b815260206004820152600e60248201526d27379030b1ba34bb32903637b0b760911b60448201526064016107f1565b806003015481600401546124a091906148b6565b42116124e75760405162461bcd60e51b8152602060048201526016602482015275131bd85b881b9bdd081e595d08191959985d5b1d195960521b60448201526064016107f1565b6000828152610161602090815260408083206001600160a01b0387168452909152812090805b82548110156126b357600083828154811061252a5761252a614876565b600091825260209182902060408051608081018252600490930290910180546001600160a01b0316808452600182015494840194909452600281015491830191909152600301546060820152915061261357602081015160405160009133918381818185875af1925050503d80600081146125c1576040519150601f19603f3d011682016040523d82523d6000602084013e6125c6565b606091505b505090508061260d5760405162461bcd60e51b8152602060048201526013602482015272115512081d1c985b9cd9995c8819985a5b1959606a1b60448201526064016107f1565b50612631565b60208101518151612631916001600160a01b039091169033906131a0565b602081015161264090846148b6565b925080600001516001600160a01b031686886001600160a01b03167f05220b239d8009ef53ec57226c95389541e255622926450737bb1a4eb9ee69108460200151336040516126a29291909182526001600160a01b0316602082015260400190565b60405180910390a45060010161250d565b506000848152610161602090815260408083206001600160a01b038916845290915281206126e091613cd3565b6000848152610162602090815260408083206001600160a01b0389168085529083528184208490558784526101638352818420818552835281842080546001600160a01b031916815560018101859055600281018590556003810185905560048101949094556005909301805460ff191690555183815286929133917fb7573cbea2f79c8c9a890488d2511453963a8be78fb185cc5803146d6b10982c910160405180910390a4505050610e92600160c955565b6001600160a01b0385163314806127b057506127b085336106fc565b6127cc5760405162461bcd60e51b81526004016107f190614790565b610acc858585858561333d565b6127e1612c46565b6001600160a01b0381166128465760405162461bcd60e51b815260206004820152602660248201527f4f776e61626c653a206e6577206f776e657220697320746865207a65726f206160448201526564647265737360d01b60648201526084016107f1565b610ca281612a58565b600054610100900460ff166128765760405162461bcd60e51b81526004016107f190614932565b610ca28161346b565b600054610100900460ff166128a65760405162461bcd60e51b81526004016107f190614932565b61117f61349b565b600054610100900460ff166128d55760405162461bcd60e51b81526004016107f190614932565b61117f6134cb565b600054610100900460ff1661117f5760405162461bcd60e51b81526004016107f190614932565b6101608054600091829190826129198361497d565b9190505590506040518060e0016040528086600181111561293c5761293c614565565b8152602001888152602001878152602001600081526020018581526020018481526020016001151581525061015f600083815260200190815260200160002060008201518160000160006101000a81548160ff021916908360018111156129a5576129a5614565565b0217905550602082015160018201906129be90826149dd565b50604082015160028201906129d390826149dd565b50606082015160038201556080820151600482015560a0820151600582015560c0909101516006909101805460ff191691151591909117905560405181907feb85e1655317e161563830175613acdc6428f779a642d9f7d924e3e1e6091bad90612a469088908b908b908a908a90614a9b565b60405180910390a29695505050505050565b609780546001600160a01b038381166001600160a01b0319831681179093556040519116919082907f8be0079c531659141344cd1fd0a4f28419497f9722a3daafe3b4186f6b6457e090600090a35050565b606060678054612ab9906148f8565b80601f0160208091040260200160405190810160405280929190818152602001828054612ae5906148f8565b8015612b325780601f10612b0757610100808354040283529160200191612b32565b820191906000526020600020905b815481529060010190602001808311612b1557829003601f168201915b50505050509050919050565b606081600003612b655750506040805180820190915260018152600360fc1b602082015290565b8160005b8115612b8f5780612b798161497d565b9150612b889050600a836146d0565b9150612b69565b6000816001600160401b03811115612ba957612ba9613dcc565b6040519080825280601f01601f191660200182016040528015612bd3576020820181803683370190505b5090505b8415612c3e57612be8600183614690565b9150612bf5600a86614ae2565b612c009060306148b6565b60f81b818381518110612c1557612c15614876565b60200101906001600160f81b031916908160001a905350612c37600a866146d0565b9450612bd7565b949350505050565b6097546001600160a01b0316331461117f5760405162461bcd60e51b815260206004820181905260248201527f4f776e61626c653a2063616c6c6572206973206e6f7420746865206f776e657260448201526064016107f1565b8151835114612d025760405162461bcd60e51b815260206004820152602860248201527f455243313135353a2069647320616e6420616d6f756e7473206c656e677468206044820152670dad2e6dac2e8c6d60c31b60648201526084016107f1565b6001600160a01b038416612d285760405162461bcd60e51b81526004016107f190614af6565b3360005b8451811015612e0b576000858281518110612d4957612d49614876565b602002602001015190506000858381518110612d6757612d67614876565b60209081029190910181015160008481526065835260408082206001600160a01b038e168352909352919091205490915081811015612db85760405162461bcd60e51b81526004016107f190614b3b565b60008381526065602090815260408083206001600160a01b038e8116855292528083208585039055908b16825281208054849290612df79084906148b6565b909155505060019093019250612d2c915050565b50846001600160a01b0316866001600160a01b0316826001600160a01b03167f4a39dc06d4c0dbc64b70af90fd698a233a518aa5d07e595d983b8c0526c8f7fb8787604051612e5b929190614b85565b60405180910390a4612e718187878787876134f2565b505050505050565b610ca2612c46565b7f4910fdfa16fed3260ed0e7147f7cc6da11a60208b5b9406d12a635614ffd91435460ff1615612eb45761148b8361364d565b826001600160a01b03166352d1902d6040518163ffffffff1660e01b8152600401602060405180830381865afa925050508015612f0e575060408051601f3d908101601f19168201909252612f0b91810190614baa565b60015b612f715760405162461bcd60e51b815260206004820152602e60248201527f45524331393637557067726164653a206e657720696d706c656d656e7461746960448201526d6f6e206973206e6f74205555505360901b60648201526084016107f1565b600080516020614d908339815191528114612fe05760405162461bcd60e51b815260206004820152602960248201527f45524331393637557067726164653a20756e737570706f727465642070726f786044820152681a58589b195555525160ba1b60648201526084016107f1565b5061148b8383836136e9565b6000613001836001600160a01b03841661370e565b9392505050565b600260c9540361305a5760405162461bcd60e51b815260206004820152601f60248201527f5265656e7472616e637947756172643a207265656e7472616e742063616c6c0060448201526064016107f1565b600260c955565b6001600160a01b0384166130c15760405162461bcd60e51b815260206004820152602160248201527f455243313135353a206d696e7420746f20746865207a65726f206164647265736044820152607360f81b60648201526084016107f1565b3360006130cd8561375d565b905060006130da8561375d565b905060008681526065602090815260408083206001600160a01b038b1684529091528120805487929061310e9084906148b6565b909155505060408051878152602081018790526001600160a01b03808a1692600092918716917fc3d58168c5ae7397731d063d5bbf3d657854427343f4c083240f7aacaa2d0f62910160405180910390a461316e836000898989896137a8565b50505050505050565b600160c955565b6060600061300183613863565b6000613001836001600160a01b0384166138be565b6040516001600160a01b03831660248201526044810182905261148b90849063a9059cbb60e01b906064015b60408051601f198184030181529190526020810180516001600160e01b03166001600160e01b0319909316929092179091526139b1565b816001600160a01b0316836001600160a01b0316036132765760405162461bcd60e51b815260206004820152602960248201527f455243313135353a2073657474696e6720617070726f76616c20737461747573604482015268103337b91039b2b63360b91b60648201526084016107f1565b6001600160a01b03838116600081815260666020908152604080832094871680845294825291829020805460ff191686151590811790915591519182527f17307eab39ab6107e8899845ad3d59bd9653f200f220920489ca2b5937696c31910160405180910390a3505050565b6001600160a01b03811660009081526001830160205260408120541515613001565b6040516001600160a01b038085166024830152831660448201526064810182905261135c9085906323b872dd60e01b906084016131cc565b6001600160a01b0384166133635760405162461bcd60e51b81526004016107f190614af6565b33600061336f8561375d565b9050600061337c8561375d565b905060008681526065602090815260408083206001600160a01b038c168452909152902054858110156133c15760405162461bcd60e51b81526004016107f190614b3b565b60008781526065602090815260408083206001600160a01b038d8116855292528083208985039055908a168252812080548892906134009084906148b6565b909155505060408051888152602081018890526001600160a01b03808b16928c821692918816917fc3d58168c5ae7397731d063d5bbf3d657854427343f4c083240f7aacaa2d0f62910160405180910390a4613460848a8a8a8a8a6137a8565b505050505050505050565b600054610100900460ff166134925760405162461bcd60e51b81526004016107f190614932565b610ca281613a86565b600054610100900460ff166134c25760405162461bcd60e51b81526004016107f190614932565b61117f33612a58565b600054610100900460ff166131775760405162461bcd60e51b81526004016107f190614932565b6001600160a01b0384163b15612e715760405163bc197c8160e01b81526001600160a01b0385169063bc197c81906135369089908990889088908890600401614bc3565b6020604051808303816000875af1925050508015613571575060408051601f3d908101601f1916820190925261356e91810190614c21565b60015b61361d5761357d614c3e565b806308c379a0036135b65750613591614c59565b8061359c57506135b8565b8060405162461bcd60e51b81526004016107f19190613f5c565b505b60405162461bcd60e51b815260206004820152603460248201527f455243313135353a207472616e7366657220746f206e6f6e2d455243313135356044820152732932b1b2b4bb32b91034b6b83632b6b2b73a32b960611b60648201526084016107f1565b6001600160e01b0319811663bc197c8160e01b1461316e5760405162461bcd60e51b81526004016107f190614cd4565b6001600160a01b0381163b6136ba5760405162461bcd60e51b815260206004820152602d60248201527f455243313936373a206e657720696d706c656d656e746174696f6e206973206e60448201526c1bdd08184818dbdb9d1c9858dd609a1b60648201526084016107f1565b600080516020614d9083398151915280546001600160a01b0319166001600160a01b0392909216919091179055565b6136f283613a92565b6000825111806136ff5750805b1561148b5761135c8383613ad2565b60008181526001830160205260408120546137555750815460018181018455600084815260208082209093018490558454848252828601909352604090209190915561081f565b50600061081f565b6040805160018082528183019092526060916000919060208083019080368337019050509050828160008151811061379757613797614876565b602090810291909101015292915050565b6001600160a01b0384163b15612e715760405163f23a6e6160e01b81526001600160a01b0385169063f23a6e61906137ec9089908990889088908890600401614d1c565b6020604051808303816000875af1925050508015613827575060408051601f3d908101601f1916820190925261382491810190614c21565b60015b6138335761357d614c3e565b6001600160e01b0319811663f23a6e6160e01b1461316e5760405162461bcd60e51b81526004016107f190614cd4565b606081600001805480602002602001604051908101604052809291908181526020018280548015612b3257602002820191906000526020600020905b81548152602001906001019080831161389f5750505050509050919050565b600081815260018301602052604081205480156139a75760006138e2600183614690565b85549091506000906138f690600190614690565b905081811461395b57600086600001828154811061391657613916614876565b906000526020600020015490508087600001848154811061393957613939614876565b6000918252602080832090910192909255918252600188019052604090208390555b855486908061396c5761396c6148e2565b60019003818190600052602060002001600090559055856001016000868152602001908152602001600020600090556001935050505061081f565b600091505061081f565b6000613a06826040518060400160405280602081526020017f5361666545524332303a206c6f772d6c6576656c2063616c6c206661696c6564815250856001600160a01b0316613af79092919063ffffffff16565b9050805160001480613a27575080806020019051810190613a279190614d56565b61148b5760405162461bcd60e51b815260206004820152602a60248201527f5361666545524332303a204552433230206f7065726174696f6e20646964206e6044820152691bdd081cdd58d8d9595960b21b60648201526084016107f1565b6067610e9282826149dd565b613a9b8161364d565b6040516001600160a01b038216907fbc7cd75a20ee27fd9adebab32041f755214dbc6bffa90cc0225b39da2e5c2d3b90600090a250565b60606130018383604051806060016040528060278152602001614db060279139613b06565b6060612c3e8484600085613b74565b6060600080856001600160a01b031685604051613b239190614d73565b600060405180830381855af49150503d8060008114613b5e576040519150601f19603f3d011682016040523d82523d6000602084013e613b63565b606091505b5091509150610b7786838387613c4f565b606082471015613bd55760405162461bcd60e51b815260206004820152602660248201527f416464726573733a20696e73756666696369656e742062616c616e636520666f6044820152651c8818d85b1b60d21b60648201526084016107f1565b600080866001600160a01b03168587604051613bf19190614d73565b60006040518083038185875af1925050503d8060008114613c2e576040519150601f19603f3d011682016040523d82523d6000602084013e613c33565b606091505b5091509150613c4487838387613c4f565b979650505050505050565b60608315613cbe578251600003613cb7576001600160a01b0385163b613cb75760405162461bcd60e51b815260206004820152601d60248201527f416464726573733a2063616c6c20746f206e6f6e2d636f6e747261637400000060448201526064016107f1565b5081612c3e565b612c3e838381511561359c5781518083602001fd5b5080546000825560040290600052602060002090810190610ca291905b80821115613d235780546001600160a01b0319168155600060018201819055600282018190556003820155600401613cf0565b5090565b80356001600160a01b0381168114613d3e57600080fd5b919050565b60008060408385031215613d5657600080fd5b613d5f83613d27565b946020939093013593505050565b6001600160e01b031981168114610ca257600080fd5b600060208284031215613d9557600080fd5b813561300181613d6d565b600080600060608486031215613db557600080fd5b505081359360208301359350604090920135919050565b634e487b7160e01b600052604160045260246000fd5b601f8201601f191681016001600160401b0381118282101715613e0757613e07613dcc565b6040525050565b600082601f830112613e1f57600080fd5b8135602083016000806001600160401b03841115613e3f57613e3f613dcc565b50604051601f8401601f191660200190613e598282613de2565b809250848152878585011115613e6e57600080fd5b84846020830137600060208683010152809550505050505092915050565b60008060008060808587031215613ea257600080fd5b84356001600160401b03811115613eb857600080fd5b613ec487828801613e0e565b945050613ed360208601613d27565b925060408501359150613ee860608601613d27565b905092959194509250565b600060208284031215613f0557600080fd5b5035919050565b60005b83811015613f27578181015183820152602001613f0f565b50506000910152565b60008151808452613f48816020860160208601613f0c565b601f01601f19169290920160200192915050565b6020815260006130016020830184613f30565b600080600080600060a08688031215613f8757600080fd5b85356001600160401b03811115613f9d57600080fd5b613fa988828901613e0e565b95505060208601356001600160401b03811115613fc557600080fd5b613fd188828901613e0e565b945050604086013560028110613fe657600080fd5b94979396509394606081013594506080013592915050565b60006001600160401b0382111561401757614017613dcc565b5060051b60200190565b600082601f83011261403257600080fd5b813561403d81613ffe565b60405161404a8282613de2565b80915082815260208101915060208360051b86010192508583111561406e57600080fd5b602085015b8381101561408b578035835260209283019201614073565b5095945050505050565b600080600080600060a086880312156140ad57600080fd5b6140b686613d27565b94506140c460208701613d27565b935060408601356001600160401b038111156140df57600080fd5b6140eb88828901614021565b93505060608601356001600160401b0381111561410757600080fd5b61411388828901614021565b92505060808601356001600160401b0381111561412f57600080fd5b61413b88828901613e0e565b9150509295509295909350565b6000806040838503121561415b57600080fd5b8235915061416b60208401613d27565b90509250929050565b60006020828403121561418657600080fd5b61300182613d27565b600080604083850312156141a257600080fd5b82356001600160401b038111156141b857600080fd5b8301601f810185136141c957600080fd5b80356141d481613ffe565b6040516141e18282613de2565b80915082815260208101915060208360051b85010192508783111561420557600080fd5b6020840193505b8284101561422e5761421d84613d27565b82526020938401939091019061420c565b945050505060208301356001600160401b0381111561424c57600080fd5b61425885828601614021565b9150509250929050565b600081518084526020840193506020830160005b82811015614294578151865260209586019590910190600101614276565b5093949350505050565b6020815260006130016020830184614262565b600080604083850312156142c457600080fd5b6142cd83613d27565b915060208301356001600160401b038111156142e857600080fd5b61425885828601613e0e565b602080825282518282018190526000918401906040840190835b8181101561435857835180516001600160a01b031684526020808201518186015260408083015190860152606091820151918501919091529093019260809092019160010161430e565b509095945050505050565b6000806040838503121561437657600080fd5b50508035926020909101359150565b6000806000806080858703121561439b57600080fd5b6143a485613d27565b9350602085013592506040850135915060608501356001600160401b038111156143cd57600080fd5b6143d987828801613e0e565b91505092959194509250565b600080604083850312156143f857600080fd5b82356001600160401b0381111561440e57600080fd5b61441a85828601613e0e565b92505061416b60208401613d27565b602080825282518282018190526000918401906040840190835b818110156143585783516001600160a01b0316835260209384019390920191600101614443565b60008060006060848603121561447f57600080fd5b833592506020840135915061449660408501613d27565b90509250925092565b8015158114610ca257600080fd5b600080604083850312156144c057600080fd5b6144c983613d27565b915060208301356144d98161449f565b809150509250929050565b600080600080600060a086880312156144fc57600080fd5b8535945061450c60208701613d27565b94979496505050506040830135926060810135926080909101359150565b6000806000806080858703121561454057600080fd5b8435935061455060208601613d27565b93969395505050506040820135916060013590565b634e487b7160e01b600052602160045260246000fd5b6002811061459957634e487b7160e01b600052602160045260246000fd5b9052565b6145a7818961457b565b60e0602082015260006145bd60e0830189613f30565b82810360408401526145cf8189613f30565b9150508560608301528460808301528360a083015282151560c083015298975050505050505050565b6000806040838503121561460b57600080fd5b61461483613d27565b915061416b60208401613d27565b600080600080600060a0868803121561463a57600080fd5b61464386613d27565b945061465160208701613d27565b9350604086013592506060860135915060808601356001600160401b0381111561412f57600080fd5b634e487b7160e01b600052601160045260246000fd5b8181038181111561081f5761081f61467a565b808202811582820484141761081f5761081f61467a565b634e487b7160e01b600052601260045260246000fd5b6000826146df576146df6146ba565b500490565b6020808252602e908201527f496e697469616c697a61626c653a20636f6e747261637420697320616c72656160408201526d191e481a5b9a5d1a585b1a5e995960921b606082015260800190565b602080825260159082015274125b9d985b1a5908199959481c9958da5c1a595b9d605a1b604082015260600190565b60008351614773818460208801613f0c565b835190830190614787818360208801613f0c565b01949350505050565b6020808252602e908201527f455243313135353a2063616c6c6572206973206e6f7420746f6b656e206f776e60408201526d195c881bdc88185c1c1c9bdd995960921b606082015260800190565b6020808252602c908201527f46756e6374696f6e206d7573742062652063616c6c6564207468726f7567682060408201526b19195b1959d85d1958d85b1b60a21b606082015260800190565b6020808252602c908201527f46756e6374696f6e206d7573742062652063616c6c6564207468726f7567682060408201526b6163746976652070726f787960a01b606082015260800190565b634e487b7160e01b600052603260045260246000fd5b60208082526010908201526f125b9d985b1a59081d1bdad95b88125160821b604082015260600190565b8082018082111561081f5761081f61467a565b828152604060208201526000612c3e6040830184613f30565b634e487b7160e01b600052603160045260246000fd5b600181811c9082168061490c57607f821691505b60208210810361492c57634e487b7160e01b600052602260045260246000fd5b50919050565b6020808252602b908201527f496e697469616c697a61626c653a20636f6e7472616374206973206e6f74206960408201526a6e697469616c697a696e6760a81b606082015260800190565b60006001820161498f5761498f61467a565b5060010190565b601f82111561148b57806000526020600020601f840160051c810160208510156149bd5750805b601f840160051c820191505b81811015610acc57600081556001016149c9565b81516001600160401b038111156149f6576149f6613dcc565b614a0a81614a0484546148f8565b84614996565b6020601f821160018114614a3e5760008315614a265750848201515b600019600385901b1c1916600184901b178455610acc565b600084815260208120601f198516915b82811015614a6e5787850151825560209485019460019092019101614a4e565b5084821015614a8c5786840151600019600387901b60f8161c191681555b50505050600190811b01905550565b614aa5818761457b565b60a060208201526000614abb60a0830187613f30565b8281036040840152614acd8187613f30565b60608401959095525050608001529392505050565b600082614af157614af16146ba565b500690565b60208082526025908201527f455243313135353a207472616e7366657220746f20746865207a65726f206164604082015264647265737360d81b606082015260800190565b6020808252602a908201527f455243313135353a20696e73756666696369656e742062616c616e636520666f60408201526939103a3930b739b332b960b11b606082015260800190565b604081526000614b986040830185614262565b82810360208401526108a88185614262565b600060208284031215614bbc57600080fd5b5051919050565b6001600160a01b0386811682528516602082015260a060408201819052600090614bef90830186614262565b8281036060840152614c018186614262565b90508281036080840152614c158185613f30565b98975050505050505050565b600060208284031215614c3357600080fd5b815161300181613d6d565b600060033d1115610f475760046000803e5060005160e01c90565b600060443d1015614c675790565b6040513d600319016004823e80513d60248201116001600160401b0382111715614c9057505090565b80820180516001600160401b03811115614cab575050505090565b3d8401600319018282016020011115614cc5575050505090565b610dbe60208285010185613de2565b60208082526028908201527f455243313135353a204552433131353552656365697665722072656a656374656040820152676420746f6b656e7360c01b606082015260800190565b6001600160a01b03868116825285166020820152604081018490526060810183905260a060808201819052600090613c4490830184613f30565b600060208284031215614d6857600080fd5b81516130018161449f565b60008251614d85818460208701613f0c565b919091019291505056fe360894a13ba1a3210667c828492db98dca3e2076cc3735a920a3ca505d382bbc416464726573733a206c6f772d6c6576656c2064656c65676174652063616c6c206661696c6564a264697066735822122040317fe2901ddfe935362f37b4ee322e22e70b3c4cdd00c78781f231230ad36864736f6c634300081b0033",
  "linkReferences": {},
  "deployedLinkReferences": {}
}