{
  "_format": "hh-sol-artifact-1",
  "contractName": "ERC20VaultToken",
  "sourceName": "contracts/tokenization/templates/ERC20VaultToken.sol",
  "abi": [
    {
      "inputs": [
        {
          "internalType": "string",
          "name": "_name",
          "type": "string"
        },
        {
          "internalType": "string",
          "name": "_symbol",
          "type": "string"
        },
        {
          "internalType": "address",
          "name": "_asset",
          "type": "address"
        },
        {
          "components": [
            {
              "internalType": "uint256",
              "name": "depositFeeBasisPoints",
              "type": "uint256"
            },
            {
              "internalType": "uint256",
              "name": "withdrawalFeeBasisPoints",
              "type": "uint256"
            },
            {
              "internalType": "uint256",
              "name": "performanceFeeBasisPoints",
              "type": "uint256"
            }
          ],
          "internalType": "struct ERC20VaultToken.FeeConfig",
          "name": "_feeConfig",
          "type": "tuple"
        },
        {
          "internalType": "address",
          "name": "_owner",
          "type": "address"
        }
      ],
      "stateMutability": "nonpayable",
      "type": "constructor"
    },
    {
      "anonymous": false,
      "inputs": [
        {
          "indexed": true,
          "internalType": "address",
          "name": "owner",
          "type": "address"
        },
        {
          "indexed": true,
          "internalType": "address",
          "name": "spender",
          "type": "address"
        },
        {
          "indexed": false,
          "internalType": "uint256",
          "name": "value",
          "type": "uint256"
        }
      ],
      "name": "Approval",
      "type": "event"
    },
    {
      "anonymous": false,
      "inputs": [
        {
          "indexed": true,
          "internalType": "address",
          "name": "sender",
          "type": "address"
        },
        {
          "indexed": true,
          "internalType": "address",
          "name": "owner",
          "type": "address"
        },
        {
          "indexed": false,
          "internalType": "uint256",
          "name": "assets",
          "type": "uint256"
        },
        {
          "indexed": false,
          "internalType": "uint256",
          "name": "shares",
          "type": "uint256"
        }
      ],
      "name": "Deposit",
      "type": "event"
    },
    {
      "anonymous": false,
      "inputs": [
        {
          "indexed": false,
          "internalType": "address",
          "name": "newFeeRecipient",
          "type": "address"
        }
      ],
      "name": "FeeRecipientUpdated",
      "type": "event"
    },
    {
      "anonymous": false,
      "inputs": [
        {
          "indexed": false,
          "internalType": "uint256",
          "name": "depositFeeBasisPoints",
          "type": "uint256"
        },
        {
          "indexed": false,
          "internalType": "uint256",
          "name": "withdrawalFeeBasisPoints",
          "type": "uint256"
        },
        {
          "indexed": false,
          "internalType": "uint256",
          "name": "performanceFeeBasisPoints",
          "type": "uint256"
        },
        {
          "indexed": false,
          "internalType": "address",
          "name": "feeRecipient",
          "type": "address"
        }
      ],
      "name": "FeesUpdated",
      "type": "event"
    },
    {
      "anonymous": false,
      "inputs": [
        {
          "indexed": false,
          "internalType": "uint256",
          "name": "totalAssets",
          "type": "uint256"
        },
        {
          "indexed": false,
          "internalType": "uint256",
          "name": "profit",
          "type": "uint256"
        },
        {
          "indexed": false,
          "internalType": "uint256",
          "name": "fee",
          "type": "uint256"
        }
      ],
      "name": "Harvest",
      "type": "event"
    },
    {
      "anonymous": false,
      "inputs": [
        {
          "indexed": true,
          "internalType": "address",
          "name": "previousOwner",
          "type": "address"
        },
        {
          "indexed": true,
          "internalType": "address",
          "name": "newOwner",
          "type": "address"
        }
      ],
      "name": "OwnershipTransferred",
      "type": "event"
    },
    {
      "anonymous": false,
      "inputs": [
        {
          "indexed": true,
          "internalType": "address",
          "name": "from",
          "type": "address"
        },
        {
          "indexed": true,
          "internalType": "address",
          "name": "to",
          "type": "address"
        },
        {
          "indexed": false,
          "internalType": "uint256",
          "name": "value",
          "type": "uint256"
        }
      ],
      "name": "Transfer",
      "type": "event"
    },
    {
      "anonymous": false,
      "inputs": [
        {
          "indexed": true,
          "internalType": "address",
          "name": "sender",
          "type": "address"
        },
        {
          "indexed": true,
          "internalType": "address",
          "name": "receiver",
          "type": "address"
        },
        {
          "indexed": true,
          "internalType": "address",
          "name": "owner",
          "type": "address"
        },
        {
          "indexed": false,
          "internalType": "uint256",
          "name": "assets",
          "type": "uint256"
        },
        {
          "indexed": false,
          "internalType": "uint256",
          "name": "shares",
          "type": "uint256"
        }
      ],
      "name": "Withdraw",
      "type": "event"
    },
    {
      "inputs": [],
      "name": "MAX_FEE",
      "outputs": [
        {
          "internalType": "uint256",
          "name": "",
          "type": "uint256"
        }
      ],
      "stateMutability": "view",
      "type": "function"
    },
    {
      "inputs": [
        {
          "internalType": "address",
          "name": "owner",
          "type": "address"
        },
        {
          "internalType": "address",
          "name": "spender",
          "type": "address"
        }
      ],
      "name": "allowance",
      "outputs": [
        {
          "internalType": "uint256",
          "name": "",
          "type": "uint256"
        }
      ],
      "stateMutability": "view",
      "type": "function"
    },
    {
      "inputs": [
        {
          "internalType": "address",
          "name": "spender",
          "type": "address"
        },
        {
          "internalType": "uint256",
          "name": "amount",
          "type": "uint256"
        }
      ],
      "name": "approve",
      "outputs": [
        {
          "internalType": "bool",
          "name": "",
          "type": "bool"
        }
      ],
      "stateMutability": "nonpayable",
      "type": "function"
    },
    {
      "inputs": [],
      "name": "asset",
      "outputs": [
        {
          "internalType": "contract IERC20",
          "name": "",
          "type": "address"
        }
      ],
      "stateMutability": "view",
      "type": "function"
    },
    {
      "inputs": [
        {
          "internalType": "address",
          "name": "account",
          "type": "address"
        }
      ],
      "name": "balanceOf",
      "outputs": [
        {
          "internalType": "uint256",
          "name": "",
          "type": "uint256"
        }
      ],
      "stateMutability": "view",
      "type": "function"
    },
    {
      "inputs": [
        {
          "internalType": "uint256",
          "name": "shares",
          "type": "uint256"
        }
      ],
      "name": "convertToAssets",
      "outputs": [
        {
          "internalType": "uint256",
          "name": "",
          "type": "uint256"
        }
      ],
      "stateMutability": "view",
      "type": "function"
    },
    {
      "inputs": [
        {
          "internalType": "uint256",
          "name": "assets",
          "type": "uint256"
        }
      ],
      "name": "convertToShares",
      "outputs": [
        {
          "internalType": "uint256",
          "name": "",
          "type": "uint256"
        }
      ],
      "stateMutability": "view",
      "type": "function"
    },
    {
      "inputs": [],
      "name": "decimals",
      "outputs": [
        {
          "internalType": "uint8",
          "name": "",
          "type": "uint8"
        }
      ],
      "stateMutability": "view",
      "type": "function"
    },
    {
      "inputs": [
        {
          "internalType": "address",
          "name": "spender",
          "type": "address"
        },
        {
          "internalType": "uint256",
          "name": "subtractedValue",
          "type": "uint256"
        }
      ],
      "name": "decreaseAllowance",
      "outputs": [
        {
          "internalType": "bool",
          "name": "",
          "type": "bool"
        }
      ],
      "stateMutability": "nonpayable",
      "type": "function"
    },
    {
      "inputs": [
        {
          "internalType": "uint256",
          "name": "assets",
          "type": "uint256"
        },
        {
          "internalType": "address",
          "name": "receiver",
          "type": "address"
        }
      ],
      "name": "deposit",
      "outputs": [
        {
          "internalType": "uint256",
          "name": "shares",
          "type": "uint256"
        }
      ],
      "stateMutability": "nonpayable",
      "type": "function"
    },
    {
      "inputs": [],
      "name": "feeConfig",
      "outputs": [
        {
          "internalType": "uint256",
          "name": "depositFeeBasisPoints",
          "type": "uint256"
        },
        {
          "internalType": "uint256",
          "name": "withdrawalFeeBasisPoints",
          "type": "uint256"
        },
        {
          "internalType": "uint256",
          "name": "performanceFeeBasisPoints",
          "type": "uint256"
        }
      ],
      "stateMutability": "view",
      "type": "function"
    },
    {
      "inputs": [],
      "name": "feeRecipient",
      "outputs": [
        {
          "internalType": "address",
          "name": "",
          "type": "address"
        }
      ],
      "stateMutability": "view",
      "type": "function"
    },
    {
      "inputs": [],
      "name": "harvest",
      "outputs": [],
      "stateMutability": "nonpayable",
      "type": "function"
    },
    {
      "inputs": [],
      "name": "highWaterMark",
      "outputs": [
        {
          "internalType": "uint256",
          "name": "",
          "type": "uint256"
        }
      ],
      "stateMutability": "view",
      "type": "function"
    },
    {
      "inputs": [
        {
          "internalType": "address",
          "name": "spender",
          "type": "address"
        },
        {
          "internalType": "uint256",
          "name": "addedValue",
          "type": "uint256"
        }
      ],
      "name": "increaseAllowance",
      "outputs": [
        {
          "internalType": "bool",
          "name": "",
          "type": "bool"
        }
      ],
      "stateMutability": "nonpayable",
      "type": "function"
    },
    {
      "inputs": [],
      "name": "lastHarvest",
      "outputs": [
        {
          "internalType": "uint256",
          "name": "",
          "type": "uint256"
        }
      ],
      "stateMutability": "view",
      "type": "function"
    },
    {
      "inputs": [
        {
          "internalType": "uint256",
          "name": "shares",
          "type": "uint256"
        },
        {
          "internalType": "address",
          "name": "receiver",
          "type": "address"
        }
      ],
      "name": "mint",
      "outputs": [
        {
          "internalType": "uint256",
          "name": "assets",
          "type": "uint256"
        }
      ],
      "stateMutability": "nonpayable",
      "type": "function"
    },
    {
      "inputs": [],
      "name": "name",
      "outputs": [
        {
          "internalType": "string",
          "name": "",
          "type": "string"
        }
      ],
      "stateMutability": "view",
      "type": "function"
    },
    {
      "inputs": [],
      "name": "owner",
      "outputs": [
        {
          "internalType": "address",
          "name": "",
          "type": "address"
        }
      ],
      "stateMutability": "view",
      "type": "function"
    },
    {
      "inputs": [
        {
          "internalType": "uint256",
          "name": "assets",
          "type": "uint256"
        }
      ],
      "name": "previewDeposit",
      "outputs": [
        {
          "internalType": "uint256",
          "name": "",
          "type": "uint256"
        }
      ],
      "stateMutability": "view",
      "type": "function"
    },
    {
      "inputs": [
        {
          "internalType": "uint256",
          "name": "shares",
          "type": "uint256"
        }
      ],
      "name": "previewRedeem",
      "outputs": [
        {
          "internalType": "uint256",
          "name": "",
          "type": "uint256"
        }
      ],
      "stateMutability": "view",
      "type": "function"
    },
    {
      "inputs": [
        {
          "internalType": "uint256",
          "name": "shares",
          "type": "uint256"
        },
        {
          "internalType": "address",
          "name": "receiver",
          "type": "address"
        },
        {
          "internalType": "address",
          "name": "owner",
          "type": "address"
        }
      ],
      "name": "redeem",
      "outputs": [
        {
          "internalType": "uint256",
          "name": "assets",
          "type": "uint256"
        }
      ],
      "stateMutability": "nonpayable",
      "type": "function"
    },
    {
      "inputs": [],
      "name": "renounceOwnership",
      "outputs": [],
      "stateMutability": "nonpayable",
      "type": "function"
    },
    {
      "inputs": [],
      "name": "symbol",
      "outputs": [
        {
          "internalType": "string",
          "name": "",
          "type": "string"
        }
      ],
      "stateMutability": "view",
      "type": "function"
    },
    {
      "inputs": [],
      "name": "totalAssets",
      "outputs": [
        {
          "internalType": "uint256",
          "name": "",
          "type": "uint256"
        }
      ],
      "stateMutability": "view",
      "type": "function"
    },
    {
      "inputs": [],
      "name": "totalAssetsStored",
      "outputs": [
        {
          "internalType": "uint256",
          "name": "",
          "type": "uint256"
        }
      ],
      "stateMutability": "view",
      "type": "function"
    },
    {
      "inputs": [],
      "name": "totalSupply",
      "outputs": [
        {
          "internalType": "uint256",
          "name": "",
          "type": "uint256"
        }
      ],
      "stateMutability": "view",
      "type": "function"
    },
    {
      "inputs": [
        {
          "internalType": "address",
          "name": "to",
          "type": "address"
        },
        {
          "internalType": "uint256",
          "name": "amount",
          "type": "uint256"
        }
      ],
      "name": "transfer",
      "outputs": [
        {
          "internalType": "bool",
          "name": "",
          "type": "bool"
        }
      ],
      "stateMutability": "nonpayable",
      "type": "function"
    },
    {
      "inputs": [
        {
          "internalType": "address",
          "name": "from",
          "type": "address"
        },
        {
          "internalType": "address",
          "name": "to",
          "type": "address"
        },
        {
          "internalType": "uint256",
          "name": "amount",
          "type": "uint256"
        }
      ],
      "name": "transferFrom",
      "outputs": [
        {
          "internalType": "bool",
          "name": "",
          "type": "bool"
        }
      ],
      "stateMutability": "nonpayable",
      "type": "function"
    },
    {
      "inputs": [
        {
          "internalType": "address",
          "name": "newOwner",
          "type": "address"
        }
      ],
      "name": "transferOwnership",
      "outputs": [],
      "stateMutability": "nonpayable",
      "type": "function"
    },
    {
      "inputs": [
        {
          "internalType": "uint256",
          "name": "_depositFeeBasisPoints",
          "type": "uint256"
        },
        {
          "internalType": "uint256",
          "name": "_withdrawalFeeBasisPoints",
          "type": "uint256"
        },
        {
          "internalType": "uint256",
          "name": "_performanceFeeBasisPoints",
          "type": "uint256"
        },
        {
          "internalType": "address",
          "name": "_feeRecipient",
          "type": "address"
        }
      ],
      "name": "updateFees",
      "outputs": [],
      "stateMutability": "nonpayable",
      "type": "function"
    },
    {
      "inputs": [
        {
          "internalType": "uint256",
          "name": "assets",
          "type": "uint256"
        },
        {
          "internalType": "address",
          "name": "receiver",
          "type": "address"
        },
        {
          "internalType": "address",
          "name": "owner",
          "type": "address"
        }
      ],
      "name": "withdraw",
      "outputs": [
        {
          "internalType": "uint256",
          "name": "shares",
          "type": "uint256"
        }
      ],
      "stateMutability": "nonpayable",
      "type": "function"
    }
  ],
  "bytecode": "0x608060405234801561001057600080fd5b5060405161221838038061221883398101604081905261002f9161034d565b8484600361003d838261049c565b50600461004a828261049c565b50505061006361005e6101e860201b60201c565b6101ec565b60016006556001600160a01b0383166100c35760405162461bcd60e51b815260206004820152601560248201527f496e76616c69642061737365742061646472657373000000000000000000000060448201526064015b60405180910390fd5b6001600160a01b0381166101195760405162461bcd60e51b815260206004820152601560248201527f496e76616c6964206f776e65722061646472657373000000000000000000000060448201526064016100ba565b8151612710108015906101325750612710826020015111155b80156101445750612710826040015111155b6101805760405162461bcd60e51b815260206004820152600d60248201526c08ccacae640e8dede40d0d2ced609b1b60448201526064016100ba565b600780546001600160a01b038086166001600160a01b031992831617909255835160085560208401516009556040840151600a55600b80549284169290911691909117905542600c55670de0b6b3a7640000600d556101de816101ec565b505050505061055a565b3390565b600580546001600160a01b038381166001600160a01b0319831681179093556040519116919082907f8be0079c531659141344cd1fd0a4f28419497f9722a3daafe3b4186f6b6457e090600090a35050565b634e487b7160e01b600052604160045260246000fd5b604051606081016001600160401b03811182821017156102765761027661023e565b60405290565b604051601f8201601f191681016001600160401b03811182821017156102a4576102a461023e565b604052919050565b600082601f8301126102bd57600080fd5b81516001600160401b038111156102d6576102d661023e565b6102e9601f8201601f191660200161027c565b8181528460208386010111156102fe57600080fd5b60005b8281101561031d57602081860181015183830182015201610301565b506000918101602001919091529392505050565b80516001600160a01b038116811461034857600080fd5b919050565b600080600080600085870360e081121561036657600080fd5b86516001600160401b0381111561037c57600080fd5b61038889828a016102ac565b602089015190975090506001600160401b038111156103a657600080fd5b6103b289828a016102ac565b9550506103c160408801610331565b93506060605f19820112156103d557600080fd5b506103de610254565b606087015181526080870151602082015260a08701516040820152915061040760c08701610331565b90509295509295909350565b600181811c9082168061042757607f821691505b60208210810361044757634e487b7160e01b600052602260045260246000fd5b50919050565b601f82111561049757806000526020600020601f840160051c810160208510156104745750805b601f840160051c820191505b818110156104945760008155600101610480565b50505b505050565b81516001600160401b038111156104b5576104b561023e565b6104c9816104c38454610413565b8461044d565b6020601f8211600181146104fd57600083156104e55750848201515b600019600385901b1c1916600184901b178455610494565b600084815260208120601f198516915b8281101561052d578785015182556020948501946001909201910161050d565b508482101561054b5786840151600019600387901b60f8161c191681555b50505050600190811b01905550565b611caf806105696000396000f3fe608060405234801561001057600080fd5b50600436106101f05760003560e01c8063715018a61161010f578063ba087652116100a2578063e0c636a711610071578063e0c636a714610423578063ef8b30f71461042c578063f1a392da1461043f578063f2fde38b1461044857600080fd5b8063ba087652146103e1578063bc063e1a146103f4578063c6e6f592146103fd578063dd62ed3e1461041057600080fd5b8063a457c2d7116100de578063a457c2d714610395578063a9059cbb146103a8578063afa7bdf8146103bb578063b460af94146103ce57600080fd5b8063715018a6146103615780638da5cb5b1461036957806394bf804d1461037a57806395d89b411461038d57600080fd5b8063313ce56711610187578063469048401161015657806346904840146102ff5780634cdad506146103125780636e553f651461032557806370a082311461033857600080fd5b8063313ce567146102a857806338d52e0f146102b757806339509351146102e25780634641257d146102f557600080fd5b806318160ddd116101c357806318160ddd146102575780631e5eb1d01461025f5780631e8410da1461028c57806323b872dd1461029557600080fd5b806301e1d114146101f557806306fdde031461020c57806307a2d13a14610221578063095ea7b314610234575b600080fd5b600e545b6040519081526020015b60405180910390f35b61021461045b565b60405161020391906119db565b6101f961022f366004611a0e565b6104ed565b610247610242366004611a43565b610523565b6040519015158152602001610203565b6002546101f9565b600854600954600a5461027192919083565b60408051938452602084019290925290820152606001610203565b6101f9600d5481565b6102476102a3366004611a6d565b61053d565b60405160128152602001610203565b6007546102ca906001600160a01b031681565b6040516001600160a01b039091168152602001610203565b6102476102f0366004611a43565b610561565b6102fd610583565b005b600b546102ca906001600160a01b031681565b6101f9610320366004611a0e565b6106e4565b6101f9610333366004611aaa565b61070f565b6101f9610346366004611ad6565b6001600160a01b031660009081526020819052604090205490565b6102fd610849565b6005546001600160a01b03166102ca565b6101f9610388366004611aaa565b61085b565b6102146109cd565b6102476103a3366004611a43565b6109dc565b6102476103b6366004611a43565b610a57565b6102fd6103c9366004611af1565b610a65565b6101f96103dc366004611b30565b610c24565b6101f96103ef366004611b30565b610d67565b6101f961271081565b6101f961040b366004611a0e565b610e8d565b6101f961041e366004611b6c565b610eb6565b6101f9600e5481565b6101f961043a366004611a0e565b610ee1565b6101f9600c5481565b6102fd610456366004611ad6565b610f08565b60606003805461046a90611b96565b80601f016020809104026020016040519081016040528092919081815260200182805461049690611b96565b80156104e35780601f106104b8576101008083540402835291602001916104e3565b820191906000526020600020905b8154815290600101906020018083116104c657829003601f168201915b5050505050905090565b6000806104f960025490565b9050801561051a5761051561050d600e5490565b849083610f81565b61051c565b825b9392505050565b60003361053181858561106b565b60019150505b92915050565b60003361054b85828561118f565b610556858585611209565b506001949350505050565b6000336105318185856105748383610eb6565b61057e9190611be6565b61106b565b61058b6113ad565b6007546040516370a0823160e01b81523060048201526000916001600160a01b0316906370a0823190602401602060405180830381865afa1580156105d4573d6000803e3d6000fd5b505050506040513d601f19601f820116820180604052508101906105f89190611bf9565b90506000600e54821161060c576000610619565b600e546106199083611c12565b905080156106d057600061063282600860020154611406565b9050801561066457600b54600754610657916001600160a01b03918216911683611415565b6106618184611c12565b92505b600d839055600e54600090841161067c576000610689565b600e546106899085611c12565b60408051868152602081018390529081018490529091507f4ec2d4038813a7f233af1d6d09519189db3ed5bc5b823bf72f6d3144574721de9060600160405180910390a150505b5042600c55600e556106e26001600655565b565b6000806106f060025490565b9050801561051a57610515610704600e5490565b61050d906001611be6565b60006107196113ad565b600083116107615760405162461bcd60e51b815260206004820152601060248201526f043616e6e6f74206465706f73697420360841b60448201526064015b60405180910390fd5b61076a83610ee1565b90506000610777826104ed565b6107819085611c12565b60075490915061079c906001600160a01b031633308761147d565b6107a683836114b5565b83600e60008282546107b89190611be6565b909155505080156107f857600b546007546107e0916001600160a01b03918216911683611415565b80600e60008282546107f29190611c12565b90915550505b60408051858152602081018490526001600160a01b0385169133917fdcbc1c05240f31ff3ad067ef1ee35ce4997762752e3a095284754544f4c709d7910160405180910390a3506105376001600655565b610851611574565b6106e260006115ce565b60006108656113ad565b600083116108ac5760405162461bcd60e51b815260206004820152601460248201527343616e6e6f74206d696e7420302073686172657360601b6044820152606401610758565b60006108b760025490565b905080156108e3576108de6108cb600e5490565b6108d6906001611be6565b859083610f81565b6108e5565b835b915060006108f883600860000154611406565b90506109048184611be6565b60075490935061091f906001600160a01b031633308661147d565b61092984866114b5565b82600e600082825461093b9190611be6565b9091555050801561097b57600b54600754610963916001600160a01b03918216911683611415565b80600e60008282546109759190611c12565b90915550505b60408051848152602081018790526001600160a01b0386169133917fdcbc1c05240f31ff3ad067ef1ee35ce4997762752e3a095284754544f4c709d7910160405180910390a350506105376001600655565b60606004805461046a90611b96565b600033816109ea8286610eb6565b905083811015610a4a5760405162461bcd60e51b815260206004820152602560248201527f45524332303a2064656372656173656420616c6c6f77616e63652062656c6f77604482015264207a65726f60d81b6064820152608401610758565b610556828686840361106b565b600033610531818585611209565b610a6d611574565b6101f4841115610ab65760405162461bcd60e51b8152602060048201526014602482015273088cae0dee6d2e840cccaca40e8dede40d0d2ced60631b6044820152606401610758565b6101f4831115610b085760405162461bcd60e51b815260206004820152601760248201527f5769746864726177616c2066656520746f6f20686967680000000000000000006044820152606401610758565b6107d0821115610b5a5760405162461bcd60e51b815260206004820152601860248201527f506572666f726d616e63652066656520746f6f206869676800000000000000006044820152606401610758565b6001600160a01b038116610ba85760405162461bcd60e51b8152602060048201526015602482015274125b9d985b1a5908199959481c9958da5c1a595b9d605a1b6044820152606401610758565b60088490556009839055600a829055600b80546001600160a01b0319166001600160a01b038316908117909155604080518681526020810186905290810184905260608101919091527fc1e43cd0793a3a5a5075b29b899a2513496c3613510d594114924476698fc41c9060800160405180910390a150505050565b6000610c2e6113ad565b60008411610c725760405162461bcd60e51b8152602060048201526011602482015270043616e6e6f74207769746864726177203607c1b6044820152606401610758565b610c7b84610e8d565b90506000610c8e85600860010154611406565b9050336001600160a01b03841614610cab57610cab83338461118f565b610cb58383611620565b610cd684610cc38388611c12565b6007546001600160a01b03169190611415565b8015610cf957600b54600754610cf9916001600160a01b03918216911683611415565b84600e6000828254610d0b9190611c12565b909155505060408051868152602081018490526001600160a01b03808616929087169133917ffbde797d201c681b91056529119e0b02407c7bb96a4a2c75c01fc9667232c8db91015b60405180910390a45061051c6001600655565b6000610d716113ad565b60008411610dba5760405162461bcd60e51b815260206004820152601660248201527543616e6e6f742072656465656d20302073686172657360501b6044820152606401610758565b336001600160a01b03831614610dd557610dd582338661118f565b610dde846104ed565b90506000610df182600860010154611406565b9050610dfd8386611620565b610e0b84610cc38385611c12565b8015610e2e57600b54600754610e2e916001600160a01b03918216911683611415565b81600e6000828254610e409190611c12565b909155505060408051838152602081018790526001600160a01b03808616929087169133917ffbde797d201c681b91056529119e0b02407c7bb96a4a2c75c01fc9667232c8db9101610d54565b600080610e9960025490565b9050801561051a5761051581610eae600e5490565b859190610f81565b6001600160a01b03918216600090815260016020908152604080832093909416825291909152205490565b600080610eed83610e8d565b9050610efe81600860000154611406565b61051c9082611c12565b610f10611574565b6001600160a01b038116610f755760405162461bcd60e51b815260206004820152602660248201527f4f776e61626c653a206e6577206f776e657220697320746865207a65726f206160448201526564647265737360d01b6064820152608401610758565b610f7e816115ce565b50565b6000808060001985870985870292508281108382030391505080600003610fbb57838281610fb157610fb1611c25565b049250505061051c565b8084116110025760405162461bcd60e51b81526020600482015260156024820152744d6174683a206d756c446976206f766572666c6f7760581b6044820152606401610758565b60008486880960026001871981018816978890046003810283188082028403028082028403028082028403028082028403028082028403029081029092039091026000889003889004909101858311909403939093029303949094049190911702949350505050565b6001600160a01b0383166110cd5760405162461bcd60e51b8152602060048201526024808201527f45524332303a20617070726f76652066726f6d20746865207a65726f206164646044820152637265737360e01b6064820152608401610758565b6001600160a01b03821661112e5760405162461bcd60e51b815260206004820152602260248201527f45524332303a20617070726f766520746f20746865207a65726f206164647265604482015261737360f01b6064820152608401610758565b6001600160a01b0383811660008181526001602090815260408083209487168084529482529182902085905590518481527f8c5be1e5ebec7d5bd14f71427d1e84f3dd0314c0f7b2291e5b200ac8c7c3b925910160405180910390a3505050565b600061119b8484610eb6565b9050600019811461120357818110156111f65760405162461bcd60e51b815260206004820152601d60248201527f45524332303a20696e73756666696369656e7420616c6c6f77616e63650000006044820152606401610758565b611203848484840361106b565b50505050565b6001600160a01b03831661126d5760405162461bcd60e51b815260206004820152602560248201527f45524332303a207472616e736665722066726f6d20746865207a65726f206164604482015264647265737360d81b6064820152608401610758565b6001600160a01b0382166112cf5760405162461bcd60e51b815260206004820152602360248201527f45524332303a207472616e7366657220746f20746865207a65726f206164647260448201526265737360e81b6064820152608401610758565b6001600160a01b038316600090815260208190526040902054818110156113475760405162461bcd60e51b815260206004820152602660248201527f45524332303a207472616e7366657220616d6f756e7420657863656564732062604482015265616c616e636560d01b6064820152608401610758565b6001600160a01b03848116600081815260208181526040808320878703905593871680835291849020805487019055925185815290927fddf252ad1be2c89b69c2b068fc378daa952ba7f163c4a11628f55a4df523b3ef910160405180910390a3611203565b6002600654036113ff5760405162461bcd60e51b815260206004820152601f60248201527f5265656e7472616e637947756172643a207265656e7472616e742063616c6c006044820152606401610758565b6002600655565b600061051c8383612710610f81565b6040516001600160a01b03831660248201526044810182905261147890849063a9059cbb60e01b906064015b60408051601f198184030181529190526020810180516001600160e01b03166001600160e01b031990931692909217909152611752565b505050565b6040516001600160a01b03808516602483015283166044820152606481018290526112039085906323b872dd60e01b90608401611441565b6001600160a01b03821661150b5760405162461bcd60e51b815260206004820152601f60248201527f45524332303a206d696e7420746f20746865207a65726f2061646472657373006044820152606401610758565b806002600082825461151d9190611be6565b90915550506001600160a01b038216600081815260208181526040808320805486019055518481527fddf252ad1be2c89b69c2b068fc378daa952ba7f163c4a11628f55a4df523b3ef910160405180910390a35050565b6005546001600160a01b031633146106e25760405162461bcd60e51b815260206004820181905260248201527f4f776e61626c653a2063616c6c6572206973206e6f7420746865206f776e65726044820152606401610758565b600580546001600160a01b038381166001600160a01b0319831681179093556040519116919082907f8be0079c531659141344cd1fd0a4f28419497f9722a3daafe3b4186f6b6457e090600090a35050565b6001600160a01b0382166116805760405162461bcd60e51b815260206004820152602160248201527f45524332303a206275726e2066726f6d20746865207a65726f206164647265736044820152607360f81b6064820152608401610758565b6001600160a01b038216600090815260208190526040902054818110156116f45760405162461bcd60e51b815260206004820152602260248201527f45524332303a206275726e20616d6f756e7420657863656564732062616c616e604482015261636560f01b6064820152608401610758565b6001600160a01b0383166000818152602081815260408083208686039055600280548790039055518581529192917fddf252ad1be2c89b69c2b068fc378daa952ba7f163c4a11628f55a4df523b3ef910160405180910390a3505050565b60006117a7826040518060400160405280602081526020017f5361666545524332303a206c6f772d6c6576656c2063616c6c206661696c6564815250856001600160a01b03166118279092919063ffffffff16565b90508051600014806117c85750808060200190518101906117c89190611c3b565b6114785760405162461bcd60e51b815260206004820152602a60248201527f5361666545524332303a204552433230206f7065726174696f6e20646964206e6044820152691bdd081cdd58d8d9595960b21b6064820152608401610758565b6060611836848460008561183e565b949350505050565b60608247101561189f5760405162461bcd60e51b815260206004820152602660248201527f416464726573733a20696e73756666696369656e742062616c616e636520666f6044820152651c8818d85b1b60d21b6064820152608401610758565b600080866001600160a01b031685876040516118bb9190611c5d565b60006040518083038185875af1925050503d80600081146118f8576040519150601f19603f3d011682016040523d82523d6000602084013e6118fd565b606091505b509150915061190e87838387611919565b979650505050505050565b60608315611988578251600003611981576001600160a01b0385163b6119815760405162461bcd60e51b815260206004820152601d60248201527f416464726573733a2063616c6c20746f206e6f6e2d636f6e74726163740000006044820152606401610758565b5081611836565b611836838381511561199d5781518083602001fd5b8060405162461bcd60e51b815260040161075891906119db565b60005b838110156119d25781810151838201526020016119ba565b50506000910152565b60208152600082518060208401526119fa8160408501602087016119b7565b601f01601f19169190910160400192915050565b600060208284031215611a2057600080fd5b5035919050565b80356001600160a01b0381168114611a3e57600080fd5b919050565b60008060408385031215611a5657600080fd5b611a5f83611a27565b946020939093013593505050565b600080600060608486031215611a8257600080fd5b611a8b84611a27565b9250611a9960208501611a27565b929592945050506040919091013590565b60008060408385031215611abd57600080fd5b82359150611acd60208401611a27565b90509250929050565b600060208284031215611ae857600080fd5b61051c82611a27565b60008060008060808587031215611b0757600080fd5b843593506020850135925060408501359150611b2560608601611a27565b905092959194509250565b600080600060608486031215611b4557600080fd5b83359250611b5560208501611a27565b9150611b6360408501611a27565b90509250925092565b60008060408385031215611b7f57600080fd5b611b8883611a27565b9150611acd60208401611a27565b600181811c90821680611baa57607f821691505b602082108103611bca57634e487b7160e01b600052602260045260246000fd5b50919050565b634e487b7160e01b600052601160045260246000fd5b8082018082111561053757610537611bd0565b600060208284031215611c0b57600080fd5b5051919050565b8181038181111561053757610537611bd0565b634e487b7160e01b600052601260045260246000fd5b600060208284031215611c4d57600080fd5b8151801515811461051c57600080fd5b60008251611c6f8184602087016119b7565b919091019291505056fea264697066735822122027297283ccb2fbaa6b5092d4e9249ef17cff24f13c45277c23ca4c63470ac42f64736f6c634300081b0033",
  "linkReferences": {},
  "deployedLinkReferences": {}
}