{
  "_format": "hh-sol-artifact-1",
  "contractName": "LSTBTCVault",
  "sourceName": "contracts/vaults/LSTBTCVault.sol",
  "abi": [
    {
      "inputs": [
        {
          "internalType": "contract IERC20",
          "name": "_wbtc",
          "type": "address"
        },
        {
          "internalType": "address",
          "name": "_strategy",
          "type": "address"
        }
      ],
      "stateMutability": "nonpayable",
      "type": "constructor"
    },
    {
      "anonymous": false,
      "inputs": [
        {
          "indexed": true,
          "internalType": "address",
          "name": "owner",
          "type": "address"
        },
        {
          "indexed": true,
          "internalType": "address",
          "name": "spender",
          "type": "address"
        },
        {
          "indexed": false,
          "internalType": "uint256",
          "name": "value",
          "type": "uint256"
        }
      ],
      "name": "Approval",
      "type": "event"
    },
    {
      "anonymous": false,
      "inputs": [
        {
          "indexed": true,
          "internalType": "uint256",
          "name": "step",
          "type": "uint256"
        },
        {
          "indexed": false,
          "internalType": "string",
          "name": "message",
          "type": "string"
        },
        {
          "indexed": false,
          "internalType": "uint256",
          "name": "value1",
          "type": "uint256"
        },
        {
          "indexed": false,
          "internalType": "uint256",
          "name": "value2",
          "type": "uint256"
        }
      ],
      "name": "DebugLog",
      "type": "event"
    },
    {
      "anonymous": false,
      "inputs": [
        {
          "indexed": true,
          "internalType": "address",
          "name": "sender",
          "type": "address"
        },
        {
          "indexed": true,
          "internalType": "address",
          "name": "owner",
          "type": "address"
        },
        {
          "indexed": false,
          "internalType": "uint256",
          "name": "assets",
          "type": "uint256"
        },
        {
          "indexed": false,
          "internalType": "uint256",
          "name": "shares",
          "type": "uint256"
        }
      ],
      "name": "Deposit",
      "type": "event"
    },
    {
      "anonymous": false,
      "inputs": [
        {
          "indexed": true,
          "internalType": "address",
          "name": "user",
          "type": "address"
        },
        {
          "indexed": false,
          "internalType": "uint256",
          "name": "amount",
          "type": "uint256"
        }
      ],
      "name": "EmergencyWithdraw",
      "type": "event"
    },
    {
      "anonymous": false,
      "inputs": [
        {
          "indexed": true,
          "internalType": "address",
          "name": "previousOwner",
          "type": "address"
        },
        {
          "indexed": true,
          "internalType": "address",
          "name": "newOwner",
          "type": "address"
        }
      ],
      "name": "OwnershipTransferred",
      "type": "event"
    },
    {
      "anonymous": false,
      "inputs": [
        {
          "indexed": false,
          "internalType": "address",
          "name": "account",
          "type": "address"
        }
      ],
      "name": "Paused",
      "type": "event"
    },
    {
      "anonymous": false,
      "inputs": [
        {
          "indexed": true,
          "internalType": "address",
          "name": "token",
          "type": "address"
        },
        {
          "indexed": true,
          "internalType": "address",
          "name": "to",
          "type": "address"
        },
        {
          "indexed": false,
          "internalType": "uint256",
          "name": "amount",
          "type": "uint256"
        }
      ],
      "name": "Recovered",
      "type": "event"
    },
    {
      "anonymous": false,
      "inputs": [
        {
          "indexed": true,
          "internalType": "address",
          "name": "newStrategy",
          "type": "address"
        }
      ],
      "name": "StrategyUpdated",
      "type": "event"
    },
    {
      "anonymous": false,
      "inputs": [
        {
          "indexed": true,
          "internalType": "address",
          "name": "from",
          "type": "address"
        },
        {
          "indexed": true,
          "internalType": "address",
          "name": "to",
          "type": "address"
        },
        {
          "indexed": false,
          "internalType": "uint256",
          "name": "value",
          "type": "uint256"
        }
      ],
      "name": "Transfer",
      "type": "event"
    },
    {
      "anonymous": false,
      "inputs": [
        {
          "indexed": false,
          "internalType": "address",
          "name": "account",
          "type": "address"
        }
      ],
      "name": "Unpaused",
      "type": "event"
    },
    {
      "anonymous": false,
      "inputs": [
        {
          "indexed": true,
          "internalType": "address",
          "name": "sender",
          "type": "address"
        },
        {
          "indexed": true,
          "internalType": "address",
          "name": "receiver",
          "type": "address"
        },
        {
          "indexed": true,
          "internalType": "address",
          "name": "owner",
          "type": "address"
        },
        {
          "indexed": false,
          "internalType": "uint256",
          "name": "assets",
          "type": "uint256"
        },
        {
          "indexed": false,
          "internalType": "uint256",
          "name": "shares",
          "type": "uint256"
        }
      ],
      "name": "Withdraw",
      "type": "event"
    },
    {
      "inputs": [
        {
          "internalType": "address",
          "name": "owner",
          "type": "address"
        },
        {
          "internalType": "address",
          "name": "spender",
          "type": "address"
        }
      ],
      "name": "allowance",
      "outputs": [
        {
          "internalType": "uint256",
          "name": "",
          "type": "uint256"
        }
      ],
      "stateMutability": "view",
      "type": "function"
    },
    {
      "inputs": [
        {
          "internalType": "address",
          "name": "spender",
          "type": "address"
        },
        {
          "internalType": "uint256",
          "name": "amount",
          "type": "uint256"
        }
      ],
      "name": "approve",
      "outputs": [
        {
          "internalType": "bool",
          "name": "",
          "type": "bool"
        }
      ],
      "stateMutability": "nonpayable",
      "type": "function"
    },
    {
      "inputs": [],
      "name": "asset",
      "outputs": [
        {
          "internalType": "address",
          "name": "",
          "type": "address"
        }
      ],
      "stateMutability": "view",
      "type": "function"
    },
    {
      "inputs": [
        {
          "internalType": "address",
          "name": "account",
          "type": "address"
        }
      ],
      "name": "balanceOf",
      "outputs": [
        {
          "internalType": "uint256",
          "name": "",
          "type": "uint256"
        }
      ],
      "stateMutability": "view",
      "type": "function"
    },
    {
      "inputs": [
        {
          "internalType": "uint256",
          "name": "shares",
          "type": "uint256"
        }
      ],
      "name": "convertToAssets",
      "outputs": [
        {
          "internalType": "uint256",
          "name": "",
          "type": "uint256"
        }
      ],
      "stateMutability": "view",
      "type": "function"
    },
    {
      "inputs": [
        {
          "internalType": "uint256",
          "name": "assets",
          "type": "uint256"
        }
      ],
      "name": "convertToShares",
      "outputs": [
        {
          "internalType": "uint256",
          "name": "",
          "type": "uint256"
        }
      ],
      "stateMutability": "view",
      "type": "function"
    },
    {
      "inputs": [],
      "name": "decimals",
      "outputs": [
        {
          "internalType": "uint8",
          "name": "",
          "type": "uint8"
        }
      ],
      "stateMutability": "view",
      "type": "function"
    },
    {
      "inputs": [
        {
          "internalType": "address",
          "name": "spender",
          "type": "address"
        },
        {
          "internalType": "uint256",
          "name": "subtractedValue",
          "type": "uint256"
        }
      ],
      "name": "decreaseAllowance",
      "outputs": [
        {
          "internalType": "bool",
          "name": "",
          "type": "bool"
        }
      ],
      "stateMutability": "nonpayable",
      "type": "function"
    },
    {
      "inputs": [
        {
          "internalType": "uint256",
          "name": "assets",
          "type": "uint256"
        },
        {
          "internalType": "address",
          "name": "receiver",
          "type": "address"
        }
      ],
      "name": "deposit",
      "outputs": [
        {
          "internalType": "uint256",
          "name": "",
          "type": "uint256"
        }
      ],
      "stateMutability": "nonpayable",
      "type": "function"
    },
    {
      "inputs": [],
      "name": "emergencyWithdraw",
      "outputs": [],
      "stateMutability": "nonpayable",
      "type": "function"
    },
    {
      "inputs": [
        {
          "internalType": "address",
          "name": "spender",
          "type": "address"
        },
        {
          "internalType": "uint256",
          "name": "addedValue",
          "type": "uint256"
        }
      ],
      "name": "increaseAllowance",
      "outputs": [
        {
          "internalType": "bool",
          "name": "",
          "type": "bool"
        }
      ],
      "stateMutability": "nonpayable",
      "type": "function"
    },
    {
      "inputs": [
        {
          "internalType": "address",
          "name": "",
          "type": "address"
        }
      ],
      "name": "maxDeposit",
      "outputs": [
        {
          "internalType": "uint256",
          "name": "",
          "type": "uint256"
        }
      ],
      "stateMutability": "view",
      "type": "function"
    },
    {
      "inputs": [
        {
          "internalType": "address",
          "name": "",
          "type": "address"
        }
      ],
      "name": "maxMint",
      "outputs": [
        {
          "internalType": "uint256",
          "name": "",
          "type": "uint256"
        }
      ],
      "stateMutability": "view",
      "type": "function"
    },
    {
      "inputs": [
        {
          "internalType": "address",
          "name": "owner",
          "type": "address"
        }
      ],
      "name": "maxRedeem",
      "outputs": [
        {
          "internalType": "uint256",
          "name": "",
          "type": "uint256"
        }
      ],
      "stateMutability": "view",
      "type": "function"
    },
    {
      "inputs": [
        {
          "internalType": "address",
          "name": "owner",
          "type": "address"
        }
      ],
      "name": "maxWithdraw",
      "outputs": [
        {
          "internalType": "uint256",
          "name": "",
          "type": "uint256"
        }
      ],
      "stateMutability": "view",
      "type": "function"
    },
    {
      "inputs": [
        {
          "internalType": "uint256",
          "name": "shares",
          "type": "uint256"
        },
        {
          "internalType": "address",
          "name": "receiver",
          "type": "address"
        }
      ],
      "name": "mint",
      "outputs": [
        {
          "internalType": "uint256",
          "name": "",
          "type": "uint256"
        }
      ],
      "stateMutability": "nonpayable",
      "type": "function"
    },
    {
      "inputs": [],
      "name": "name",
      "outputs": [
        {
          "internalType": "string",
          "name": "",
          "type": "string"
        }
      ],
      "stateMutability": "view",
      "type": "function"
    },
    {
      "inputs": [],
      "name": "owner",
      "outputs": [
        {
          "internalType": "address",
          "name": "",
          "type": "address"
        }
      ],
      "stateMutability": "view",
      "type": "function"
    },
    {
      "inputs": [],
      "name": "pause",
      "outputs": [],
      "stateMutability": "nonpayable",
      "type": "function"
    },
    {
      "inputs": [],
      "name": "paused",
      "outputs": [
        {
          "internalType": "bool",
          "name": "",
          "type": "bool"
        }
      ],
      "stateMutability": "view",
      "type": "function"
    },
    {
      "inputs": [
        {
          "internalType": "uint256",
          "name": "assets",
          "type": "uint256"
        }
      ],
      "name": "previewDeposit",
      "outputs": [
        {
          "internalType": "uint256",
          "name": "",
          "type": "uint256"
        }
      ],
      "stateMutability": "view",
      "type": "function"
    },
    {
      "inputs": [
        {
          "internalType": "uint256",
          "name": "shares",
          "type": "uint256"
        }
      ],
      "name": "previewMint",
      "outputs": [
        {
          "internalType": "uint256",
          "name": "",
          "type": "uint256"
        }
      ],
      "stateMutability": "view",
      "type": "function"
    },
    {
      "inputs": [
        {
          "internalType": "uint256",
          "name": "shares",
          "type": "uint256"
        }
      ],
      "name": "previewRedeem",
      "outputs": [
        {
          "internalType": "uint256",
          "name": "",
          "type": "uint256"
        }
      ],
      "stateMutability": "view",
      "type": "function"
    },
    {
      "inputs": [
        {
          "internalType": "uint256",
          "name": "assets",
          "type": "uint256"
        }
      ],
      "name": "previewWithdraw",
      "outputs": [
        {
          "internalType": "uint256",
          "name": "",
          "type": "uint256"
        }
      ],
      "stateMutability": "view",
      "type": "function"
    },
    {
      "inputs": [
        {
          "internalType": "address",
          "name": "tokenAddress",
          "type": "address"
        },
        {
          "internalType": "address",
          "name": "to",
          "type": "address"
        },
        {
          "internalType": "uint256",
          "name": "amount",
          "type": "uint256"
        }
      ],
      "name": "recoverERC20",
      "outputs": [],
      "stateMutability": "nonpayable",
      "type": "function"
    },
    {
      "inputs": [
        {
          "internalType": "uint256",
          "name": "shares",
          "type": "uint256"
        },
        {
          "internalType": "address",
          "name": "receiver",
          "type": "address"
        },
        {
          "internalType": "address",
          "name": "owner",
          "type": "address"
        }
      ],
      "name": "redeem",
      "outputs": [
        {
          "internalType": "uint256",
          "name": "",
          "type": "uint256"
        }
      ],
      "stateMutability": "nonpayable",
      "type": "function"
    },
    {
      "inputs": [],
      "name": "renounceOwnership",
      "outputs": [],
      "stateMutability": "nonpayable",
      "type": "function"
    },
    {
      "inputs": [],
      "name": "strategy",
      "outputs": [
        {
          "internalType": "address",
          "name": "",
          "type": "address"
        }
      ],
      "stateMutability": "view",
      "type": "function"
    },
    {
      "inputs": [],
      "name": "symbol",
      "outputs": [
        {
          "internalType": "string",
          "name": "",
          "type": "string"
        }
      ],
      "stateMutability": "view",
      "type": "function"
    },
    {
      "inputs": [],
      "name": "totalAssets",
      "outputs": [
        {
          "internalType": "uint256",
          "name": "",
          "type": "uint256"
        }
      ],
      "stateMutability": "view",
      "type": "function"
    },
    {
      "inputs": [],
      "name": "totalSupply",
      "outputs": [
        {
          "internalType": "uint256",
          "name": "",
          "type": "uint256"
        }
      ],
      "stateMutability": "view",
      "type": "function"
    },
    {
      "inputs": [
        {
          "internalType": "address",
          "name": "to",
          "type": "address"
        },
        {
          "internalType": "uint256",
          "name": "amount",
          "type": "uint256"
        }
      ],
      "name": "transfer",
      "outputs": [
        {
          "internalType": "bool",
          "name": "",
          "type": "bool"
        }
      ],
      "stateMutability": "nonpayable",
      "type": "function"
    },
    {
      "inputs": [
        {
          "internalType": "address",
          "name": "from",
          "type": "address"
        },
        {
          "internalType": "address",
          "name": "to",
          "type": "address"
        },
        {
          "internalType": "uint256",
          "name": "amount",
          "type": "uint256"
        }
      ],
      "name": "transferFrom",
      "outputs": [
        {
          "internalType": "bool",
          "name": "",
          "type": "bool"
        }
      ],
      "stateMutability": "nonpayable",
      "type": "function"
    },
    {
      "inputs": [
        {
          "internalType": "address",
          "name": "newOwner",
          "type": "address"
        }
      ],
      "name": "transferOwnership",
      "outputs": [],
      "stateMutability": "nonpayable",
      "type": "function"
    },
    {
      "inputs": [],
      "name": "unpause",
      "outputs": [],
      "stateMutability": "nonpayable",
      "type": "function"
    },
    {
      "inputs": [
        {
          "internalType": "address",
          "name": "newStrategy",
          "type": "address"
        }
      ],
      "name": "updateStrategy",
      "outputs": [],
      "stateMutability": "nonpayable",
      "type": "function"
    },
    {
      "inputs": [
        {
          "internalType": "uint256",
          "name": "assets",
          "type": "uint256"
        },
        {
          "internalType": "address",
          "name": "receiver",
          "type": "address"
        },
        {
          "internalType": "address",
          "name": "owner",
          "type": "address"
        }
      ],
      "name": "withdraw",
      "outputs": [
        {
          "internalType": "uint256",
          "name": "",
          "type": "uint256"
        }
      ],
      "stateMutability": "nonpayable",
      "type": "function"
    }
  ],
  "bytecode": "0x60c060405234801561001057600080fd5b50604051612fc4380380612fc483398101604081905261002f916106a0565b81604051806040016040528060128152602001714c6971756964205374616b6564205742544360701b815250604051806040016040528060068152602001656c737442544360d01b81525081600390816100899190610778565b5060046100968282610778565b5050506000806100ab836101b560201b60201c565b91509150816100bb5760126100bd565b805b60ff1660a05250506001600160a01b03166080526100da33610291565b6005805460ff60a01b1916905560016006556001600160a01b0382166101365760405162461bcd60e51b815260206004820152600c60248201526b496e76616c6964205742544360a01b60448201526064015b60405180910390fd5b6001600160a01b03811661017f5760405162461bcd60e51b815260206004820152601060248201526f496e76616c696420737472617465677960801b604482015260640161012d565b600780546001600160a01b0319166001600160a01b03838116919091179091556101ae908316826000196102e3565b50506108eb565b60408051600481526024810182526020810180516001600160e01b031663313ce56760e01b17905290516000918291829182916001600160a01b038716916101fc9161085a565b600060405180830381855afa9150503d8060008114610237576040519150601f19603f3d011682016040523d82523d6000602084013e61023c565b606091505b509150915081801561025057506020815110155b156102845760008180602001905181019061026b9190610876565b905060ff8111610282576001969095509350505050565b505b5060009485945092505050565b600580546001600160a01b038381166001600160a01b0319831681179093556040519116919082907f8be0079c531659141344cd1fd0a4f28419497f9722a3daafe3b4186f6b6457e090600090a35050565b80158061035d5750604051636eb1769f60e11b81523060048201526001600160a01b03838116602483015284169063dd62ed3e90604401602060405180830381865afa158015610337573d6000803e3d6000fd5b505050506040513d601f19601f8201168201806040525081019061035b9190610876565b155b6103cf5760405162461bcd60e51b815260206004820152603660248201527f5361666545524332303a20617070726f76652066726f6d206e6f6e2d7a65726f60448201527f20746f206e6f6e2d7a65726f20616c6c6f77616e636500000000000000000000606482015260840161012d565b604080516001600160a01b038416602482015260448082018490528251808303909101815260649091019091526020810180516001600160e01b0390811663095ea7b360e01b1790915261042591859161042a16565b505050565b6040805180820190915260208082527f5361666545524332303a206c6f772d6c6576656c2063616c6c206661696c656490820152600090610477906001600160a01b0385169084906104f7565b9050805160001480610498575080806020019051810190610498919061088f565b6104255760405162461bcd60e51b815260206004820152602a60248201527f5361666545524332303a204552433230206f7065726174696f6e20646964206e6044820152691bdd081cdd58d8d9595960b21b606482015260840161012d565b6060610506848460008561050e565b949350505050565b60608247101561056f5760405162461bcd60e51b815260206004820152602660248201527f416464726573733a20696e73756666696369656e742062616c616e636520666f6044820152651c8818d85b1b60d21b606482015260840161012d565b600080866001600160a01b0316858760405161058b919061085a565b60006040518083038185875af1925050503d80600081146105c8576040519150601f19603f3d011682016040523d82523d6000602084013e6105cd565b606091505b5090925090506105df878383876105ea565b979650505050505050565b60608315610659578251600003610652576001600160a01b0385163b6106525760405162461bcd60e51b815260206004820152601d60248201527f416464726573733a2063616c6c20746f206e6f6e2d636f6e7472616374000000604482015260640161012d565b5081610506565b610506838381511561066e5781518083602001fd5b8060405162461bcd60e51b815260040161012d91906108b8565b6001600160a01b038116811461069d57600080fd5b50565b600080604083850312156106b357600080fd5b82516106be81610688565b60208401519092506106cf81610688565b809150509250929050565b634e487b7160e01b600052604160045260246000fd5b600181811c9082168061070457607f821691505b60208210810361072457634e487b7160e01b600052602260045260246000fd5b50919050565b601f82111561042557806000526020600020601f840160051c810160208510156107515750805b601f840160051c820191505b81811015610771576000815560010161075d565b5050505050565b81516001600160401b03811115610791576107916106da565b6107a58161079f84546106f0565b8461072a565b6020601f8211600181146107d957600083156107c15750848201515b600019600385901b1c1916600184901b178455610771565b600084815260208120601f198516915b8281101561080957878501518255602094850194600190920191016107e9565b50848210156108275786840151600019600387901b60f8161c191681555b50505050600190811b01905550565b60005b83811015610851578181015183820152602001610839565b50506000910152565b6000825161086c818460208701610836565b9190910192915050565b60006020828403121561088857600080fd5b5051919050565b6000602082840312156108a157600080fd5b815180151581146108b157600080fd5b9392505050565b60208152600082518060208401526108d7816040850160208701610836565b601f01601f19169190910160400192915050565b60805160a05161267561094f60003960006108b50152600081816102f1015281816104be0152818161063f0152818161097b01528181610a5201528181610a8e01528181610fc9015281816117800152818161197b0152611c8701526126756000f3fe608060405234801561001057600080fd5b50600436106102275760003560e01c80638456cb5911610130578063ba087652116100b8578063daccaf631161007c578063daccaf6314610478578063db2e21bc1461048b578063dd62ed3e14610493578063ef8b30f71461043f578063f2fde38b146104a657600080fd5b8063ba0876521461042c578063c63d75b614610344578063c6e6f5921461043f578063ce96cb7714610452578063d905777e1461046557600080fd5b8063a457c2d7116100ff578063a457c2d7146103cd578063a8c62e76146103e0578063a9059cbb146103f3578063b3d7f6b914610406578063b460af941461041957600080fd5b80638456cb59146103995780638da5cb5b146103a157806394bf804d146103b257806395d89b41146103c557600080fd5b806338d52e0f116101b35780634cdad506116101825780634cdad5061461025c5780635c975abb146103595780636e553f651461036b57806370a082311461037e578063715018a61461039157600080fd5b806338d52e0f146102ef57806339509351146103295780633f4ba83a1461033c578063402d267d1461034457600080fd5b80630a28a477116101fa5780630a28a477146102925780631171bda9146102a557806318160ddd146102ba57806323b872dd146102c2578063313ce567146102d557600080fd5b806301e1d1141461022c57806306fdde031461024757806307a2d13a1461025c578063095ea7b31461026f575b600080fd5b6102346104b9565b6040519081526020015b60405180910390f35b61024f61056b565b60405161023e919061229b565b61023461026a3660046122ce565b6105fd565b61028261027d366004612303565b610610565b604051901515815260200161023e565b6102346102a03660046122ce565b610628565b6102b86102b336600461232d565b610635565b005b600254610234565b6102826102d036600461232d565b610887565b6102dd6108ad565b60405160ff909116815260200161023e565b7f00000000000000000000000000000000000000000000000000000000000000005b6040516001600160a01b03909116815260200161023e565b610282610337366004612303565b6108de565b6102b8610900565b61023461035236600461236a565b5060001990565b600554600160a01b900460ff16610282565b610234610379366004612385565b610912565b61023461038c36600461236a565b610c78565b6102b8610c93565b6102b8610ca5565b6005546001600160a01b0316610311565b6102346103c0366004612385565b610cb5565b61024f610ccf565b6102826103db366004612303565b610cde565b600754610311906001600160a01b031681565b610282610401366004612303565b610d64565b6102346104143660046122ce565b610d72565b6102346104273660046123b1565b610d7f565b61023461043a3660046123b1565b610eab565b61023461044d3660046122ce565b610f27565b61023461046036600461236a565b610f34565b61023461047336600461236a565b610f49565b6102b861048636600461236a565b610f54565b6102b861102f565b6102346104a13660046123ed565b61111d565b6102b86104b436600461236a565b611148565b6000807f00000000000000000000000000000000000000000000000000000000000000006040516370a0823160e01b81523060048201526001600160a01b0391909116906370a0823190602401602060405180830381865afa158015610523573d6000803e3d6000fd5b505050506040513d601f19601f820116820180604052508101906105479190612417565b6008546105549190612446565b905080156105625780610565565b60015b91505090565b60606003805461057a90612459565b80601f01602080910402602001604051908101604052809291908181526020018280546105a690612459565b80156105f35780601f106105c8576101008083540402835291602001916105f3565b820191906000526020600020905b8154815290600101906020018083116105d657829003601f168201915b5050505050905090565b600061060a8260006111c1565b92915050565b60003361061e8185856111fb565b5060019392505050565b600061060a82600161131f565b61063d61134f565b7f00000000000000000000000000000000000000000000000000000000000000006001600160a01b0316836001600160a01b0316036106cf5760405162461bcd60e51b815260206004820152602360248201527f43616e6e6f74207265636f7665722074686520756e6465726c79696e6720746f60448201526235b2b760e91b60648201526084015b60405180910390fd5b6001600160a01b0382166107195760405162461bcd60e51b8152602060048201526011602482015270125b9d985b1a59081c9958da5c1a595b9d607a1b60448201526064016106c6565b600081116107695760405162461bcd60e51b815260206004820152601d60248201527f416d6f756e74206d7573742062652067726561746572207468616e203000000060448201526064016106c6565b6040516370a0823160e01b815230600482015283906000906001600160a01b038316906370a0823190602401602060405180830381865afa1580156107b2573d6000803e3d6000fd5b505050506040513d601f19601f820116820180604052508101906107d69190612417565b90508083111561081f5760405162461bcd60e51b8152602060048201526014602482015273496e73756666696369656e742062616c616e636560601b60448201526064016106c6565b6108336001600160a01b03831685856113a9565b836001600160a01b0316856001600160a01b03167ffff3b3844276f57024e0b42afec1a37f75db36511e43819a4f2a63ab7862b6488560405161087891815260200190565b60405180910390a35050505050565b600033610895858285611411565b6108a085858561148b565b60019150505b9392505050565b60006108d9817f0000000000000000000000000000000000000000000000000000000000000000612493565b905090565b60003361061e8185856108f1838361111d565b6108fb9190612446565b6111fb565b61090861134f565b61091061162f565b565b600061091c611684565b6109246116dd565b600083116109675760405162461bcd60e51b815260206004820152601060248201526f043616e6e6f74206465706f73697420360841b60448201526064016106c6565b6000600080516020612620833981519152477f00000000000000000000000000000000000000000000000000000000000000006040516370a0823160e01b81523060048201526001600160a01b0391909116906370a0823190602401602060405180830381865afa1580156109e0573d6000803e3d6000fd5b505050506040513d601f19601f82011682018060405250810190610a049190612417565b604080516060808252601390820152724265666f7265207472616e7366657246726f6d60681b6080820152602081019390935282015260a00160405180910390a2610a7a6001600160a01b037f00000000000000000000000000000000000000000000000000000000000000001633308661172a565b6001600080516020612620833981519152847f00000000000000000000000000000000000000000000000000000000000000006040516370a0823160e01b81523060048201526001600160a01b0391909116906370a0823190602401602060405180830381865afa158015610af3573d6000803e3d6000fd5b505050506040513d601f19601f82011682018060405250810190610b179190612417565b604080516060808252601290820152714166746572207472616e7366657246726f6d60701b6080820152602081019390935282015260a00160405180910390a2610b6083611762565b82600260008051602061262083398151915282610b7c86610c78565b604080516060808252601590820152744265666f7265206d696e74696e672073686172657360581b6080820152602081019390935282015260a00160405180910390a2610bc9838261182a565b600360008051602061262083398151915282610be486610c78565b604080516060808252601490820152734166746572206d696e74696e672073686172657360601b6080820152602081019390935282015260a00160405180910390a260408051858152602081018390526001600160a01b0385169133917fdcbc1c05240f31ff3ad067ef1ee35ce4997762752e3a095284754544f4c709d7910160405180910390a3905061060a6001600655565b6001600160a01b031660009081526020819052604090205490565b610c9b61134f565b61091060006118e1565b610cad61134f565b610910611933565b600080610cc184610d72565b90506108a633848387611976565b60606004805461057a90612459565b60003381610cec828661111d565b905083811015610d4c5760405162461bcd60e51b815260206004820152602560248201527f45524332303a2064656372656173656420616c6c6f77616e63652062656c6f77604482015264207a65726f60d81b60648201526084016106c6565b610d5982868684036111fb565b506001949350505050565b60003361061e81858561148b565b600061060a8260016111c1565b6000610d89611684565b610d916116dd565b60008411610dd55760405162461bcd60e51b8152602060048201526011602482015270043616e6e6f74207769746864726177203607c1b60448201526064016106c6565b83336001600160a01b03841614610df157610df1833383611411565b80610dfb84610c78565b1015610e405760405162461bcd60e51b8152602060048201526014602482015273496e73756666696369656e742062616c616e636560601b60448201526064016106c6565b610e4a8382611a08565b610e548585611b3a565b60408051868152602081018390526001600160a01b03808616929087169133917ffbde797d201c681b91056529119e0b02407c7bb96a4a2c75c01fc9667232c8db910160405180910390a490506108a66001600655565b6000610eb682610f49565b841115610f055760405162461bcd60e51b815260206004820152601d60248201527f455243343632363a2072656465656d206d6f7265207468616e206d617800000060448201526064016106c6565b6000610f10856105fd565b9050610f1f3385858489611c54565b949350505050565b600061060a82600061131f565b600061060a610f4283610c78565b60006111c1565b600061060a82610c78565b610f5c61134f565b6001600160a01b038116610fa55760405162461bcd60e51b815260206004820152601060248201526f496e76616c696420737472617465677960801b60448201526064016106c6565b600780546001600160a01b0319166001600160a01b038316179055610ff8816000197f00000000000000000000000000000000000000000000000000000000000000006001600160a01b03169190611d14565b6040516001600160a01b038216907f4da9c22c924692646a21cf1f423781ae3285198dc22e8a6912835d3272b90b3c90600090a250565b61103761134f565b61103f611933565b60075460408051600481526024810182526020810180516001600160e01b03166336cb886f60e21b17905290516000926001600160a01b031691611082916124ac565b6000604051808303816000865af19150503d80600081146110bf576040519150601f19603f3d011682016040523d82523d6000602084013e6110c4565b606091505b50509050806111155760405162461bcd60e51b815260206004820152601b60248201527f456d657267656e6379207769746864726177616c206661696c6564000000000060448201526064016106c6565b506000600855565b6001600160a01b03918216600090815260016020908152604080832093909416825291909152205490565b61115061134f565b6001600160a01b0381166111b55760405162461bcd60e51b815260206004820152602660248201527f4f776e61626c653a206e6577206f776e657220697320746865207a65726f206160448201526564647265737360d01b60648201526084016106c6565b6111be816118e1565b50565b60006108a66111ce6104b9565b6111d9906001612446565b6111e56000600a6125af565b6002546111f29190612446565b85919085611e29565b6001600160a01b03831661125d5760405162461bcd60e51b8152602060048201526024808201527f45524332303a20617070726f76652066726f6d20746865207a65726f206164646044820152637265737360e01b60648201526084016106c6565b6001600160a01b0382166112be5760405162461bcd60e51b815260206004820152602260248201527f45524332303a20617070726f766520746f20746865207a65726f206164647265604482015261737360f01b60648201526084016106c6565b6001600160a01b0383811660008181526001602090815260408083209487168084529482529182902085905590518481527f8c5be1e5ebec7d5bd14f71427d1e84f3dd0314c0f7b2291e5b200ac8c7c3b925910160405180910390a3505050565b60006108a661132f82600a6125af565b60025461133c9190612446565b6113446104b9565b6111f2906001612446565b6005546001600160a01b031633146109105760405162461bcd60e51b815260206004820181905260248201527f4f776e61626c653a2063616c6c6572206973206e6f7420746865206f776e657260448201526064016106c6565b6040516001600160a01b03831660248201526044810182905261140c90849063a9059cbb60e01b906064015b60408051601f198184030181529190526020810180516001600160e01b03166001600160e01b031990931692909217909152611e86565b505050565b600061141d848461111d565b9050600019811461148557818110156114785760405162461bcd60e51b815260206004820152601d60248201527f45524332303a20696e73756666696369656e7420616c6c6f77616e636500000060448201526064016106c6565b61148584848484036111fb565b50505050565b6001600160a01b0383166114ef5760405162461bcd60e51b815260206004820152602560248201527f45524332303a207472616e736665722066726f6d20746865207a65726f206164604482015264647265737360d81b60648201526084016106c6565b6001600160a01b0382166115515760405162461bcd60e51b815260206004820152602360248201527f45524332303a207472616e7366657220746f20746865207a65726f206164647260448201526265737360e81b60648201526084016106c6565b6001600160a01b038316600090815260208190526040902054818110156115c95760405162461bcd60e51b815260206004820152602660248201527f45524332303a207472616e7366657220616d6f756e7420657863656564732062604482015265616c616e636560d01b60648201526084016106c6565b6001600160a01b03848116600081815260208181526040808320878703905593871680835291849020805487019055925185815290927fddf252ad1be2c89b69c2b068fc378daa952ba7f163c4a11628f55a4df523b3ef910160405180910390a3611485565b611637611f5b565b6005805460ff60a01b191690557f5db9ee0a495bf2e6ff9c91a7834c1ba4fdd244a5e8aa4e537bd38aeae4b073aa335b6040516001600160a01b03909116815260200160405180910390a1565b6002600654036116d65760405162461bcd60e51b815260206004820152601f60248201527f5265656e7472616e637947756172643a207265656e7472616e742063616c6c0060448201526064016106c6565b6002600655565b600554600160a01b900460ff16156109105760405162461bcd60e51b815260206004820152601060248201526f14185d5cd8589b194e881c185d5cd95960821b60448201526064016106c6565b6040516001600160a01b03808516602483015283166044820152606481018290526114859085906323b872dd60e01b906084016113d5565b8060000361176d5750565b6007546117af906001600160a01b0316827f00000000000000000000000000000000000000000000000000000000000000006001600160a01b031691906113a9565b60075460405163534a7e1d60e11b8152600481018390526001600160a01b0390911690819063a694fc3a90602401600060405180830381600087803b1580156117f757600080fd5b505af115801561180b573d6000803e3d6000fd5b5050505081600860008282546118219190612446565b90915550505050565b600a6000805160206126208339815191528261184585610c78565b604080516060808252600c908201526b1099599bdc994817db5a5b9d60a21b6080820152602081019390935282015260a00160405180910390a26118898282611fab565b600b600080516020612620833981519152826118a485610c78565b604080516060808252600b908201526a10599d195c8817db5a5b9d60aa1b6080820152602081019390935282015260a00160405180910390a25050565b600580546001600160a01b038381166001600160a01b0319831681179093556040519116919082907f8be0079c531659141344cd1fd0a4f28419497f9722a3daafe3b4186f6b6457e090600090a35050565b61193b6116dd565b6005805460ff60a01b1916600160a01b1790557f62e78cea01bee320cd4e420270b5ea74000d11b0c9f74754ebdbfc544b05a2586116673390565b6119a27f000000000000000000000000000000000000000000000000000000000000000085308561172a565b6119ac838261182a565b826001600160a01b0316846001600160a01b03167fdcbc1c05240f31ff3ad067ef1ee35ce4997762752e3a095284754544f4c709d784846040516119fa929190918252602082015260400190565b60405180910390a350505050565b6001600160a01b038216611a685760405162461bcd60e51b815260206004820152602160248201527f45524332303a206275726e2066726f6d20746865207a65726f206164647265736044820152607360f81b60648201526084016106c6565b6001600160a01b03821660009081526020819052604090205481811015611adc5760405162461bcd60e51b815260206004820152602260248201527f45524332303a206275726e20616d6f756e7420657863656564732062616c616e604482015261636560f01b60648201526084016106c6565b6001600160a01b0383166000818152602081815260408083208686039055600280548790039055518581529192917fddf252ad1be2c89b69c2b068fc378daa952ba7f163c4a11628f55a4df523b3ef910160405180910390a3505050565b60008211611b7d5760405162461bcd60e51b815260206004820152601060248201526f043616e6e6f7420756e7374616b6520360841b60448201526064016106c6565b600854821115611bcf5760405162461bcd60e51b815260206004820152601a60248201527f496e73756666696369656e74207374616b656420616d6f756e7400000000000060448201526064016106c6565b6007546040516341c0f0c160e11b8152600481018490526001600160a01b038381166024830152909116908190638381e18290604401600060405180830381600087803b158015611c1f57600080fd5b505af1158015611c33573d6000803e3d6000fd5b505050508260086000828254611c4991906125be565b9091555061140c9050565b826001600160a01b0316856001600160a01b031614611c7857611c78838683611411565b611c828382611a08565b611cad7f000000000000000000000000000000000000000000000000000000000000000085846113a9565b826001600160a01b0316846001600160a01b0316866001600160a01b03167ffbde797d201c681b91056529119e0b02407c7bb96a4a2c75c01fc9667232c8db8585604051611d05929190918252602082015260400190565b60405180910390a45050505050565b801580611d8e5750604051636eb1769f60e11b81523060048201526001600160a01b03838116602483015284169063dd62ed3e90604401602060405180830381865afa158015611d68573d6000803e3d6000fd5b505050506040513d601f19601f82011682018060405250810190611d8c9190612417565b155b611df95760405162461bcd60e51b815260206004820152603660248201527f5361666545524332303a20617070726f76652066726f6d206e6f6e2d7a65726f60448201527520746f206e6f6e2d7a65726f20616c6c6f77616e636560501b60648201526084016106c6565b6040516001600160a01b03831660248201526044810182905261140c90849063095ea7b360e01b906064016113d5565b600080611e3786868661206a565b90506001836002811115611e4d57611e4d6125d1565b148015611e6a575060008480611e6557611e656125e7565b868809115b15611e7d57611e7a600182612446565b90505b95945050505050565b6000611edb826040518060400160405280602081526020017f5361666545524332303a206c6f772d6c6576656c2063616c6c206661696c6564815250856001600160a01b03166121549092919063ffffffff16565b9050805160001480611efc575080806020019051810190611efc91906125fd565b61140c5760405162461bcd60e51b815260206004820152602a60248201527f5361666545524332303a204552433230206f7065726174696f6e20646964206e6044820152691bdd081cdd58d8d9595960b21b60648201526084016106c6565b600554600160a01b900460ff166109105760405162461bcd60e51b815260206004820152601460248201527314185d5cd8589b194e881b9bdd081c185d5cd95960621b60448201526064016106c6565b6001600160a01b0382166120015760405162461bcd60e51b815260206004820152601f60248201527f45524332303a206d696e7420746f20746865207a65726f20616464726573730060448201526064016106c6565b80600260008282546120139190612446565b90915550506001600160a01b038216600081815260208181526040808320805486019055518481527fddf252ad1be2c89b69c2b068fc378daa952ba7f163c4a11628f55a4df523b3ef910160405180910390a35050565b60008080600019858709858702925082811083820303915050806000036120a45783828161209a5761209a6125e7565b04925050506108a6565b8084116120eb5760405162461bcd60e51b81526020600482015260156024820152744d6174683a206d756c446976206f766572666c6f7760581b60448201526064016106c6565b60008486880960026001871981018816978890046003810283188082028403028082028403028082028403028082028403028082028403029081029092039091026000889003889004909101858311909403939093029303949094049190911702949350505050565b6060610f1f848460008585600080866001600160a01b0316858760405161217b91906124ac565b60006040518083038185875af1925050503d80600081146121b8576040519150601f19603f3d011682016040523d82523d6000602084013e6121bd565b606091505b50915091506121ce878383876121d9565b979650505050505050565b60608315612248578251600003612241576001600160a01b0385163b6122415760405162461bcd60e51b815260206004820152601d60248201527f416464726573733a2063616c6c20746f206e6f6e2d636f6e747261637400000060448201526064016106c6565b5081610f1f565b610f1f838381511561225d5781518083602001fd5b8060405162461bcd60e51b81526004016106c6919061229b565b60005b8381101561229257818101518382015260200161227a565b50506000910152565b60208152600082518060208401526122ba816040850160208701612277565b601f01601f19169190910160400192915050565b6000602082840312156122e057600080fd5b5035919050565b80356001600160a01b03811681146122fe57600080fd5b919050565b6000806040838503121561231657600080fd5b61231f836122e7565b946020939093013593505050565b60008060006060848603121561234257600080fd5b61234b846122e7565b9250612359602085016122e7565b929592945050506040919091013590565b60006020828403121561237c57600080fd5b6108a6826122e7565b6000806040838503121561239857600080fd5b823591506123a8602084016122e7565b90509250929050565b6000806000606084860312156123c657600080fd5b833592506123d6602085016122e7565b91506123e4604085016122e7565b90509250925092565b6000806040838503121561240057600080fd5b612409836122e7565b91506123a8602084016122e7565b60006020828403121561242957600080fd5b5051919050565b634e487b7160e01b600052601160045260246000fd5b8082018082111561060a5761060a612430565b600181811c9082168061246d57607f821691505b60208210810361248d57634e487b7160e01b600052602260045260246000fd5b50919050565b60ff818116838216019081111561060a5761060a612430565b600082516124be818460208701612277565b9190910192915050565b6001815b6001841115612503578085048111156124e7576124e7612430565b60018416156124f557908102905b60019390931c9280026124cc565b935093915050565b60008261251a5750600161060a565b816125275750600061060a565b816001811461253d576002811461254757612563565b600191505061060a565b60ff84111561255857612558612430565b50506001821b61060a565b5060208310610133831016604e8410600b8410161715612586575081810a61060a565b61259360001984846124c8565b80600019048211156125a7576125a7612430565b029392505050565b60006108a660ff84168361250b565b8181038181111561060a5761060a612430565b634e487b7160e01b600052602160045260246000fd5b634e487b7160e01b600052601260045260246000fd5b60006020828403121561260f57600080fd5b815180151581146108a657600080fdfe0dcd8cbf9a877fb321b9f06a1a8fe10c245d32497cc600810517a31dbfc844e8a2646970667358221220eef665b4e97a08fb6d13afca523f88a3d565a8bc962e945284b7146f8b31efaa64736f6c634300081b0033",
  "linkReferences": {},
  "deployedLinkReferences": {}
}