{
  "_format": "hh-sol-artifact-1",
  "contractName": "VaultFactory",
  "sourceName": "contracts/VaultFactory.sol",
  "abi": [
    {
      "inputs": [],
      "stateMutability": "nonpayable",
      "type": "constructor"
    },
    {
      "anonymous": false,
      "inputs": [
        {
          "indexed": false,
          "internalType": "string",
          "name": "vaultType",
          "type": "string"
        },
        {
          "indexed": false,
          "internalType": "address",
          "name": "implementation",
          "type": "address"
        }
      ],
      "name": "ImplementationUpdated",
      "type": "event"
    },
    {
      "anonymous": false,
      "inputs": [
        {
          "indexed": true,
          "internalType": "address",
          "name": "previousOwner",
          "type": "address"
        },
        {
          "indexed": true,
          "internalType": "address",
          "name": "newOwner",
          "type": "address"
        }
      ],
      "name": "OwnershipTransferred",
      "type": "event"
    },
    {
      "anonymous": false,
      "inputs": [
        {
          "indexed": false,
          "internalType": "address",
          "name": "treasuryAIManager",
          "type": "address"
        }
      ],
      "name": "TreasuryAIManagerUpdated",
      "type": "event"
    },
    {
      "anonymous": false,
      "inputs": [
        {
          "indexed": true,
          "internalType": "address",
          "name": "vault",
          "type": "address"
        },
        {
          "indexed": false,
          "internalType": "string",
          "name": "vaultType",
          "type": "string"
        },
        {
          "indexed": true,
          "internalType": "address",
          "name": "creator",
          "type": "address"
        }
      ],
      "name": "VaultCreated",
      "type": "event"
    },
    {
      "inputs": [],
      "name": "aaveVaultImplementation",
      "outputs": [
        {
          "internalType": "address",
          "name": "",
          "type": "address"
        }
      ],
      "stateMutability": "view",
      "type": "function"
    },
    {
      "inputs": [
        {
          "internalType": "uint256",
          "name": "",
          "type": "uint256"
        }
      ],
      "name": "allVaults",
      "outputs": [
        {
          "internalType": "address",
          "name": "",
          "type": "address"
        }
      ],
      "stateMutability": "view",
      "type": "function"
    },
    {
      "inputs": [
        {
          "internalType": "string",
          "name": "_vaultType",
          "type": "string"
        }
      ],
      "name": "createVault",
      "outputs": [
        {
          "internalType": "address",
          "name": "",
          "type": "address"
        }
      ],
      "stateMutability": "nonpayable",
      "type": "function"
    },
    {
      "inputs": [],
      "name": "curveVaultImplementation",
      "outputs": [
        {
          "internalType": "address",
          "name": "",
          "type": "address"
        }
      ],
      "stateMutability": "view",
      "type": "function"
    },
    {
      "inputs": [],
      "name": "getVaultCount",
      "outputs": [
        {
          "internalType": "uint256",
          "name": "",
          "type": "uint256"
        }
      ],
      "stateMutability": "view",
      "type": "function"
    },
    {
      "inputs": [
        {
          "internalType": "string",
          "name": "_vaultType",
          "type": "string"
        }
      ],
      "name": "getVaultsByType",
      "outputs": [
        {
          "internalType": "address[]",
          "name": "",
          "type": "address[]"
        }
      ],
      "stateMutability": "view",
      "type": "function"
    },
    {
      "inputs": [],
      "name": "owner",
      "outputs": [
        {
          "internalType": "address",
          "name": "",
          "type": "address"
        }
      ],
      "stateMutability": "view",
      "type": "function"
    },
    {
      "inputs": [],
      "name": "renounceOwnership",
      "outputs": [],
      "stateMutability": "nonpayable",
      "type": "function"
    },
    {
      "inputs": [],
      "name": "rwaVaultImplementation",
      "outputs": [
        {
          "internalType": "address",
          "name": "",
          "type": "address"
        }
      ],
      "stateMutability": "view",
      "type": "function"
    },
    {
      "inputs": [
        {
          "internalType": "address",
          "name": "_treasuryAIManager",
          "type": "address"
        }
      ],
      "name": "setTreasuryAIManager",
      "outputs": [],
      "stateMutability": "nonpayable",
      "type": "function"
    },
    {
      "inputs": [
        {
          "internalType": "string",
          "name": "_vaultType",
          "type": "string"
        },
        {
          "internalType": "address",
          "name": "_implementation",
          "type": "address"
        }
      ],
      "name": "setVaultImplementation",
      "outputs": [],
      "stateMutability": "nonpayable",
      "type": "function"
    },
    {
      "inputs": [
        {
          "internalType": "address",
          "name": "newOwner",
          "type": "address"
        }
      ],
      "name": "transferOwnership",
      "outputs": [],
      "stateMutability": "nonpayable",
      "type": "function"
    },
    {
      "inputs": [],
      "name": "treasuryAIManager",
      "outputs": [
        {
          "internalType": "address",
          "name": "",
          "type": "address"
        }
      ],
      "stateMutability": "view",
      "type": "function"
    },
    {
      "inputs": [
        {
          "internalType": "string",
          "name": "",
          "type": "string"
        }
      ],
      "name": "vaultImplementations",
      "outputs": [
        {
          "internalType": "address",
          "name": "",
          "type": "address"
        }
      ],
      "stateMutability": "view",
      "type": "function"
    },
    {
      "inputs": [
        {
          "internalType": "address",
          "name": "",
          "type": "address"
        }
      ],
      "name": "vaultTypes",
      "outputs": [
        {
          "internalType": "string",
          "name": "",
          "type": "string"
        }
      ],
      "stateMutability": "view",
      "type": "function"
    }
  ],
  "bytecode": "0x6080604052348015600f57600080fd5b50601733601b565b606b565b600080546001600160a01b038381166001600160a01b0319831681178455604051919092169283917f8be0079c531659141344cd1fd0a4f28419497f9722a3daafe3b4186f6b6457e09190a35050565b61100b8061007a6000396000f3fe608060405234801561001057600080fd5b50600436106100f55760003560e01c80639094a91e11610097578063db15f24511610066578063db15f245146101f5578063eafe104d14610208578063f0515f951461023c578063f2fde38b1461024f57600080fd5b80639094a91e1461019c578063a9d1d8e3146101af578063d25e91a0146101cf578063d6f51d62146101e257600080fd5b8063715018a6116100d3578063715018a61461015257806374d4e4911461015a5780637a0b459b1461016b5780638da5cb5b1461018b57600080fd5b80633ab579f8146100fa5780633fe1da881461012a5780635cbd903c1461013d575b600080fd5b60035461010d906001600160a01b031681565b6040516001600160a01b0390911681526020015b60405180910390f35b61010d610138366004610c09565b610262565b61015061014b366004610c5d565b610582565b005b610150610640565b600654604051908152602001610121565b61017e610179366004610c09565b610654565b6040516101219190610c7f565b6000546001600160a01b031661010d565b61010d6101aa366004610ccb565b610809565b6101c26101bd366004610c5d565b610833565b6040516101219190610d34565b60015461010d906001600160a01b031681565b6101506101f0366004610d47565b6108cd565b60045461010d906001600160a01b031681565b61010d610216366004610c09565b80516020818301810180516005825292820191909301209152546001600160a01b031681565b60025461010d906001600160a01b031681565b61015061025d366004610c5d565b6109a7565b6000806005836040516102759190610d95565b908152604051908190036020019020546001600160a01b03169050806102e25760405162461bcd60e51b815260206004820152601860248201527f5661756c742074797065206e6f7420737570706f72746564000000000000000060448201526064015b60405180910390fd5b60006102f6826001600160a01b0316610a20565b6040805180820190915260048152636161766560e01b6020918201528551908601209091507f1f5c6010755a7783899f9185eb5a247239989e6e1b7994d59f65c55ffc4e7cd7016103a8576004805460405163189acdbd60e31b81526001600160a01b039182169281019290925282169063c4d66de8906024015b600060405180830381600087803b15801561038b57600080fd5b505af115801561039f573d6000803e3d6000fd5b505050506104ce565b604080518082019091526005815264637572766560d81b6020918201528451908501207fa50f118213ae9809e7f99679cba19b89c4d26e8e7204c8066965e4f98f57c18f01610425576004805460405163189acdbd60e31b81526001600160a01b039182169281019290925282169063c4d66de890602401610371565b60408051808201909152600381526272776160e81b6020918201528451908501207f9616233dc0e938ae4a5ef01bab28a458f78fbc7d945bcf0c97e2cba73fa1bcd8016104ce576004805460405163189acdbd60e31b81526001600160a01b039182169281019290925282169063c4d66de890602401600060405180830381600087803b1580156104b557600080fd5b505af11580156104c9573d6000803e3d6000fd5b505050505b60068054600181019091557ff652222313e28459528d920b65115c16c04f3efc82aaedc97be59f3f377c0d3f0180546001600160a01b0319166001600160a01b038316908117909155600090815260076020526040902061052f8582610e3a565b50336001600160a01b0316816001600160a01b03167f82c96bf44fd50a2634984ca769fa444c727f377bc7970e8beca6f81aeb7cbe86866040516105739190610d34565b60405180910390a39392505050565b61058a610aba565b6001600160a01b0381166105ec5760405162461bcd60e51b815260206004820152602360248201527f496e76616c6964205472656173757279204149204d616e61676572206164647260448201526265737360e81b60648201526084016102d9565b600480546001600160a01b0319166001600160a01b0383169081179091556040519081527f060aa3a6e0b2993fd248a76ff600d9a7752b1edd0387e1ecaa86a06520fa94649060200160405180910390a150565b610648610aba565b6106526000610b14565b565b60606000805b6006548110156106d9578380519060200120600760006006848154811061068357610683610ef9565b60009182526020808320909101546001600160a01b03168352820192909252604090810190912090516106b69190610f0f565b6040518091039020036106d157816106cd81610f84565b9250505b60010161065a565b5060008167ffffffffffffffff8111156106f5576106f5610b64565b60405190808252806020026020018201604052801561071e578160200160208202803683370190505b5090506000805b6006548110156107ff578580519060200120600760006006848154811061074e5761074e610ef9565b60009182526020808320909101546001600160a01b03168352820192909252604090810190912090516107819190610f0f565b6040518091039020036107f757600681815481106107a1576107a1610ef9565b9060005260206000200160009054906101000a90046001600160a01b03168383815181106107d1576107d1610ef9565b6001600160a01b0390921660209283029190910190910152816107f381610f84565b9250505b600101610725565b5090949350505050565b6006818154811061081957600080fd5b6000918252602090912001546001600160a01b0316905081565b6007602052600090815260409020805461084c90610db1565b80601f016020809104026020016040519081016040528092919081815260200182805461087890610db1565b80156108c55780601f1061089a576101008083540402835291602001916108c5565b820191906000526020600020905b8154815290600101906020018083116108a857829003601f168201915b505050505081565b6108d5610aba565b6001600160a01b03811661092b5760405162461bcd60e51b815260206004820152601e60248201527f496e76616c696420696d706c656d656e746174696f6e2061646472657373000060448201526064016102d9565b8060058360405161093c9190610d95565b90815260405190819003602001812080546001600160a01b03939093166001600160a01b0319909316929092179091557fa1e41aa2c2f3f20d9b63ac06b634d2788768d6034f3d9192cdf7d07374bb16f49061099b9084908490610fab565b60405180910390a15050565b6109af610aba565b6001600160a01b038116610a145760405162461bcd60e51b815260206004820152602660248201527f4f776e61626c653a206e6577206f776e657220697320746865207a65726f206160448201526564647265737360d01b60648201526084016102d9565b610a1d81610b14565b50565b6000763d602d80600a3d3981f3363d3d373d3d3d363d730000008260601b60e81c176000526e5af43d82803e903d91602b57fd5bf38260781b17602052603760096000f090506001600160a01b038116610ab55760405162461bcd60e51b8152602060048201526016602482015275115490cc4c4d8dce8818dc99585d194819985a5b195960521b60448201526064016102d9565b919050565b6000546001600160a01b031633146106525760405162461bcd60e51b815260206004820181905260248201527f4f776e61626c653a2063616c6c6572206973206e6f7420746865206f776e657260448201526064016102d9565b600080546001600160a01b038381166001600160a01b0319831681178455604051919092169283917f8be0079c531659141344cd1fd0a4f28419497f9722a3daafe3b4186f6b6457e09190a35050565b634e487b7160e01b600052604160045260246000fd5b600082601f830112610b8b57600080fd5b813567ffffffffffffffff811115610ba557610ba5610b64565b604051601f8201601f19908116603f0116810167ffffffffffffffff81118282101715610bd457610bd4610b64565b604052818152838201602001851015610bec57600080fd5b816020850160208301376000918101602001919091529392505050565b600060208284031215610c1b57600080fd5b813567ffffffffffffffff811115610c3257600080fd5b610c3e84828501610b7a565b949350505050565b80356001600160a01b0381168114610ab557600080fd5b600060208284031215610c6f57600080fd5b610c7882610c46565b9392505050565b602080825282518282018190526000918401906040840190835b81811015610cc05783516001600160a01b0316835260209384019390920191600101610c99565b509095945050505050565b600060208284031215610cdd57600080fd5b5035919050565b60005b83811015610cff578181015183820152602001610ce7565b50506000910152565b60008151808452610d20816020860160208601610ce4565b601f01601f19169290920160200192915050565b602081526000610c786020830184610d08565b60008060408385031215610d5a57600080fd5b823567ffffffffffffffff811115610d7157600080fd5b610d7d85828601610b7a565b925050610d8c60208401610c46565b90509250929050565b60008251610da7818460208701610ce4565b9190910192915050565b600181811c90821680610dc557607f821691505b602082108103610de557634e487b7160e01b600052602260045260246000fd5b50919050565b601f821115610e3557806000526020600020601f840160051c81016020851015610e125750805b601f840160051c820191505b81811015610e325760008155600101610e1e565b50505b505050565b815167ffffffffffffffff811115610e5457610e54610b64565b610e6881610e628454610db1565b84610deb565b6020601f821160018114610e9c5760008315610e845750848201515b600019600385901b1c1916600184901b178455610e32565b600084815260208120601f198516915b82811015610ecc5787850151825560209485019460019092019101610eac565b5084821015610eea5786840151600019600387901b60f8161c191681555b50505050600190811b01905550565b634e487b7160e01b600052603260045260246000fd5b6000808354610f1d81610db1565b600182168015610f345760018114610f4957610f79565b60ff1983168652811515820286019350610f79565b86600052602060002060005b83811015610f7157815488820152600190910190602001610f55565b505081860193505b509195945050505050565b600060018201610fa457634e487b7160e01b600052601160045260246000fd5b5060010190565b604081526000610fbe6040830185610d08565b905060018060a01b0383166020830152939250505056fea2646970667358221220ab1efe1e95bc44c918af6cfe7d710f4691fb5299dc51778062da409b01e5e06f64736f6c634300081b0033",
  "linkReferences": {},
  "deployedLinkReferences": {}
}